{
  "_format": "hh-sol-artifact-1",
  "contractName": "BLSAccountFactory",
  "sourceName": "contracts/samples/bls/BLSAccountFactory.sol",
  "abi": [
    {
      "inputs": [
        {
          "internalType": "contract IEntryPoint",
          "name": "entryPoint",
          "type": "address"
        },
        {
          "internalType": "address",
          "name": "aggregator",
          "type": "address"
        }
      ],
      "stateMutability": "nonpayable",
      "type": "constructor"
    },
    {
      "inputs": [],
      "name": "accountImplementation",
      "outputs": [
        {
          "internalType": "contract BLSAccount",
          "name": "",
          "type": "address"
        }
      ],
      "stateMutability": "view",
      "type": "function"
    },
    {
      "inputs": [
        {
          "internalType": "uint256",
          "name": "salt",
          "type": "uint256"
        },
        {
          "internalType": "uint256[4]",
          "name": "aPublicKey",
          "type": "uint256[4]"
        }
      ],
      "name": "createAccount",
      "outputs": [
        {
          "internalType": "contract BLSAccount",
          "name": "",
          "type": "address"
        }
      ],
      "stateMutability": "nonpayable",
      "type": "function"
    },
    {
      "inputs": [
        {
          "internalType": "uint256",
          "name": "salt",
          "type": "uint256"
        },
        {
          "internalType": "uint256[4]",
          "name": "aPublicKey",
          "type": "uint256[4]"
        }
      ],
      "name": "getAddress",
      "outputs": [
        {
          "internalType": "address",
          "name": "",
          "type": "address"
        }
      ],
      "stateMutability": "view",
      "type": "function"
    }
  ],
  "bytecode": "0x60a060405234801561001057600080fd5b50604051612cd2380380612cd283398101604081905261002f916100aa565b818160405161003d90610085565b6001600160a01b03928316815291166020820152604001604051809103906000f080158015610070573d6000803e3d6000fd5b506001600160a01b0316608052506100e49050565b611f5380610d7f83390190565b6001600160a01b03811681146100a757600080fd5b50565b600080604083850312156100bd57600080fd5b82516100c881610092565b60208401519092506100d981610092565b809150509250929050565b608051610c7361010c6000396000818160510152818161017201526102470152610c736000f3fe60806040523480156200001157600080fd5b5060043610620000465760003560e01c806311464fbe146200004b57806319c2a1b2146200008f578063de3398dd14620000a6575b600080fd5b620000737f000000000000000000000000000000000000000000000000000000000000000081565b6040516001600160a01b03909116815260200160405180910390f35b62000073620000a036600462000338565b620000bd565b62000073620000b736600462000383565b62000215565b600081620000cd60803662000415565b8114620001165760405162461bcd60e51b81526020600482015260136024820152721ddc9bdb99c81c1d589ad95e481bd9999cd95d606a1b604482015260640160405180910390fd5b60006200014d8585600480602002604051908101604052809291908260046020028082843760009201919091525062000215915050565b90506001600160a01b0381163b80156200016c575091506200020f9050565b8560001b7f000000000000000000000000000000000000000000000000000000000000000086604051602401620001a4919062000437565b60408051601f198184030181529181526020820180516001600160e01b0316637723979b60e11b17905251620001da906200032a565b620001e79291906200046c565b8190604051809103906000f590508015801562000208573d6000803e3d6000fd5b5093505050505b92915050565b6000620002f08360001b6040518060200162000231906200032a565b6020820181038252601f19601f820116604052507f000000000000000000000000000000000000000000000000000000000000000085604051602401620002799190620004b0565b60408051601f19818403018152918152602080830180516001600160e01b0316637723979b60e11b1790529051620002b4939291016200046c565b60408051601f1981840301815290829052620002d49291602001620004e3565b60405160208183030381529060405280519060200120620002f7565b9392505050565b6000620002f08383306000604051836040820152846020820152828152600b8101905060ff815360559020949350505050565b610727806200051783390190565b60008060a083850312156200034c57600080fd5b823591508360a0840111156200036157600080fd5b50926020919091019150565b634e487b7160e01b600052604160045260246000fd5b60008060a083850312156200039757600080fd5b82359150602084603f850112620003ad57600080fd5b6040516080810181811067ffffffffffffffff82111715620003d357620003d36200036d565b6040528060a0860187811115620003e957600080fd5b8387015b81811015620004065780358352918401918401620003ed565b50505080925050509250929050565b818103818111156200020f57634e487b7160e01b600052601160045260246000fd5b60808181019083833792915050565b60005b838110156200046357818101518382015260200162000449565b50506000910152565b60018060a01b038316815260406020820152600082518060408401526200049b81606085016020870162000446565b601f01601f1916919091016060019392505050565b60808101818360005b6004811015620004da578151835260209283019290910190600101620004b9565b50505092915050565b60008351620004f781846020880162000446565b8351908301906200050d81836020880162000446565b0194935050505056fe608060405260405161072738038061072783398101604081905261002291610319565b61002e82826000610035565b5050610436565b61003e8361006b565b60008251118061004b5750805b156100665761006483836100ab60201b6100291760201c565b505b505050565b610074816100d7565b6040516001600160a01b038216907fbc7cd75a20ee27fd9adebab32041f755214dbc6bffa90cc0225b39da2e5c2d3b90600090a250565b60606100d08383604051806060016040528060278152602001610700602791396101a9565b9392505050565b6100ea8161022260201b6100551760201c565b6101515760405162461bcd60e51b815260206004820152602d60248201527f455243313936373a206e657720696d706c656d656e746174696f6e206973206e60448201526c1bdd08184818dbdb9d1c9858dd609a1b60648201526084015b60405180910390fd5b806101887f360894a13ba1a3210667c828492db98dca3e2076cc3735a920a3ca505d382bbc60001b61023160201b6100641760201c565b80546001600160a01b0319166001600160a01b039290921691909117905550565b6060600080856001600160a01b0316856040516101c691906103e7565b600060405180830381855af49150503d8060008114610201576040519150601f19603f3d011682016040523d82523d6000602084013e610206565b606091505b50909250905061021886838387610234565b9695505050505050565b6001600160a01b03163b151590565b90565b606083156102a357825160000361029c576001600160a01b0385163b61029c5760405162461bcd60e51b815260206004820152601d60248201527f416464726573733a2063616c6c20746f206e6f6e2d636f6e74726163740000006044820152606401610148565b50816102ad565b6102ad83836102b5565b949350505050565b8151156102c55781518083602001fd5b8060405162461bcd60e51b81526004016101489190610403565b634e487b7160e01b600052604160045260246000fd5b60005b838110156103105781810151838201526020016102f8565b50506000910152565b6000806040838503121561032c57600080fd5b82516001600160a01b038116811461034357600080fd5b60208401519092506001600160401b038082111561036057600080fd5b818501915085601f83011261037457600080fd5b815181811115610386576103866102df565b604051601f8201601f19908116603f011681019083821181831017156103ae576103ae6102df565b816040528281528860208487010111156103c757600080fd5b6103d88360208301602088016102f5565b80955050505050509250929050565b600082516103f98184602087016102f5565b9190910192915050565b60208152600082518060208401526104228160408501602087016102f5565b601f01601f19169190910160400192915050565b6102bb806104456000396000f3fe60806040523661001357610011610017565b005b6100115b610027610022610067565b61009f565b565b606061004e838360405180606001604052806027815260200161025f602791396100c3565b9392505050565b6001600160a01b03163b151590565b90565b600061009a7f360894a13ba1a3210667c828492db98dca3e2076cc3735a920a3ca505d382bbc546001600160a01b031690565b905090565b3660008037600080366000845af43d6000803e8080156100be573d6000f35b3d6000fd5b6060600080856001600160a01b0316856040516100e0919061020f565b600060405180830381855af49150503d806000811461011b576040519150601f19603f3d011682016040523d82523d6000602084013e610120565b606091505b50915091506101318683838761013b565b9695505050505050565b606083156101af5782516000036101a8576001600160a01b0385163b6101a85760405162461bcd60e51b815260206004820152601d60248201527f416464726573733a2063616c6c20746f206e6f6e2d636f6e747261637400000060448201526064015b60405180910390fd5b50816101b9565b6101b983836101c1565b949350505050565b8151156101d15781518083602001fd5b8060405162461bcd60e51b815260040161019f919061022b565b60005b838110156102065781810151838201526020016101ee565b50506000910152565b600082516102218184602087016101eb565b9190910192915050565b602081526000825180602084015261024a8160408501602087016101eb565b601f01601f1916919091016040019291505056fe416464726573733a206c6f772d6c6576656c2064656c65676174652063616c6c206661696c6564a26469706673582212203d912d0abbe116b83dfa1d3a82e612e3256de4ef536ea1a35d0e77601b02b17764736f6c63430008110033416464726573733a206c6f772d6c6576656c2064656c65676174652063616c6c206661696c6564a2646970667358221220bdfdf0f8ff9d33907facafe5c4372a0b2ec5cfdc7b28ed8dcd1bfc153d22083064736f6c6343000811003360e0604052306080523480156200001557600080fd5b5060405162001f5338038062001f5383398101604081905262000038916200013e565b6001600160a01b03821660a052816200005062000064565b506001600160a01b031660c052506200017d565b600054610100900460ff1615620000d15760405162461bcd60e51b815260206004820152602760248201527f496e697469616c697a61626c653a20636f6e747261637420697320696e697469604482015266616c697a696e6760c81b606482015260840160405180910390fd5b60005460ff9081161462000123576000805460ff191660ff9081179091556040519081527f7f26b83ff96e1f2b6a682f133852f6798a09c465da95921460cefb38474024989060200160405180910390a15b565b6001600160a01b03811681146200013b57600080fd5b50565b600080604083850312156200015257600080fd5b82516200015f8162000125565b6020840151909250620001728162000125565b809150509250929050565b60805160a05160c051611d52620002016000396000818161023701526110a6015260008181610344015281816106da0152818161075b015281816109d401528181610b3701528181610c3801528181610f53015261115e0152600081816105e001528181610620015281816107ec0152818161082c01526108bf0152611d526000f3fe6080604052600436106101385760003560e01c806352d1902d116100ab578063c399ec881161006f578063c399ec88146103b7578063c4d66de8146103cc578063d087d288146103ec578063e02afbae14610401578063ee472f3614610423578063f23a6e611461044357600080fd5b806352d1902d146102fa5780638da5cb5b1461030f578063b0d691fe14610335578063b61d27f614610368578063bc197c811461038857600080fd5b8063245a7bfc116100fd578063245a7bfc146102255780633659cfe6146102715780633a871cdd146102915780634a58db19146102bf5780634d44560d146102c75780634f1ef286146102e757600080fd5b806223de291461014457806301ffc9a71461016b578063150b7a02146101a057806318dfb3c7146101e557806318fc5c441461020557600080fd5b3661013f57005b600080fd5b34801561015057600080fd5b5061016961015f3660046114b9565b5050505050505050565b005b34801561017757600080fd5b5061018b610186366004611569565b610470565b60405190151581526020015b60405180910390f35b3480156101ac57600080fd5b506101cc6101bb366004611593565b630a85bd0160e11b95945050505050565b6040516001600160e01b03199091168152602001610197565b3480156101f157600080fd5b50610169610200366004611649565b6104c2565b34801561021157600080fd5b506101696102203660046116fa565b6105c2565b34801561023157600080fd5b506102597f000000000000000000000000000000000000000000000000000000000000000081565b6040516001600160a01b039091168152602001610197565b34801561027d57600080fd5b5061016961028c366004611777565b6105d6565b34801561029d57600080fd5b506102b16102ac366004611794565b6106b2565b604051908152602001610197565b6101696106d8565b3480156102d357600080fd5b506101696102e23660046117e7565b610751565b6101696102f5366004611813565b6107e2565b34801561030657600080fd5b506102b16108b2565b34801561031b57600080fd5b50600054610259906201000090046001600160a01b031681565b34801561034157600080fd5b507f0000000000000000000000000000000000000000000000000000000000000000610259565b34801561037457600080fd5b506101696103833660046118ba565b610965565b34801561039457600080fd5b506101cc6103a3366004611909565b63bc197c8160e01b98975050505050505050565b3480156103c357600080fd5b506102b16109b4565b3480156103d857600080fd5b506101696103e7366004611777565b610a45565b3480156103f857600080fd5b506102b1610b10565b34801561040d57600080fd5b50610416610b66565b60405161019791906119c9565b34801561042f57600080fd5b5061016961043e3660046116fa565b610ba1565b34801561044f57600080fd5b506101cc61045e3660046119d7565b63f23a6e6160e01b9695505050505050565b60006001600160e01b03198216630a85bd0160e11b14806104a157506001600160e01b03198216630271189760e51b145b806104bc57506001600160e01b031982166301ffc9a760e01b145b92915050565b6104ca610c2d565b8281146105145760405162461bcd60e51b815260206004820152601360248201527277726f6e67206172726179206c656e6774687360681b60448201526064015b60405180910390fd5b60005b838110156105bb576105a985858381811061053457610534611a52565b90506020020160208101906105499190611777565b600085858581811061055d5761055d611a52565b905060200281019061056f9190611a68565b8080601f016020809104026020016040519081016040528093929190818152602001838380828437600092019190915250610cc292505050565b806105b381611ac4565b915050610517565b5050505050565b6105ca610d32565b6105d381610d89565b50565b6001600160a01b037f000000000000000000000000000000000000000000000000000000000000000016300361061e5760405162461bcd60e51b815260040161050b90611add565b7f00000000000000000000000000000000000000000000000000000000000000006001600160a01b0316610667600080516020611cd6833981519152546001600160a01b031690565b6001600160a01b03161461068d5760405162461bcd60e51b815260040161050b90611b29565b61069681610dd0565b604080516000808252602082019092526105d391839190610dd8565b60006106bc610f48565b6106c68484610fc0565b90506106d1826110de565b9392505050565b7f000000000000000000000000000000000000000000000000000000000000000060405163b760faf960e01b81523060048201526001600160a01b03919091169063b760faf99034906024016000604051808303818588803b15801561073d57600080fd5b505af11580156105bb573d6000803e3d6000fd5b610759610d32565b7f000000000000000000000000000000000000000000000000000000000000000060405163040b850f60e31b81526001600160a01b03848116600483015260248201849052919091169063205c287890604401600060405180830381600087803b1580156107c657600080fd5b505af11580156107da573d6000803e3d6000fd5b505050505050565b6001600160a01b037f000000000000000000000000000000000000000000000000000000000000000016300361082a5760405162461bcd60e51b815260040161050b90611add565b7f00000000000000000000000000000000000000000000000000000000000000006001600160a01b0316610873600080516020611cd6833981519152546001600160a01b031690565b6001600160a01b0316146108995760405162461bcd60e51b815260040161050b90611b29565b6108a282610dd0565b6108ae82826001610dd8565b5050565b6000306001600160a01b037f000000000000000000000000000000000000000000000000000000000000000016146109525760405162461bcd60e51b815260206004820152603860248201527f555550535570677261646561626c653a206d757374206e6f742062652063616c60448201527f6c6564207468726f7567682064656c656761746563616c6c0000000000000000606482015260840161050b565b50600080516020611cd683398151915290565b61096d610c2d565b6109ae848484848080601f016020809104026020016040519081016040528093929190818152602001838380828437600092019190915250610cc292505050565b50505050565b6040516370a0823160e01b81523060048201526000906001600160a01b037f000000000000000000000000000000000000000000000000000000000000000016906370a08231906024015b602060405180830381865afa158015610a1c573d6000803e3d6000fd5b505050506040513d601f19601f82011682018060405250810190610a409190611b75565b905090565b600054610100900460ff1615808015610a655750600054600160ff909116105b80610a7f5750303b158015610a7f575060005460ff166001145b610a9b5760405162461bcd60e51b815260040161050b90611b8e565b6000805460ff191660011790558015610abe576000805461ff0019166101001790555b610ac78261112b565b80156108ae576000805461ff0019169055604051600181527f7f26b83ff96e1f2b6a682f133852f6798a09c465da95921460cefb38474024989060200160405180910390a15050565b604051631aab3f0d60e11b8152306004820152600060248201819052906001600160a01b037f000000000000000000000000000000000000000000000000000000000000000016906335567e1a906044016109ff565b610b6e6113eb565b6040805160808101918290529060019060049082845b815481526020019060010190808311610b84575050505050905090565b600054610100900460ff1615808015610bc15750600054600160ff909116105b80610bdb5750303b158015610bdb575060005460ff166001145b610bf75760405162461bcd60e51b815260040161050b90611b8e565b6000805460ff191660011790558015610c1a576000805461ff0019166101001790555b610c24600061112b565b610ac782610d89565b336001600160a01b037f0000000000000000000000000000000000000000000000000000000000000000161480610c7457506000546201000090046001600160a01b031633145b610cc05760405162461bcd60e51b815260206004820181905260248201527f6163636f756e743a206e6f74204f776e6572206f7220456e747279506f696e74604482015260640161050b565b565b600080846001600160a01b03168484604051610cde9190611c00565b60006040518083038185875af1925050503d8060008114610d1b576040519150601f19603f3d011682016040523d82523d6000602084013e610d20565b606091505b5091509150816105bb57805160208201fd5b6000546201000090046001600160a01b0316331480610d5057503330145b610cc05760405162461bcd60e51b815260206004820152600a60248201526937b7363c9037bbb732b960b11b604482015260640161050b565b7f42e4c4ce1432650f17e41c4ea77ed12c0ab20b229d3ffd84a2ebc9f8abb25a83600182604051610dbb929190611c1c565b60405180910390a16108ae6001826004611409565b6105d3610d32565b7f4910fdfa16fed3260ed0e7147f7cc6da11a60208b5b9406d12a635614ffd91435460ff1615610e1057610e0b836111a7565b505050565b826001600160a01b03166352d1902d6040518163ffffffff1660e01b8152600401602060405180830381865afa925050508015610e6a575060408051601f3d908101601f19168201909252610e6791810190611b75565b60015b610ecd5760405162461bcd60e51b815260206004820152602e60248201527f45524331393637557067726164653a206e657720696d706c656d656e7461746960448201526d6f6e206973206e6f74205555505360901b606482015260840161050b565b600080516020611cd68339815191528114610f3c5760405162461bcd60e51b815260206004820152602960248201527f45524331393637557067726164653a20756e737570706f727465642070726f786044820152681a58589b195555525160ba1b606482015260840161050b565b50610e0b838383611243565b336001600160a01b037f00000000000000000000000000000000000000000000000000000000000000001614610cc05760405162461bcd60e51b815260206004820152601c60248201527f6163636f756e743a206e6f742066726f6d20456e747279506f696e7400000000604482015260640161050b565b6000610fcf6040840184611a68565b159050611092576000610fe0610b66565b604051602001610ff091906119c9565b604051602081830303815290604052805190602001209050808480604001906110199190611a68565b60806110286040890189611a68565b611033929150611c55565b61103e928290611c68565b60405161104c929190611c92565b6040518091039020146110905760405162461bcd60e51b815260206004820152600c60248201526b77726f6e67207075626b657960a01b604482015260640161050b565b505b604080516060810182526001600160a01b037f00000000000000000000000000000000000000000000000000000000000000001680825260006020830181905291909201529392505050565b80156105d357604051600090339060001990849084818181858888f193505050503d80600081146105bb576040519150601f19603f3d011682016040523d82523d6000602084013e6105bb565b6000805462010000600160b01b031916620100006001600160a01b038481168202929092178084556040519190048216927f0000000000000000000000000000000000000000000000000000000000000000909216917f47e55c76e7a6f1fd8996a1da8008c1ea29699cca35e7bcd057f2dec313b6e5de91a350565b6001600160a01b0381163b6112145760405162461bcd60e51b815260206004820152602d60248201527f455243313936373a206e657720696d706c656d656e746174696f6e206973206e60448201526c1bdd08184818dbdb9d1c9858dd609a1b606482015260840161050b565b600080516020611cd683398151915280546001600160a01b0319166001600160a01b0392909216919091179055565b61124c83611268565b6000825111806112595750805b15610e0b576109ae83836112a8565b611271816111a7565b6040516001600160a01b038216907fbc7cd75a20ee27fd9adebab32041f755214dbc6bffa90cc0225b39da2e5c2d3b90600090a250565b60606106d18383604051806060016040528060278152602001611cf6602791396060600080856001600160a01b0316856040516112e59190611c00565b600060405180830381855af49150503d8060008114611320576040519150601f19603f3d011682016040523d82523d6000602084013e611325565b606091505b509150915061133686838387611340565b9695505050505050565b606083156113af5782516000036113a8576001600160a01b0385163b6113a85760405162461bcd60e51b815260206004820152601d60248201527f416464726573733a2063616c6c20746f206e6f6e2d636f6e7472616374000000604482015260640161050b565b50816113b9565b6113b983836113c1565b949350505050565b8151156113d15781518083602001fd5b8060405162461bcd60e51b815260040161050b9190611ca2565b60405180608001604052806004906020820280368337509192915050565b8260048101928215611437579160200282015b8281111561143757825182559160200191906001019061141c565b50611443929150611447565b5090565b5b808211156114435760008155600101611448565b6001600160a01b03811681146105d357600080fd5b60008083601f84011261148357600080fd5b5081356001600160401b0381111561149a57600080fd5b6020830191508360208285010111156114b257600080fd5b9250929050565b60008060008060008060008060c0898b0312156114d557600080fd5b88356114e08161145c565b975060208901356114f08161145c565b965060408901356115008161145c565b95506060890135945060808901356001600160401b038082111561152357600080fd5b61152f8c838d01611471565b909650945060a08b013591508082111561154857600080fd5b506115558b828c01611471565b999c989b5096995094979396929594505050565b60006020828403121561157b57600080fd5b81356001600160e01b0319811681146106d157600080fd5b6000806000806000608086880312156115ab57600080fd5b85356115b68161145c565b945060208601356115c68161145c565b93506040860135925060608601356001600160401b038111156115e857600080fd5b6115f488828901611471565b969995985093965092949392505050565b60008083601f84011261161757600080fd5b5081356001600160401b0381111561162e57600080fd5b6020830191508360208260051b85010111156114b257600080fd5b6000806000806040858703121561165f57600080fd5b84356001600160401b038082111561167657600080fd5b61168288838901611605565b9096509450602087013591508082111561169b57600080fd5b506116a887828801611605565b95989497509550505050565b634e487b7160e01b600052604160045260246000fd5b604051601f8201601f191681016001600160401b03811182821017156116f2576116f26116b4565b604052919050565b60006080828403121561170c57600080fd5b82601f83011261171b57600080fd5b604051608081018181106001600160401b038211171561173d5761173d6116b4565b60405280608084018581111561175257600080fd5b845b8181101561176c578035835260209283019201611754565b509195945050505050565b60006020828403121561178957600080fd5b81356106d18161145c565b6000806000606084860312156117a957600080fd5b83356001600160401b038111156117bf57600080fd5b840161016081870312156117d257600080fd5b95602085013595506040909401359392505050565b600080604083850312156117fa57600080fd5b82356118058161145c565b946020939093013593505050565b6000806040838503121561182657600080fd5b82356118318161145c565b91506020838101356001600160401b038082111561184e57600080fd5b818601915086601f83011261186257600080fd5b813581811115611874576118746116b4565b611886601f8201601f191685016116ca565b9150808252878482850101111561189c57600080fd5b80848401858401376000848284010152508093505050509250929050565b600080600080606085870312156118d057600080fd5b84356118db8161145c565b93506020850135925060408501356001600160401b038111156118fd57600080fd5b6116a887828801611471565b60008060008060008060008060a0898b03121561192557600080fd5b88356119308161145c565b975060208901356119408161145c565b965060408901356001600160401b038082111561195c57600080fd5b6119688c838d01611605565b909850965060608b013591508082111561198157600080fd5b61198d8c838d01611605565b909650945060808b013591508082111561154857600080fd5b8060005b60048110156109ae5781518452602093840193909101906001016119aa565b608081016104bc82846119a6565b60008060008060008060a087890312156119f057600080fd5b86356119fb8161145c565b95506020870135611a0b8161145c565b9450604087013593506060870135925060808701356001600160401b03811115611a3457600080fd5b611a4089828a01611471565b979a9699509497509295939492505050565b634e487b7160e01b600052603260045260246000fd5b6000808335601e19843603018112611a7f57600080fd5b8301803591506001600160401b03821115611a9957600080fd5b6020019150368190038213156114b257600080fd5b634e487b7160e01b600052601160045260246000fd5b600060018201611ad657611ad6611aae565b5060010190565b6020808252602c908201527f46756e6374696f6e206d7573742062652063616c6c6564207468726f7567682060408201526b19195b1959d85d1958d85b1b60a21b606082015260800190565b6020808252602c908201527f46756e6374696f6e206d7573742062652063616c6c6564207468726f7567682060408201526b6163746976652070726f787960a01b606082015260800190565b600060208284031215611b8757600080fd5b5051919050565b6020808252602e908201527f496e697469616c697a61626c653a20636f6e747261637420697320616c72656160408201526d191e481a5b9a5d1a585b1a5e995960921b606082015260800190565b60005b83811015611bf7578181015183820152602001611bdf565b50506000910152565b60008251611c12818460208701611bdc565b9190910192915050565b6101008101818460005b6004811015611c45578154835260209092019160019182019101611c26565b5050506106d160808301846119a6565b818103818111156104bc576104bc611aae565b60008085851115611c7857600080fd5b83861115611c8557600080fd5b5050820193919092039150565b8183823760009101908152919050565b6020815260008251806020840152611cc1816040850160208701611bdc565b601f01601f1916919091016040019291505056fe360894a13ba1a3210667c828492db98dca3e2076cc3735a920a3ca505d382bbc416464726573733a206c6f772d6c6576656c2064656c65676174652063616c6c206661696c6564a2646970667358221220d313e7b96387a1f353ef03d2d99fd06144006367fa72f4e227748ec87669e0b564736f6c63430008110033",
  "linkReferences": {},
  "deployedLinkReferences": {}
}