{
  "_format": "hh-sol-artifact-1",
  "contractName": "BLSOpen",
  "sourceName": "contracts/samples/bls/lib/BLSOpen.sol",
  "abi": [
    {
      "inputs": [
        {
          "internalType": "bytes32",
          "name": "domain",
          "type": "bytes32"
        },
        {
          "internalType": "bytes",
          "name": "message",
          "type": "bytes"
        }
      ],
      "name": "hashToPoint",
      "outputs": [
        {
          "internalType": "uint256[2]",
          "name": "",
          "type": "uint256[2]"
        }
      ],
      "stateMutability": "view",
      "type": "function"
    },
    {
      "inputs": [
        {
          "internalType": "uint256[4]",
          "name": "blsKey",
          "type": "uint256[4]"
        }
      ],
      "name": "isZeroBLSKey",
      "outputs": [
        {
          "internalType": "bool",
          "name": "",
          "type": "bool"
        }
      ],
      "stateMutability": "pure",
      "type": "function"
    },
    {
      "inputs": [
        {
          "internalType": "uint256[2]",
          "name": "signature",
          "type": "uint256[2]"
        },
        {
          "internalType": "uint256[4][]",
          "name": "pubkeys",
          "type": "uint256[4][]"
        },
        {
          "internalType": "uint256[2][]",
          "name": "messages",
          "type": "uint256[2][]"
        }
      ],
      "name": "verifyMultiple",
      "outputs": [
        {
          "internalType": "bool",
          "name": "",
          "type": "bool"
        }
      ],
      "stateMutability": "view",
      "type": "function"
    },
    {
      "inputs": [
        {
          "internalType": "uint256[2]",
          "name": "signature",
          "type": "uint256[2]"
        },
        {
          "internalType": "uint256[4]",
          "name": "pubkey",
          "type": "uint256[4]"
        },
        {
          "internalType": "uint256[2]",
          "name": "message",
          "type": "uint256[2]"
        }
      ],
      "name": "verifySingle",
      "outputs": [
        {
          "internalType": "bool",
          "name": "",
          "type": "bool"
        }
      ],
      "stateMutability": "view",
      "type": "function"
    }
  ],
  "bytecode": "0x61234d61003a600b82828239805160001a60731461002d57634e487b7160e01b600052600060045260246000fd5b30600052607381538281f3fe73000000000000000000000000000000000000000030146080604052600436106100565760003560e01c8063914137631461005b578063a850a90914610083578063c2ad5b98146100a3578063ebbdac91146100b6575b600080fd5b61006e61006936600461200d565b6100c9565b60405190151581526020015b60405180910390f35b6100966100913660046120e4565b6100f1565b60405161007a9190612183565b61006e6100b13660046121b4565b61010c565b61006e6100c43660046121d0565b610157565b60008060006100d9868686610229565b915091508080156100e75750815b9695505050505050565b6100f9611e1b565b6101038383610767565b90505b92915050565b60006001815b81801561011f5750600481105b156101505783816004811061013657610136612217565b60200201511591508061014881612243565b915050610112565b5092915050565b604080516001808252818301909252600091829190816020015b610179611e39565b81526020019060019003908161017157505060408051600180825281830190925291925060009190602082015b6101ae611e1b565b8152602001906001900390816101a657905050905084826000815181106101d7576101d7612217565b602002602001018190525083816000815181106101f6576101f6612217565b602002602001018190525060008061020f888585610229565b9150915080801561021d5750815b98975050505050505050565b815160009081908061028c5760405162461bcd60e51b815260206004820152602160248201527f424c533a206e756d626572206f66207075626c6963206b6579206973207a65726044820152606f60f81b60648201526084015b60405180910390fd5b835181146102fa5760405162461bcd60e51b815260206004820152603560248201527f424c533a206e756d626572206f66207075626c6963206b65797320616e64206d604482015274195cdcd859d95cc81b5d5cdd08189948195c5d585b605a1b6064820152608401610283565b600061030782600161225c565b61031290600661226f565b905060008167ffffffffffffffff81111561032f5761032f611e75565b604051908082528060200260200182016040528015610358578160200160208202803683370190505b50905087600060200201518160008151811061037657610376612217565b602090810291909101015287600160200201518160018151811061039c5761039c612217565b6020026020010181815250507f198e9393920d483a7260bfb731fb5d25f1aa493335a9e71297e485b7aef312c2816002815181106103dc576103dc612217565b6020026020010181815250507f1800deef121f1e76426a00665e5c4479674322d4f75edadd46debd5cd992f6ed8160038151811061041c5761041c612217565b6020026020010181815250507f275dc4a288d1afb3cbb1ac09187524c7db36395df7be3b99e673b13a075a65ec8160048151811061045c5761045c612217565b6020026020010181815250507f1d9befcd05a5323e6da4d435f3b617cdb3af83285c2df711ef39c01571827f9d8160058151811061049c5761049c612217565b60200260200101818152505060005b8381101561071c578681815181106104c5576104c5612217565b60200260200101516000600281106104df576104df612217565b6020020151826104f083600661226f565b6104fb90600661225c565b8151811061050b5761050b612217565b60200260200101818152505086818151811061052957610529612217565b602002602001015160016002811061054357610543612217565b60200201518261055483600661226f565b61055f90600761225c565b8151811061056f5761056f612217565b60200260200101818152505087818151811061058d5761058d612217565b60200260200101516001600481106105a7576105a7612217565b6020020151826105b883600661226f565b6105c390600861225c565b815181106105d3576105d3612217565b6020026020010181815250508781815181106105f1576105f1612217565b602002602001015160006004811061060b5761060b612217565b60200201518261061c83600661226f565b61062790600961225c565b8151811061063757610637612217565b60200260200101818152505087818151811061065557610655612217565b602002602001015160036004811061066f5761066f612217565b60200201518261068083600661226f565b61068b90600a61225c565b8151811061069b5761069b612217565b6020026020010181815250508781815181106106b9576106b9612217565b60200260200101516002600481106106d3576106d3612217565b6020020151826106e483600661226f565b6106ef90600b61225c565b815181106106ff576106ff612217565b60209081029190910101528061071481612243565b9150506104ab565b50610725611e57565b60005a90506020826020860260208601600885fa9550856107515760008096509650505050505061075f565b505115159450600193505050505b935093915050565b61076f611e1b565b600061077b848461083d565b9050600061078f82825b60200201516108f8565b9050600061079e836001610785565b90506107a8611e39565b825181526020808401518282015282516040808401919091529083015160608301526000908460808460066107d05a03fa905080806107e357fe5b50806108315760405162461bcd60e51b815260206004820152601760248201527f424c533a20626e206164642063616c6c206661696c65640000000000000000006044820152606401610283565b50919695505050505050565b610845611e1b565b60006108518484610cce565b9050600080600080601885016001600160c01b0381511693506030860190506001600160c01b0381511694506000805160206122f8833981519152856000805160206122f8833981519152600160c01b870908604887015160608801516001600160c01b03908116975016945092506000805160206122f883398151915290508481600160c01b860908604080518082019091529283526020830152509695505050505050565b610900611e1b565b6000805160206122f883398151915282106109695760405162461bcd60e51b815260206004820152602360248201527f6d6170546f506f696e7446543a20696e76616c6964206669656c6420656c656d604482015262195b9d60ea1b6064820152608401610283565b81600061097582610f6b565b91505060006000805160206122f88339815191528061099657610996612286565b83840990506000805160206122f883398151915260048208905060006000805160206122f883398151915277b3c4d79d41a91759a9e4c7e359b6b89eaec68e62effffffd8509905060006000805160206122f883398151915283830990506109fd81610f94565b90506000805160206122f883398151915282830991506000805160206122f883398151915281830991506000805160206122f883398151915282860991506000805160206122f8833981519152610a62836000805160206122f883398151915261229c565b7759e26bcea0d48bacd4f263f1acdb5c4f5763473177fffffe0894506000805160206122f883398151915285860991506000805160206122f883398151915285830991506000805160206122f88339815191526003830891506000610ac683610f6b565b90935090508015610b0e5784610af157610aee836000805160206122f883398151915261229c565b92505b505060408051808201909152938452602084015250909392505050565b6000805160206122f883398151915260018708610b39906000805160206122f883398151915261229c565b95506000805160206122f883398151915286870992506000805160206122f883398151915286840992506000805160206122f8833981519152600384089250610b8183610f6b565b90935090508015610ba95784610af157610aee836000805160206122f883398151915261229c565b6000805160206122f883398151915284850995506000805160206122f883398151915286870995506000805160206122f883398151915282870995506000805160206122f883398151915282870995506000805160206122f88339815191526001870895506000805160206122f883398151915286870992506000805160206122f883398151915286840992506000805160206122f8833981519152600384089250610c5483610f6b565b909350905080610cb15760405162461bcd60e51b815260206004820152602260248201527f424c533a20626164206674206d617070696e6720696d706c656d656e7461746960448201526137b760f11b6064820152608401610283565b84610af157610aee836000805160206122f883398151915261229c565b80516060906000610ce082602061225c565b610ceb90604061225c565b610cf690600461225c565b67ffffffffffffffff811115610d0e57610d0e611e75565b6040519080825280601f01601f191660200182016040528015610d38576020820181803683370190505b5060408051606080825260808201909252919250600091906020820181803683370190505090506060820160005b84811015610d805760208188018101518383015201610d66565b5083016000815360010160608153600101600081536001810187905260210160208153506000600283604051610db691906122af565b602060405180830381855afa158015610dd3573d6000803e3d6000fd5b5050506040513d601f19601f82011682018060405250810190610df691906122de565b9050600060429450848452816020850152600160408501536041840188905260206061850153600284604051610e2c91906122af565b602060405180830381855afa158015610e49573d6000803e3d6000fd5b5050506040513d601f19601f82011682018060405250810190610e6c91906122de565b905080602084015280821880602086015250600260408501536041840188905260206061850153600284604051610ea391906122af565b602060405180830381855afa158015610ec0573d6000803e3d6000fd5b5050506040513d601f19601f82011682018060405250810190610ee391906122de565b905080604084015280821880602086015250600360408501536041840188905260206061850153600284604051610f1a91906122af565b602060405180830381855afa158015610f37573d6000803e3d6000fd5b5050506040513d601f19601f82011682018060405250810190610f5a91906122de565b606084015250909695505050505050565b600080610f7783610f9f565b9150826000805160206122f8833981519152838409149050915091565b6000610106826116d4565b60006000805160206122f88339815191528083840991508083830981838209828283098385830984848309858484098684850997508684840987858409945087898a09985087898a09985087898a09985087898a09985087898a09985087878a09985087898a09985087898a09985087898a099850878a8a09985087898a09985087898a09985087898a09985087898a099850878a8a09985087898a09985087898a09985087898a09985087898a09985087898a09985087848a09985087898a09985087898a09985087898a09985087898a09985087898a09985087848a09985087898a09985087898a09985087898a099850878a8a09985087898a09985087898a09985087898a09985087898a09985087848a09985087898a09985087898a09985087898a09985087898a09985087898a099850878a8a09985087898a09985087898a09985087898a09985087898a09985087878a09985087898a09985087898a09985087898a09985087898a09985087898a09985087898a09985087898a09985087818a09985087898a09985087898a09985087898a09985087898a09985087898a09985087898a09985087898a09985087898a09985087898a09985087898a09985087868a09985087898a09985087898a09985087898a09985087898a09985087878a09985087898a09985087898a09985087898a09985087898a09985087848a09985087898a09985087898a09985087898a09985087898a09985087898a09985087898a09985087898a09985087868a09985087898a09985087898a09985087898a09985087898a09985087898a09985087898a099850878a8a09985087898a09985087898a09985087898a09985087898a09985087898a09985087898a09985087898a09985087828a09985087898a09985087898a09985087898a09985087898a09985087898a09985087818a09985087898a09985087898a09985087898a09985087868a09985087898a09985087898a09985087898a09985087898a09985087898a09985087898a09985087898a09985087898a09985087878a09985087898a09985087898a09985087898a09985087898a09985087898a09985087898a09985087898a09985087898a09985087898a09985087868a09985087898a09985087898a09985087898a09985087878a09985087898a09985087898a09985087898a09985087898a09985087898a09985087898a09985087898a09985087898a09985087828a09985087898a09985087898a09985087898a09985087898a09985087828a09985087898a09985087898a09985087898a09985087898a09985087898a09985087868a09985087898a09985087898a09985087898a09985087848a09985087898a09985087898a09985087898a09985087898a09985087898a09985087898a09985087898a09985087898a09985087898a09985087898a09985087828a09985087898a09985087898a09985087898a09985087898a09985087868a09985087898a09985087898a09985087898a09985087898a09985087898a09985087838a09985087898a09985087898a09985087898a09985087898a09985087898a09985087898a09985087898a09985087828a09985087898a09985087898a099850878a8a09985087898a09985087898a09985087898a09985087898a09985087898a09985087898a09985087898a09985087848a09985087898a09985087898a09985087898a09985087898a09985087898a09985087898a09985087848a09985087898a09985087898a09985087898a09985087898a09985087898a09985087868a09985087898a09985087898a099850878a8a09985087898a09985087898a09985087898a09985087898a09985087898a09985087898a09985087898a09985087818a09985050868889099750868889099750868889099750868889099750868889099750868889099750868489099750868889099750868889099750868889099750868889099750868889099750868989099750868889099750868889099750868889099750868889099750868889099750868889099750868989099750868889099750868889099750868889099750868889099750868889099750868689099750868889099750868889099750868889099750868889099750868889099750868889099750868889099750868889099750868889099750868189099750508587880996508587880996508587880996508585880996508587880996508587880996508587880996508585880996508587880996508587880996508587880996508587880996508587880996508587880996508587880996508587880996508583880996508587880996508587880996508587880996508587880996508581880996508587880996508587880996508587880996508587880996508583880996508587880996508587880996508587880996508584880996508587880996508587880996508587880996508587880996508587880996508581880996505050505050808283099392505050565b60006000805160206122f88339815191528083840991508083830981838209828283098385830984848309858484098684850997508684840987858409945087898a09985087898a09985087898a09985087898a09985087898a09985087878a09985087898a09985087898a09985087898a099850878a8a09985087898a09985087898a09985087898a09985087898a099850878a8a09985087898a09985087898a09985087898a09985087898a09985087898a09985087848a09985087898a09985087898a09985087898a09985087898a09985087898a09985087848a09985087898a09985087898a09985087898a099850878a8a09985087898a09985087898a09985087898a09985087898a09985087848a09985087898a09985087898a09985087898a09985087898a09985087898a099850878a8a09985087898a09985087898a09985087898a09985087898a09985087878a09985087898a09985087898a09985087898a09985087898a09985087898a09985087898a09985087898a09985087818a09985087898a09985087898a09985087898a09985087898a09985087898a09985087898a09985087898a09985087898a09985087898a09985087898a09985087868a09985087898a09985087898a09985087898a09985087898a09985087878a09985087898a09985087898a09985087898a09985087898a09985087848a09985087898a09985087898a09985087898a09985087898a09985087898a09985087898a09985087898a09985087868a09985087898a09985087898a09985087898a09985087898a09985087898a09985087898a099850878a8a09985087898a09985087898a09985087898a09985087898a09985087898a09985087898a09985087898a09985087828a09985087898a09985087898a09985087898a09985087898a09985087898a09985087818a09985087898a09985087898a09985087898a09985087868a09985087898a09985087898a09985087898a09985087898a09985087898a09985087898a09985087898a09985087898a09985087878a09985087898a09985087898a09985087898a09985087898a09985087898a09985087898a09985087898a09985087898a09985087898a09985087868a09985087898a09985087898a09985087898a09985087878a09985087898a09985087898a09985087898a09985087898a09985087898a09985087898a09985087898a09985087898a09985087828a09985087898a09985087898a09985087898a09985087898a09985087828a09985087898a09985087898a09985087898a09985087898a09985087898a09985087868a09985087898a09985087898a09985087898a09985087848a09985087898a09985087898a09985087898a09985087898a09985087898a09985087898a09985087898a09985087898a09985087898a09985087898a09985087828a09985087898a09985087898a09985087898a09985087898a09985087868a09985087898a09985087898a09985087898a09985087898a09985087898a09985087838a09985087898a09985087898a09985087898a09985087898a09985087898a09985087898a09985087898a09985087828a09985087898a09985087898a099850878a8a09985087898a09985087898a09985087898a09985087898a09985087898a09985087898a09985087898a09985087848a09985087898a09985087898a09985087898a09985087898a09985087898a09985087898a09985087848a09985087898a09985087898a09985087898a09985087898a09985087898a09985087868a09985087898a09985087898a099850878a8a09985087898a09985087898a09985087898a09985087898a09985087898a09985087898a09985087898a09985087818a09985050868889099750868889099750868889099750868889099750868889099750868889099750868489099750868889099750868889099750868889099750868889099750868889099750868989099750868889099750868889099750868889099750868889099750868889099750868889099750868989099750868889099750868889099750868889099750868889099750868889099750868689099750868889099750868889099750868889099750868889099750868889099750868889099750868889099750868889099750868889099750868189099750508587880996508587880996508587880996508585880996508587880996508587880996508587880996508585880996508587880996508587880996508587880996508587880996508587880996508587880996508587880996508587880996508583880996508587880996508587880996508587880996508587880996508581880996505050838586099450838586099450838586099450838586099450838186099450508284850993508284850993508284850993508281850993508284850993508284850993508285850993508284850993508284850993508284850993508284850993508284850993508284850993508281850995945050505050565b60405180604001604052806002906020820280368337509192915050565b60405180608001604052806004906020820280368337509192915050565b60405180602001604052806001906020820280368337509192915050565b634e487b7160e01b600052604160045260246000fd5b604051601f8201601f1916810167ffffffffffffffff81118282101715611eb457611eb4611e75565b604052919050565b600082601f830112611ecd57600080fd5b6040516040810181811067ffffffffffffffff82111715611ef057611ef0611e75565b8060405250806040840185811115611f0757600080fd5b845b81811015611f21578035835260209283019201611f09565b509195945050505050565b600067ffffffffffffffff821115611f4657611f46611e75565b5060051b60200190565b600082601f830112611f6157600080fd5b6040516080810181811067ffffffffffffffff82111715611f8457611f84611e75565b604052806080840185811115611f0757600080fd5b600082601f830112611faa57600080fd5b81356020611fbf611fba83611f2c565b611e8b565b82815260069290921b84018101918181019086841115611fde57600080fd5b8286015b8481101561200257611ff48882611ebc565b835291830191604001611fe2565b509695505050505050565b6000806000608080858703121561202357600080fd5b61202d8686611ebc565b9350604085013567ffffffffffffffff8082111561204a57600080fd5b818701915087601f83011261205e57600080fd5b8135602061206e611fba83611f2c565b82815260079290921b8401810191818101908b84111561208d57600080fd5b948201945b838610156120b3576120a48c87611f50565b82529486019490820190612092565b975050505060608701359250808311156120cc57600080fd5b50506120da86828701611f99565b9150509250925092565b600080604083850312156120f757600080fd5b8235915060208084013567ffffffffffffffff8082111561211757600080fd5b818601915086601f83011261212b57600080fd5b81358181111561213d5761213d611e75565b61214f601f8201601f19168501611e8b565b9150808252878482850101111561216557600080fd5b80848401858401376000848284010152508093505050509250929050565b60408101818360005b60028110156121ab57815183526020928301929091019060010161218c565b50505092915050565b6000608082840312156121c657600080fd5b6101038383611f50565b600080600061010084860312156121e657600080fd5b6121f08585611ebc565b92506121ff8560408601611f50565b915061220e8560c08601611ebc565b90509250925092565b634e487b7160e01b600052603260045260246000fd5b634e487b7160e01b600052601160045260246000fd5b6000600182016122555761225561222d565b5060010190565b808201808211156101065761010661222d565b80820281158282048414176101065761010661222d565b634e487b7160e01b600052601260045260246000fd5b818103818111156101065761010661222d565b6000825160005b818110156122d057602081860181015185830152016122b6565b506000920191825250919050565b6000602082840312156122f057600080fd5b505191905056fe30644e72e131a029b85045b68181585d97816a916871ca8d3c208c16d87cfd47a264697066735822122092c6070e754ef47054b8a2fc43ae82579936d72a7bcfb14a686c17a2d7dfd76e64736f6c63430008110033",
  "linkReferences": {},
  "deployedLinkReferences": {}
}