{
  "_format": "hh-sol-artifact-1",
  "contractName": "StorageAccessible",
  "sourceName": "@gnosis.pm/safe-contracts/contracts/common/StorageAccessible.sol",
  "abi": [
    {
      "inputs": [
        {
          "internalType": "uint256",
          "name": "offset",
          "type": "uint256"
        },
        {
          "internalType": "uint256",
          "name": "length",
          "type": "uint256"
        }
      ],
      "name": "getStorageAt",
      "outputs": [
        {
          "internalType": "bytes",
          "name": "",
          "type": "bytes"
        }
      ],
      "stateMutability": "view",
      "type": "function"
    },
    {
      "inputs": [
        {
          "internalType": "address",
          "name": "targetContract",
          "type": "address"
        },
        {
          "internalType": "bytes",
          "name": "calldataPayload",
          "type": "bytes"
        }
      ],
      "name": "simulateAndRevert",
      "outputs": [],
      "stateMutability": "nonpayable",
      "type": "function"
    }
  ],
  "bytecode": "0x608060405234801561001057600080fd5b506102f6806100206000396000f3fe608060405234801561001057600080fd5b50600436106100365760003560e01c80635624b25b1461003b578063b4faba0914610064575b600080fd5b61004e610049366004610124565b610079565b60405161005b9190610146565b60405180910390f35b6100776100723660046101aa565b610101565b005b60606000610088836020610290565b67ffffffffffffffff8111156100a0576100a0610194565b6040519080825280601f01601f1916602001820160405280156100ca576020820181803683370190505b50905060005b838110156100f75784810154602080830284010152806100ef816102a7565b9150506100d0565b5090505b92915050565b600080825160208401855af480600052503d6020523d600060403e60403d016000fd5b6000806040838503121561013757600080fd5b50508035926020909101359150565b600060208083528351808285015260005b8181101561017357858101830151858201604001528201610157565b506000604082860101526040601f19601f8301168501019250505092915050565b634e487b7160e01b600052604160045260246000fd5b600080604083850312156101bd57600080fd5b82356001600160a01b03811681146101d457600080fd5b9150602083013567ffffffffffffffff808211156101f157600080fd5b818501915085601f83011261020557600080fd5b81358181111561021757610217610194565b604051601f8201601f19908116603f0116810190838211818310171561023f5761023f610194565b8160405282815288602084870101111561025857600080fd5b8260208601602083013760006020848301015280955050505050509250929050565b634e487b7160e01b600052601160045260246000fd5b80820281158282048414176100fb576100fb61027a565b6000600182016102b9576102b961027a565b506001019056fea2646970667358221220402ef00caabc573ab614ee04438e0f6073a3edeb4c1741e6fda803b62fb9aa6164736f6c63430008110033",
  "linkReferences": {},
  "deployedLinkReferences": {}
}