{
  "_format": "hh-sol-artifact-1",
  "contractName": "TestAggregatedAccountFactory",
  "sourceName": "contracts/test/TestAggregatedAccountFactory.sol",
  "abi": [
    {
      "inputs": [
        {
          "internalType": "contract IEntryPoint",
          "name": "anEntryPoint",
          "type": "address"
        },
        {
          "internalType": "address",
          "name": "anAggregator",
          "type": "address"
        }
      ],
      "stateMutability": "nonpayable",
      "type": "constructor"
    },
    {
      "inputs": [],
      "name": "accountImplementation",
      "outputs": [
        {
          "internalType": "contract TestAggregatedAccount",
          "name": "",
          "type": "address"
        }
      ],
      "stateMutability": "view",
      "type": "function"
    },
    {
      "inputs": [
        {
          "internalType": "address",
          "name": "owner",
          "type": "address"
        },
        {
          "internalType": "uint256",
          "name": "salt",
          "type": "uint256"
        }
      ],
      "name": "createAccount",
      "outputs": [
        {
          "internalType": "contract TestAggregatedAccount",
          "name": "ret",
          "type": "address"
        }
      ],
      "stateMutability": "nonpayable",
      "type": "function"
    },
    {
      "inputs": [
        {
          "internalType": "address",
          "name": "owner",
          "type": "address"
        },
        {
          "internalType": "uint256",
          "name": "salt",
          "type": "uint256"
        }
      ],
      "name": "getAddress",
      "outputs": [
        {
          "internalType": "address",
          "name": "",
          "type": "address"
        }
      ],
      "stateMutability": "view",
      "type": "function"
    }
  ],
  "bytecode": "0x60a060405234801561001057600080fd5b506040516126db3803806126db83398101604081905261002f916100aa565b818160405161003d90610085565b6001600160a01b03928316815291166020820152604001604051809103906000f080158015610070573d6000803e3d6000fd5b506001600160a01b0316608052506100e49050565b611b1180610bca83390190565b6001600160a01b03811681146100a757600080fd5b50565b600080604083850312156100bd57600080fd5b82516100c881610092565b60208401519092506100d981610092565b809150509250929050565b608051610abf61010b60003960008181604b0152818160ed01526101ba0152610abf6000f3fe608060405234801561001057600080fd5b50600436106100415760003560e01c806311464fbe146100465780635fbfb9cf146100895780638cb84e181461009c575b600080fd5b61006d7f000000000000000000000000000000000000000000000000000000000000000081565b6040516001600160a01b03909116815260200160405180910390f35b61006d610097366004610295565b6100af565b61006d6100aa366004610295565b61017b565b6000806100bc848461017b565b90506001600160a01b0381163b80156100d757509050610175565b6040516001600160a01b038616602482015284907f00000000000000000000000000000000000000000000000000000000000000009060440160408051601f198184030181529181526020820180516001600160e01b031663189acdbd60e31b1790525161014490610288565b61014f9291906102f1565b8190604051809103906000f590508015801561016f573d6000803e3d6000fd5b50925050505b92915050565b600061024f8260001b6040518060200161019490610288565b601f1982820381018352601f9091011660408190526001600160a01b03871660248201527f00000000000000000000000000000000000000000000000000000000000000009060440160408051601f19818403018152918152602080830180516001600160e01b031663189acdbd60e31b1790529051610216939291016102f1565b60408051601f19818403018152908290526102349291602001610333565b60405160208183030381529060405280519060200120610256565b9392505050565b600061024f8383306000604051836040820152846020820152828152600b8101905060ff815360559020949350505050565b6107278061036383390190565b600080604083850312156102a857600080fd5b82356001600160a01b03811681146102bf57600080fd5b946020939093013593505050565b60005b838110156102e85781810151838201526020016102d0565b50506000910152565b60018060a01b0383168152604060208201526000825180604084015261031e8160608501602087016102cd565b601f01601f1916919091016060019392505050565b600083516103458184602088016102cd565b8351908301906103598183602088016102cd565b0194935050505056fe608060405260405161072738038061072783398101604081905261002291610319565b61002e82826000610035565b5050610436565b61003e8361006b565b60008251118061004b5750805b156100665761006483836100ab60201b6100291760201c565b505b505050565b610074816100d7565b6040516001600160a01b038216907fbc7cd75a20ee27fd9adebab32041f755214dbc6bffa90cc0225b39da2e5c2d3b90600090a250565b60606100d08383604051806060016040528060278152602001610700602791396101a9565b9392505050565b6100ea8161022260201b6100551760201c565b6101515760405162461bcd60e51b815260206004820152602d60248201527f455243313936373a206e657720696d706c656d656e746174696f6e206973206e60448201526c1bdd08184818dbdb9d1c9858dd609a1b60648201526084015b60405180910390fd5b806101887f360894a13ba1a3210667c828492db98dca3e2076cc3735a920a3ca505d382bbc60001b61023160201b6100641760201c565b80546001600160a01b0319166001600160a01b039290921691909117905550565b6060600080856001600160a01b0316856040516101c691906103e7565b600060405180830381855af49150503d8060008114610201576040519150601f19603f3d011682016040523d82523d6000602084013e610206565b606091505b50909250905061021886838387610234565b9695505050505050565b6001600160a01b03163b151590565b90565b606083156102a357825160000361029c576001600160a01b0385163b61029c5760405162461bcd60e51b815260206004820152601d60248201527f416464726573733a2063616c6c20746f206e6f6e2d636f6e74726163740000006044820152606401610148565b50816102ad565b6102ad83836102b5565b949350505050565b8151156102c55781518083602001fd5b8060405162461bcd60e51b81526004016101489190610403565b634e487b7160e01b600052604160045260246000fd5b60005b838110156103105781810151838201526020016102f8565b50506000910152565b6000806040838503121561032c57600080fd5b82516001600160a01b038116811461034357600080fd5b60208401519092506001600160401b038082111561036057600080fd5b818501915085601f83011261037457600080fd5b815181811115610386576103866102df565b604051601f8201601f19908116603f011681019083821181831017156103ae576103ae6102df565b816040528281528860208487010111156103c757600080fd5b6103d88360208301602088016102f5565b80955050505050509250929050565b600082516103f98184602087016102f5565b9190910192915050565b60208152600082518060208401526104228160408501602087016102f5565b601f01601f19169190910160400192915050565b6102bb806104456000396000f3fe60806040523661001357610011610017565b005b6100115b610027610022610067565b61009f565b565b606061004e838360405180606001604052806027815260200161025f602791396100c3565b9392505050565b6001600160a01b03163b151590565b90565b600061009a7f360894a13ba1a3210667c828492db98dca3e2076cc3735a920a3ca505d382bbc546001600160a01b031690565b905090565b3660008037600080366000845af43d6000803e8080156100be573d6000f35b3d6000fd5b6060600080856001600160a01b0316856040516100e0919061020f565b600060405180830381855af49150503d806000811461011b576040519150601f19603f3d011682016040523d82523d6000602084013e610120565b606091505b50915091506101318683838761013b565b9695505050505050565b606083156101af5782516000036101a8576001600160a01b0385163b6101a85760405162461bcd60e51b815260206004820152601d60248201527f416464726573733a2063616c6c20746f206e6f6e2d636f6e747261637400000060448201526064015b60405180910390fd5b50816101b9565b6101b983836101c1565b949350505050565b8151156101d15781518083602001fd5b8060405162461bcd60e51b815260040161019f919061022b565b60005b838110156102065781810151838201526020016101ee565b50506000910152565b600082516102218184602087016101eb565b9190910192915050565b602081526000825180602084015261024a8160408501602087016101eb565b601f01601f1916919091016040019291505056fe416464726573733a206c6f772d6c6576656c2064656c65676174652063616c6c206661696c6564a26469706673582212203d912d0abbe116b83dfa1d3a82e612e3256de4ef536ea1a35d0e77601b02b17764736f6c63430008110033416464726573733a206c6f772d6c6576656c2064656c65676174652063616c6c206661696c6564a2646970667358221220d15aa46847763ab2ad17187e5409e51539bd2f08e72c0ede930bbc82901005da64736f6c6343000811003360e0604052306080523480156200001557600080fd5b5060405162001b1138038062001b1183398101604081905262000038916200013e565b6001600160a01b03821660a052816200005062000064565b506001600160a01b031660c052506200017d565b600054610100900460ff1615620000d15760405162461bcd60e51b815260206004820152602760248201527f496e697469616c697a61626c653a20636f6e747261637420697320696e697469604482015266616c697a696e6760c81b606482015260840160405180910390fd5b60005460ff9081161462000123576000805460ff191660ff9081179091556040519081527f7f26b83ff96e1f2b6a682f133852f6798a09c465da95921460cefb38474024989060200160405180910390a15b565b6001600160a01b03811681146200013b57600080fd5b50565b600080604083850312156200015257600080fd5b82516200015f8162000125565b6020840151909250620001728162000125565b809150509250929050565b60805160a05160c05161191062000201600039600081816101f6015261063d01526000818161030301528181610680015281816107010152818161097a01528181610b2501528181610b5f01528181610ddc0152610f200152600081816105490152818161058901528181610792015281816107d2015261086501526119106000f3fe6080604052600436106101175760003560e01c80634f1ef286116100a0578063bc197c8111610064578063bc197c8114610347578063c399ec8814610376578063c4d66de81461038b578063d087d288146103ab578063f23a6e61146103c057600080fd5b80634f1ef286146102a657806352d1902d146102b95780638da5cb5b146102ce578063b0d691fe146102f4578063b61d27f61461032757600080fd5b8063245a7bfc116100e7578063245a7bfc146101e45780633659cfe6146102305780633a871cdd146102505780634a58db191461027e5780634d44560d1461028657600080fd5b806223de291461012357806301ffc9a71461014a578063150b7a021461017f57806318dfb3c7146101c457600080fd5b3661011e57005b600080fd5b34801561012f57600080fd5b5061014861013e36600461120b565b5050505050505050565b005b34801561015657600080fd5b5061016a6101653660046112bc565b6103ed565b60405190151581526020015b60405180910390f35b34801561018b57600080fd5b506101ab61019a3660046112e6565b630a85bd0160e11b95945050505050565b6040516001600160e01b03199091168152602001610176565b3480156101d057600080fd5b506101486101df36600461139e565b61043f565b3480156101f057600080fd5b506102187f000000000000000000000000000000000000000000000000000000000000000081565b6040516001600160a01b039091168152602001610176565b34801561023c57600080fd5b5061014861024b36600461140a565b61053f565b34801561025c57600080fd5b5061027061026b366004611427565b61061e565b604051908152602001610176565b61014861067e565b34801561029257600080fd5b506101486102a136600461147b565b6106f7565b6101486102b43660046114bd565b610788565b3480156102c557600080fd5b50610270610858565b3480156102da57600080fd5b50600054610218906201000090046001600160a01b031681565b34801561030057600080fd5b507f0000000000000000000000000000000000000000000000000000000000000000610218565b34801561033357600080fd5b50610148610342366004611581565b61090b565b34801561035357600080fd5b506101ab6103623660046115d1565b63bc197c8160e01b98975050505050505050565b34801561038257600080fd5b5061027061095a565b34801561039757600080fd5b506101486103a636600461140a565b6109eb565b3480156103b757600080fd5b50610270610afe565b3480156103cc57600080fd5b506101ab6103db36600461166f565b63f23a6e6160e01b9695505050505050565b60006001600160e01b03198216630a85bd0160e11b148061041e57506001600160e01b03198216630271189760e51b145b8061043957506001600160e01b031982166301ffc9a760e01b145b92915050565b610447610b54565b8281146104915760405162461bcd60e51b815260206004820152601360248201527277726f6e67206172726179206c656e6774687360681b60448201526064015b60405180910390fd5b60005b83811015610538576105268585838181106104b1576104b16116eb565b90506020020160208101906104c6919061140a565b60008585858181106104da576104da6116eb565b90506020028101906104ec9190611701565b8080601f016020809104026020016040519081016040528093929190818152602001838380828437600092019190915250610be992505050565b8061053081611748565b915050610494565b5050505050565b6001600160a01b037f00000000000000000000000000000000000000000000000000000000000000001630036105875760405162461bcd60e51b81526004016104889061176f565b7f00000000000000000000000000000000000000000000000000000000000000006001600160a01b03166105d0600080516020611894833981519152546001600160a01b031690565b6001600160a01b0316146105f65760405162461bcd60e51b8152600401610488906117bb565b6105ff81610c59565b6040805160008082526020820190925261061b91839190610c61565b50565b6000610628610dd1565b50604080516060810182526001600160a01b037f000000000000000000000000000000000000000000000000000000000000000016808252600060208301819052919092015261067782610e49565b9392505050565b7f000000000000000000000000000000000000000000000000000000000000000060405163b760faf960e01b81523060048201526001600160a01b03919091169063b760faf99034906024016000604051808303818588803b1580156106e357600080fd5b505af1158015610538573d6000803e3d6000fd5b6106ff610e96565b7f000000000000000000000000000000000000000000000000000000000000000060405163040b850f60e31b81526001600160a01b03848116600483015260248201849052919091169063205c287890604401600060405180830381600087803b15801561076c57600080fd5b505af1158015610780573d6000803e3d6000fd5b505050505050565b6001600160a01b037f00000000000000000000000000000000000000000000000000000000000000001630036107d05760405162461bcd60e51b81526004016104889061176f565b7f00000000000000000000000000000000000000000000000000000000000000006001600160a01b0316610819600080516020611894833981519152546001600160a01b031690565b6001600160a01b03161461083f5760405162461bcd60e51b8152600401610488906117bb565b61084882610c59565b61085482826001610c61565b5050565b6000306001600160a01b037f000000000000000000000000000000000000000000000000000000000000000016146108f85760405162461bcd60e51b815260206004820152603860248201527f555550535570677261646561626c653a206d757374206e6f742062652063616c60448201527f6c6564207468726f7567682064656c656761746563616c6c00000000000000006064820152608401610488565b5060008051602061189483398151915290565b610913610b54565b610954848484848080601f016020809104026020016040519081016040528093929190818152602001838380828437600092019190915250610be992505050565b50505050565b6040516370a0823160e01b81523060048201526000906001600160a01b037f000000000000000000000000000000000000000000000000000000000000000016906370a08231906024015b602060405180830381865afa1580156109c2573d6000803e3d6000fd5b505050506040513d601f19601f820116820180604052508101906109e69190611807565b905090565b600054610100900460ff1615808015610a0b5750600054600160ff909116105b80610a255750303b158015610a25575060005460ff166001145b610a885760405162461bcd60e51b815260206004820152602e60248201527f496e697469616c697a61626c653a20636f6e747261637420697320616c72656160448201526d191e481a5b9a5d1a585b1a5e995960921b6064820152608401610488565b6000805460ff191660011790558015610aab576000805461ff0019166101001790555b610ab56000610eed565b8015610854576000805461ff0019169055604051600181527f7f26b83ff96e1f2b6a682f133852f6798a09c465da95921460cefb38474024989060200160405180910390a15050565b604051631aab3f0d60e11b8152306004820152600060248201819052906001600160a01b037f000000000000000000000000000000000000000000000000000000000000000016906335567e1a906044016109a5565b336001600160a01b037f0000000000000000000000000000000000000000000000000000000000000000161480610b9b57506000546201000090046001600160a01b031633145b610be75760405162461bcd60e51b815260206004820181905260248201527f6163636f756e743a206e6f74204f776e6572206f7220456e747279506f696e746044820152606401610488565b565b600080846001600160a01b03168484604051610c059190611844565b60006040518083038185875af1925050503d8060008114610c42576040519150601f19603f3d011682016040523d82523d6000602084013e610c47565b606091505b50915091508161053857805160208201fd5b61061b610e96565b7f4910fdfa16fed3260ed0e7147f7cc6da11a60208b5b9406d12a635614ffd91435460ff1615610c9957610c9483610f69565b505050565b826001600160a01b03166352d1902d6040518163ffffffff1660e01b8152600401602060405180830381865afa925050508015610cf3575060408051601f3d908101601f19168201909252610cf091810190611807565b60015b610d565760405162461bcd60e51b815260206004820152602e60248201527f45524331393637557067726164653a206e657720696d706c656d656e7461746960448201526d6f6e206973206e6f74205555505360901b6064820152608401610488565b6000805160206118948339815191528114610dc55760405162461bcd60e51b815260206004820152602960248201527f45524331393637557067726164653a20756e737570706f727465642070726f786044820152681a58589b195555525160ba1b6064820152608401610488565b50610c94838383611005565b336001600160a01b037f00000000000000000000000000000000000000000000000000000000000000001614610be75760405162461bcd60e51b815260206004820152601c60248201527f6163636f756e743a206e6f742066726f6d20456e747279506f696e74000000006044820152606401610488565b801561061b57604051600090339060001990849084818181858888f193505050503d8060008114610538576040519150601f19603f3d011682016040523d82523d6000602084013e610538565b6000546201000090046001600160a01b0316331480610eb457503330145b610be75760405162461bcd60e51b815260206004820152600a60248201526937b7363c9037bbb732b960b11b6044820152606401610488565b6000805462010000600160b01b031916620100006001600160a01b038481168202929092178084556040519190048216927f0000000000000000000000000000000000000000000000000000000000000000909216917f47e55c76e7a6f1fd8996a1da8008c1ea29699cca35e7bcd057f2dec313b6e5de91a350565b6001600160a01b0381163b610fd65760405162461bcd60e51b815260206004820152602d60248201527f455243313936373a206e657720696d706c656d656e746174696f6e206973206e60448201526c1bdd08184818dbdb9d1c9858dd609a1b6064820152608401610488565b60008051602061189483398151915280546001600160a01b0319166001600160a01b0392909216919091179055565b61100e8361102a565b60008251118061101b5750805b15610c9457610954838361106a565b61103381610f69565b6040516001600160a01b038216907fbc7cd75a20ee27fd9adebab32041f755214dbc6bffa90cc0225b39da2e5c2d3b90600090a250565b606061067783836040518060600160405280602781526020016118b4602791396060600080856001600160a01b0316856040516110a79190611844565b600060405180830381855af49150503d80600081146110e2576040519150601f19603f3d011682016040523d82523d6000602084013e6110e7565b606091505b50915091506110f886838387611102565b9695505050505050565b6060831561117157825160000361116a576001600160a01b0385163b61116a5760405162461bcd60e51b815260206004820152601d60248201527f416464726573733a2063616c6c20746f206e6f6e2d636f6e74726163740000006044820152606401610488565b508161117b565b61117b8383611183565b949350505050565b8151156111935781518083602001fd5b8060405162461bcd60e51b81526004016104889190611860565b6001600160a01b038116811461061b57600080fd5b60008083601f8401126111d457600080fd5b50813567ffffffffffffffff8111156111ec57600080fd5b60208301915083602082850101111561120457600080fd5b9250929050565b60008060008060008060008060c0898b03121561122757600080fd5b8835611232816111ad565b97506020890135611242816111ad565b96506040890135611252816111ad565b955060608901359450608089013567ffffffffffffffff8082111561127657600080fd5b6112828c838d016111c2565b909650945060a08b013591508082111561129b57600080fd5b506112a88b828c016111c2565b999c989b5096995094979396929594505050565b6000602082840312156112ce57600080fd5b81356001600160e01b03198116811461067757600080fd5b6000806000806000608086880312156112fe57600080fd5b8535611309816111ad565b94506020860135611319816111ad565b935060408601359250606086013567ffffffffffffffff81111561133c57600080fd5b611348888289016111c2565b969995985093965092949392505050565b60008083601f84011261136b57600080fd5b50813567ffffffffffffffff81111561138357600080fd5b6020830191508360208260051b850101111561120457600080fd5b600080600080604085870312156113b457600080fd5b843567ffffffffffffffff808211156113cc57600080fd5b6113d888838901611359565b909650945060208701359150808211156113f157600080fd5b506113fe87828801611359565b95989497509550505050565b60006020828403121561141c57600080fd5b8135610677816111ad565b60008060006060848603121561143c57600080fd5b833567ffffffffffffffff81111561145357600080fd5b8401610160818703121561146657600080fd5b95602085013595506040909401359392505050565b6000806040838503121561148e57600080fd5b8235611499816111ad565b946020939093013593505050565b634e487b7160e01b600052604160045260246000fd5b600080604083850312156114d057600080fd5b82356114db816111ad565b9150602083013567ffffffffffffffff808211156114f857600080fd5b818501915085601f83011261150c57600080fd5b81358181111561151e5761151e6114a7565b604051601f8201601f19908116603f01168101908382118183101715611546576115466114a7565b8160405282815288602084870101111561155f57600080fd5b8260208601602083013760006020848301015280955050505050509250929050565b6000806000806060858703121561159757600080fd5b84356115a2816111ad565b935060208501359250604085013567ffffffffffffffff8111156115c557600080fd5b6113fe878288016111c2565b60008060008060008060008060a0898b0312156115ed57600080fd5b88356115f8816111ad565b97506020890135611608816111ad565b9650604089013567ffffffffffffffff8082111561162557600080fd5b6116318c838d01611359565b909850965060608b013591508082111561164a57600080fd5b6116568c838d01611359565b909650945060808b013591508082111561129b57600080fd5b60008060008060008060a0878903121561168857600080fd5b8635611693816111ad565b955060208701356116a3816111ad565b94506040870135935060608701359250608087013567ffffffffffffffff8111156116cd57600080fd5b6116d989828a016111c2565b979a9699509497509295939492505050565b634e487b7160e01b600052603260045260246000fd5b6000808335601e1984360301811261171857600080fd5b83018035915067ffffffffffffffff82111561173357600080fd5b60200191503681900382131561120457600080fd5b60006001820161176857634e487b7160e01b600052601160045260246000fd5b5060010190565b6020808252602c908201527f46756e6374696f6e206d7573742062652063616c6c6564207468726f7567682060408201526b19195b1959d85d1958d85b1b60a21b606082015260800190565b6020808252602c908201527f46756e6374696f6e206d7573742062652063616c6c6564207468726f7567682060408201526b6163746976652070726f787960a01b606082015260800190565b60006020828403121561181957600080fd5b5051919050565b60005b8381101561183b578181015183820152602001611823565b50506000910152565b60008251611856818460208701611820565b9190910192915050565b602081526000825180602084015261187f816040850160208701611820565b601f01601f1916919091016040019291505056fe360894a13ba1a3210667c828492db98dca3e2076cc3735a920a3ca505d382bbc416464726573733a206c6f772d6c6576656c2064656c65676174652063616c6c206661696c6564a26469706673582212207df6c5d3b993fde7e68826b59e0cbb223051e894e4f807251601c9a1297e74aa64736f6c63430008110033",
  "linkReferences": {},
  "deployedLinkReferences": {}
}