{
  "_format": "hh-sol-artifact-1",
  "contractName": "TestExpirePaymaster",
  "sourceName": "contracts/test/TestExpirePaymaster.sol",
  "abi": [
    {
      "inputs": [
        {
          "internalType": "contract IEntryPoint",
          "name": "_entryPoint",
          "type": "address"
        }
      ],
      "stateMutability": "nonpayable",
      "type": "constructor"
    },
    {
      "anonymous": false,
      "inputs": [
        {
          "indexed": true,
          "internalType": "address",
          "name": "previousOwner",
          "type": "address"
        },
        {
          "indexed": true,
          "internalType": "address",
          "name": "newOwner",
          "type": "address"
        }
      ],
      "name": "OwnershipTransferred",
      "type": "event"
    },
    {
      "inputs": [
        {
          "internalType": "uint32",
          "name": "unstakeDelaySec",
          "type": "uint32"
        }
      ],
      "name": "addStake",
      "outputs": [],
      "stateMutability": "payable",
      "type": "function"
    },
    {
      "inputs": [],
      "name": "deposit",
      "outputs": [],
      "stateMutability": "payable",
      "type": "function"
    },
    {
      "inputs": [],
      "name": "entryPoint",
      "outputs": [
        {
          "internalType": "contract IEntryPoint",
          "name": "",
          "type": "address"
        }
      ],
      "stateMutability": "view",
      "type": "function"
    },
    {
      "inputs": [],
      "name": "getDeposit",
      "outputs": [
        {
          "internalType": "uint256",
          "name": "",
          "type": "uint256"
        }
      ],
      "stateMutability": "view",
      "type": "function"
    },
    {
      "inputs": [],
      "name": "owner",
      "outputs": [
        {
          "internalType": "address",
          "name": "",
          "type": "address"
        }
      ],
      "stateMutability": "view",
      "type": "function"
    },
    {
      "inputs": [
        {
          "internalType": "enum IPaymaster.PostOpMode",
          "name": "mode",
          "type": "uint8"
        },
        {
          "internalType": "bytes",
          "name": "context",
          "type": "bytes"
        },
        {
          "internalType": "uint256",
          "name": "actualGasCost",
          "type": "uint256"
        }
      ],
      "name": "postOp",
      "outputs": [],
      "stateMutability": "nonpayable",
      "type": "function"
    },
    {
      "inputs": [],
      "name": "renounceOwnership",
      "outputs": [],
      "stateMutability": "nonpayable",
      "type": "function"
    },
    {
      "inputs": [
        {
          "internalType": "address",
          "name": "newOwner",
          "type": "address"
        }
      ],
      "name": "transferOwnership",
      "outputs": [],
      "stateMutability": "nonpayable",
      "type": "function"
    },
    {
      "inputs": [],
      "name": "unlockStake",
      "outputs": [],
      "stateMutability": "nonpayable",
      "type": "function"
    },
    {
      "inputs": [
        {
          "components": [
            {
              "internalType": "address",
              "name": "sender",
              "type": "address"
            },
            {
              "internalType": "uint256",
              "name": "nonce",
              "type": "uint256"
            },
            {
              "internalType": "bytes",
              "name": "initCode",
              "type": "bytes"
            },
            {
              "internalType": "bytes",
              "name": "callData",
              "type": "bytes"
            },
            {
              "internalType": "uint256",
              "name": "callGasLimit",
              "type": "uint256"
            },
            {
              "internalType": "uint256",
              "name": "verificationGasLimit",
              "type": "uint256"
            },
            {
              "internalType": "uint256",
              "name": "preVerificationGas",
              "type": "uint256"
            },
            {
              "internalType": "uint256",
              "name": "maxFeePerGas",
              "type": "uint256"
            },
            {
              "internalType": "uint256",
              "name": "maxPriorityFeePerGas",
              "type": "uint256"
            },
            {
              "internalType": "bytes",
              "name": "paymasterAndData",
              "type": "bytes"
            },
            {
              "internalType": "bytes",
              "name": "signature",
              "type": "bytes"
            }
          ],
          "internalType": "struct UserOperation",
          "name": "userOp",
          "type": "tuple"
        },
        {
          "internalType": "bytes32",
          "name": "userOpHash",
          "type": "bytes32"
        },
        {
          "internalType": "uint256",
          "name": "maxCost",
          "type": "uint256"
        }
      ],
      "name": "validatePaymasterUserOp",
      "outputs": [
        {
          "internalType": "bytes",
          "name": "context",
          "type": "bytes"
        },
        {
          "internalType": "uint256",
          "name": "validationData",
          "type": "uint256"
        }
      ],
      "stateMutability": "nonpayable",
      "type": "function"
    },
    {
      "inputs": [
        {
          "internalType": "address payable",
          "name": "withdrawAddress",
          "type": "address"
        }
      ],
      "name": "withdrawStake",
      "outputs": [],
      "stateMutability": "nonpayable",
      "type": "function"
    },
    {
      "inputs": [
        {
          "internalType": "address payable",
          "name": "withdrawAddress",
          "type": "address"
        },
        {
          "internalType": "uint256",
          "name": "amount",
          "type": "uint256"
        }
      ],
      "name": "withdrawTo",
      "outputs": [],
      "stateMutability": "nonpayable",
      "type": "function"
    }
  ],
  "bytecode": "0x60a060405234801561001057600080fd5b50604051610bbe380380610bbe83398101604081905261002f9161009b565b806100393361004b565b6001600160a01b0316608052506100cb565b600080546001600160a01b038381166001600160a01b0319831681178455604051919092169283917f8be0079c531659141344cd1fd0a4f28419497f9722a3daafe3b4186f6b6457e09190a35050565b6000602082840312156100ad57600080fd5b81516001600160a01b03811681146100c457600080fd5b9392505050565b608051610aa76101176000396000818161015f01528181610251015281816102e801528181610364015281816103f80152818161046f015281816104fc015261069f0152610aa76000f3fe6080604052600436106100a75760003560e01c8063bb9fe6bf11610064578063bb9fe6bf14610181578063c23a5cea14610196578063c399ec88146101b6578063d0e30db0146101d9578063f2fde38b146101e1578063f465c77e1461020157600080fd5b80630396cb60146100ac578063205c2878146100c1578063715018a6146100e15780638da5cb5b146100f6578063a9a234091461012d578063b0d691fe1461014d575b600080fd5b6100bf6100ba3660046107cf565b61022f565b005b3480156100cd57600080fd5b506100bf6100dc366004610811565b6102ba565b3480156100ed57600080fd5b506100bf61032c565b34801561010257600080fd5b506000546001600160a01b03165b6040516001600160a01b0390911681526020015b60405180910390f35b34801561013957600080fd5b506100bf61014836600461083d565b610340565b34801561015957600080fd5b506101107f000000000000000000000000000000000000000000000000000000000000000081565b34801561018d57600080fd5b506100bf61035a565b3480156101a257600080fd5b506100bf6101b13660046108cc565b6103d1565b3480156101c257600080fd5b506101cb610457565b604051908152602001610124565b6100bf6104e7565b3480156101ed57600080fd5b506100bf6101fc3660046108cc565b610549565b34801561020d57600080fd5b5061022161021c3660046108e9565b6105c7565b60405161012492919061093d565b6102376105ea565b604051621cb65b60e51b815263ffffffff821660048201527f00000000000000000000000000000000000000000000000000000000000000006001600160a01b031690630396cb609034906024016000604051808303818588803b15801561029e57600080fd5b505af11580156102b2573d6000803e3d6000fd5b505050505050565b6102c26105ea565b60405163040b850f60e31b81526001600160a01b038381166004830152602482018390527f0000000000000000000000000000000000000000000000000000000000000000169063205c287890604401600060405180830381600087803b15801561029e57600080fd5b6103346105ea565b61033e6000610644565b565b610348610694565b61035484848484610704565b50505050565b6103626105ea565b7f00000000000000000000000000000000000000000000000000000000000000006001600160a01b031663bb9fe6bf6040518163ffffffff1660e01b8152600401600060405180830381600087803b1580156103bd57600080fd5b505af1158015610354573d6000803e3d6000fd5b6103d96105ea565b60405163611d2e7560e11b81526001600160a01b0382811660048301527f0000000000000000000000000000000000000000000000000000000000000000169063c23a5cea90602401600060405180830381600087803b15801561043c57600080fd5b505af1158015610450573d6000803e3d6000fd5b5050505050565b6040516370a0823160e01b81523060048201526000907f00000000000000000000000000000000000000000000000000000000000000006001600160a01b0316906370a0823190602401602060405180830381865afa1580156104be573d6000803e3d6000fd5b505050506040513d601f19601f820116820180604052508101906104e29190610992565b905090565b60405163b760faf960e01b81523060048201527f00000000000000000000000000000000000000000000000000000000000000006001600160a01b03169063b760faf99034906024016000604051808303818588803b15801561043c57600080fd5b6105516105ea565b6001600160a01b0381166105bb5760405162461bcd60e51b815260206004820152602660248201527f4f776e61626c653a206e6577206f776e657220697320746865207a65726f206160448201526564647265737360d01b60648201526084015b60405180910390fd5b6105c481610644565b50565b606060006105d3610694565b6105de85858561073c565b91509150935093915050565b6000546001600160a01b0316331461033e5760405162461bcd60e51b815260206004820181905260248201527f4f776e61626c653a2063616c6c6572206973206e6f7420746865206f776e657260448201526064016105b2565b600080546001600160a01b038381166001600160a01b0319831681178455604051919092169283917f8be0079c531659141344cd1fd0a4f28419497f9722a3daafe3b4186f6b6457e09190a35050565b336001600160a01b037f0000000000000000000000000000000000000000000000000000000000000000161461033e5760405162461bcd60e51b815260206004820152601560248201527414d95b99195c881b9bdd08115b9d1c9e541bda5b9d605a1b60448201526064016105b2565b60405162461bcd60e51b815260206004820152600d60248201526c6d757374206f7665727269646560981b60448201526064016105b2565b6060600080806107506101208801886109ab565b61075e9160149082906109f9565b81019061076b9190610a3e565b9150915061077b60008284610797565b6040805160208101909152600081529890975095505050505050565b600060d08265ffffffffffff16901b60a08465ffffffffffff16901b856107bf5760006107c2565b60015b60ff161717949350505050565b6000602082840312156107e157600080fd5b813563ffffffff811681146107f557600080fd5b9392505050565b6001600160a01b03811681146105c457600080fd5b6000806040838503121561082457600080fd5b823561082f816107fc565b946020939093013593505050565b6000806000806060858703121561085357600080fd5b84356003811061086257600080fd5b9350602085013567ffffffffffffffff8082111561087f57600080fd5b818701915087601f83011261089357600080fd5b8135818111156108a257600080fd5b8860208285010111156108b457600080fd5b95986020929092019750949560400135945092505050565b6000602082840312156108de57600080fd5b81356107f5816107fc565b6000806000606084860312156108fe57600080fd5b833567ffffffffffffffff81111561091557600080fd5b8401610160818703121561092857600080fd5b95602085013595506040909401359392505050565b604081526000835180604084015260005b8181101561096b576020818701810151606086840101520161094e565b506000606082850101526060601f19601f8301168401019150508260208301529392505050565b6000602082840312156109a457600080fd5b5051919050565b6000808335601e198436030181126109c257600080fd5b83018035915067ffffffffffffffff8211156109dd57600080fd5b6020019150368190038213156109f257600080fd5b9250929050565b60008085851115610a0957600080fd5b83861115610a1657600080fd5b5050820193919092039150565b803565ffffffffffff81168114610a3957600080fd5b919050565b60008060408385031215610a5157600080fd5b610a5a83610a23565b9150610a6860208401610a23565b9050925092905056fea2646970667358221220c47e3302c69a6684f675462da731908dea5ee26d7a3e139f3dd3983c1abde7c864736f6c63430008110033",
  "linkReferences": {},
  "deployedLinkReferences": {}
}