{
  "_format": "hh-sol-artifact-1",
  "contractName": "EIP4337Manager",
  "sourceName": "contracts/samples/gnosis/EIP4337Manager.sol",
  "abi": [
    {
      "inputs": [
        {
          "internalType": "address",
          "name": "anEntryPoint",
          "type": "address"
        }
      ],
      "stateMutability": "nonpayable",
      "type": "constructor"
    },
    {
      "inputs": [],
      "name": "eip4337Fallback",
      "outputs": [
        {
          "internalType": "address",
          "name": "",
          "type": "address"
        }
      ],
      "stateMutability": "view",
      "type": "function"
    },
    {
      "inputs": [],
      "name": "entryPoint",
      "outputs": [
        {
          "internalType": "address",
          "name": "",
          "type": "address"
        }
      ],
      "stateMutability": "view",
      "type": "function"
    },
    {
      "inputs": [
        {
          "internalType": "address",
          "name": "to",
          "type": "address"
        },
        {
          "internalType": "uint256",
          "name": "value",
          "type": "uint256"
        },
        {
          "internalType": "bytes",
          "name": "data",
          "type": "bytes"
        },
        {
          "internalType": "enum Enum.Operation",
          "name": "operation",
          "type": "uint8"
        }
      ],
      "name": "executeAndRevert",
      "outputs": [],
      "stateMutability": "nonpayable",
      "type": "function"
    },
    {
      "inputs": [
        {
          "internalType": "contract GnosisSafe",
          "name": "safe",
          "type": "address"
        }
      ],
      "name": "getCurrentEIP4337Manager",
      "outputs": [
        {
          "internalType": "address",
          "name": "prev",
          "type": "address"
        },
        {
          "internalType": "address",
          "name": "manager",
          "type": "address"
        }
      ],
      "stateMutability": "view",
      "type": "function"
    },
    {
      "inputs": [],
      "name": "getNonce",
      "outputs": [
        {
          "internalType": "uint256",
          "name": "",
          "type": "uint256"
        }
      ],
      "stateMutability": "view",
      "type": "function"
    },
    {
      "inputs": [
        {
          "internalType": "address",
          "name": "prevModule",
          "type": "address"
        },
        {
          "internalType": "contract EIP4337Manager",
          "name": "oldManager",
          "type": "address"
        },
        {
          "internalType": "contract EIP4337Manager",
          "name": "newManager",
          "type": "address"
        }
      ],
      "name": "replaceEIP4337Manager",
      "outputs": [],
      "stateMutability": "nonpayable",
      "type": "function"
    },
    {
      "inputs": [
        {
          "internalType": "contract EIP4337Manager",
          "name": "manager",
          "type": "address"
        }
      ],
      "name": "setup4337Modules",
      "outputs": [],
      "stateMutability": "nonpayable",
      "type": "function"
    },
    {
      "inputs": [
        {
          "internalType": "contract GnosisSafe",
          "name": "safe",
          "type": "address"
        },
        {
          "internalType": "contract EIP4337Manager",
          "name": "manager",
          "type": "address"
        }
      ],
      "name": "validateEip4337",
      "outputs": [],
      "stateMutability": "nonpayable",
      "type": "function"
    },
    {
      "inputs": [
        {
          "components": [
            {
              "internalType": "address",
              "name": "sender",
              "type": "address"
            },
            {
              "internalType": "uint256",
              "name": "nonce",
              "type": "uint256"
            },
            {
              "internalType": "bytes",
              "name": "initCode",
              "type": "bytes"
            },
            {
              "internalType": "bytes",
              "name": "callData",
              "type": "bytes"
            },
            {
              "internalType": "uint256",
              "name": "callGasLimit",
              "type": "uint256"
            },
            {
              "internalType": "uint256",
              "name": "verificationGasLimit",
              "type": "uint256"
            },
            {
              "internalType": "uint256",
              "name": "preVerificationGas",
              "type": "uint256"
            },
            {
              "internalType": "uint256",
              "name": "maxFeePerGas",
              "type": "uint256"
            },
            {
              "internalType": "uint256",
              "name": "maxPriorityFeePerGas",
              "type": "uint256"
            },
            {
              "internalType": "bytes",
              "name": "paymasterAndData",
              "type": "bytes"
            },
            {
              "internalType": "bytes",
              "name": "signature",
              "type": "bytes"
            }
          ],
          "internalType": "struct UserOperation",
          "name": "userOp",
          "type": "tuple"
        },
        {
          "internalType": "bytes32",
          "name": "userOpHash",
          "type": "bytes32"
        },
        {
          "internalType": "uint256",
          "name": "missingAccountFunds",
          "type": "uint256"
        }
      ],
      "name": "validateUserOp",
      "outputs": [
        {
          "internalType": "uint256",
          "name": "validationData",
          "type": "uint256"
        }
      ],
      "stateMutability": "nonpayable",
      "type": "function"
    }
  ],
  "bytecode": "0x60c06040523480156200001157600080fd5b5060405162002ddd38038062002ddd8339810160408190526200003491620000a0565b6001600160a01b03811660a0526040513090620000519062000092565b6001600160a01b039091168152602001604051809103906000f0801580156200007e573d6000803e3d6000fd5b506001600160a01b031660805250620000d2565b610e638062001f7a83390190565b600060208284031215620000b357600080fd5b81516001600160a01b0381168114620000cb57600080fd5b9392505050565b60805160a051611e66620001146000396000818161015d0152818161031401528181610a620152610ff201526000818161010b0152610adb0152611e666000f3fe608060405234801561001057600080fd5b50600436106100935760003560e01c8063940d3c6011610066578063940d3c6014610145578063b0d691fe14610158578063d041593b1461017f578063d087d28814610192578063efae6e061461019a57600080fd5b8063039b1728146100985780633a871cdd146100d057806345b1e0ca146100f157806370b8a01d14610106575b600080fd5b6100ab6100a63660046117ce565b6101ad565b604080516001600160a01b039384168152929091166020830152015b60405180910390f35b6100e36100de3660046117f2565b6102e1565b6040519081526020016100c7565b6101046100ff366004611846565b610590565b005b61012d7f000000000000000000000000000000000000000000000000000000000000000081565b6040516001600160a01b0390911681526020016100c7565b610104610153366004611902565b610a30565b61012d7f000000000000000000000000000000000000000000000000000000000000000081565b61010461018d3660046117ce565b610bbb565b6100e3610fd3565b6101046101a83660046119af565b61106a565b604051636617c22960e11b8152600160048201819052606460248301529060009081906001600160a01b0385169063cc2f845290604401600060405180830381865afa158015610201573d6000803e3d6000fd5b505050506040513d6000823e601f3d908101601f191682016040526102299190810190611a05565b50905060005b81518110156102d457600082828151811061024c5761024c611ac9565b60200260200101519050806001600160a01b0316632bcadc246040518163ffffffff1660e01b8152600401602060405180830381865afa9250505080156102b0575060408051601f3d908101601f191682019092526102ad91810190611adf565b60015b156102c057949694955050505050565b9350806102cc81611b12565b91505061022f565b5060009485945092505050565b60008080366102f1601482611b2b565b6102fc928290611b3e565b61030591611b68565b60601c90506001600160a01b037f00000000000000000000000000000000000000000000000000000000000000001681146103875760405162461bcd60e51b815260206004820152601c60248201527f6163636f756e743a206e6f742066726f6d20656e747279706f696e740000000060448201526064015b60405180910390fd5b7f19457468657265756d205369676e6564204d6573736167653a0a3332000000006000908152601c859052603c812030916104066103c96101408a018a611b9d565b8080601f01602080910402602001604051908101604052809392919081815260200183838082843760009201919091525086939250506114ca9050565b905060045460011461045a5760405162461bcd60e51b815260206004820152601960248201527f6163636f756e743a206f6e6c79207468726573686f6c64203100000000000000604482015260640161037e565b6040516317aa5fb760e11b81526001600160a01b038281166004830152841690632f54bf6e90602401602060405180830381865afa1580156104a0573d6000803e3d6000fd5b505050506040513d601f19601f820116820180604052508101906104c49190611be4565b6104cd57600194505b67ffffffffffffffff6020890135106105285760405162461bcd60e51b815260206004820152601c60248201527f6163636f756e743a206e6f6e73657175656e7469616c206e6f6e636500000000604482015260640161037e565b8515610585576000846001600160a01b03168760405160006040518083038185875af1925050503d806000811461057b576040519150601f19603f3d011682016040523d82523d6000602084013e610580565b606091505b505050505b505050509392505050565b60408051604180825260808201909252600091602082018180368337019050509050601b60f81b816040815181106105ca576105ca611ac9565b60200101906001600160f81b031916908160001a905350600160f81b816002815181106105f9576105f9611ac9565b60200101906001600160f81b031916908160001a905350600160f81b8160238151811061062857610628611ac9565b60200101906001600160f81b031916908160001a9053506000826001600160a01b031663b0d691fe6040518163ffffffff1660e01b8152600401602060405180830381865afa15801561067f573d6000803e3d6000fd5b505050506040513d601f19601f820116820180604052508101906106a39190611adf565b604051631aab3f0d60e11b81526001600160a01b0386811660048301526000602483015291909116906335567e1a90604401602060405180830381865afa1580156106f2573d6000803e3d6000fd5b505050506040513d601f19601f820116820180604052508101906107169190611c06565b60408051610160810182526001600160a01b038716815260208082018490528251808201845260008082528385019190915283518083018552818152606084015260808301819052620f424060a084015260c0830181905260e08301819052610100830181905283518083018552818152610120840152610140830187905283516001808252818601909552949550919391929082015b61081360405180610160016040528060006001600160a01b03168152602001600081526020016060815260200160608152602001600081526020016000815260200160008152602001600081526020016000815260200160608152602001606081525090565b8152602001906001900390816107ad579050509050818160008151811061083c5761083c611ac9565b60200260200101819052506000856001600160a01b031663b0d691fe6040518163ffffffff1660e01b8152600401602060405180830381865afa158015610887573d6000803e3d6000fd5b505050506040513d601f19601f820116820180604052508101906108ab9190611adf565b6040516307eb652360e21b81529091506001600160a01b03821690631fad948c906108dc9085903390600401611c6f565b600060405180830381600087803b1580156108f657600080fd5b505af1925050508015610907575060015b6109d3573d808015610935576040519150601f19603f3d011682016040523d82523d6000602084013e61093a565b606091505b5060408051600060248201526044810191909152601460648201527320a0991a1039b4b3b730ba3ab9329032b93937b960611b608482015260a40160408051601f19818403018152919052602080820180516001600160e01b0316631101335b60e11b1781529151909120825191830191909120146109cd578060405162461bcd60e51b815260040161037e9190611d99565b50610a27565b60405162461bcd60e51b8152602060048201526024808201527f76616c6964617465456970343333373a2068616e646c654f7073206d7573742060448201526319985a5b60e21b606482015260840161037e565b50505050505050565b60008036610a3f601482611b2b565b610a4a928290611b3e565b610a5391611b68565b60601c90506001600160a01b037f0000000000000000000000000000000000000000000000000000000000000000168114610ad05760405162461bcd60e51b815260206004820152601c60248201527f6163636f756e743a206e6f742066726f6d20656e747279706f696e7400000000604482015260640161037e565b336001600160a01b037f00000000000000000000000000000000000000000000000000000000000000001614610b525760405162461bcd60e51b815260206004820152602160248201527f6163636f756e743a206e6f742066726f6d204549503433333746616c6c6261636044820152606b60f81b606482015260840161037e565b6000610b63868686866000196114f0565b90506000610b72600019611537565b905081610a2757604481511015610b8857600080fd5b60048101905080806020019051810190610ba29190611dac565b60405162461bcd60e51b815260040161037e9190611d99565b6000309050806001600160a01b0316632d9ad53d836001600160a01b031663b0d691fe6040518163ffffffff1660e01b8152600401602060405180830381865afa158015610c0d573d6000803e3d6000fd5b505050506040513d601f19601f82011682018060405250810190610c319190611adf565b6040516001600160e01b031960e084901b1681526001600160a01b039091166004820152602401602060405180830381865afa158015610c75573d6000803e3d6000fd5b505050506040513d601f19601f82011682018060405250810190610c999190611be4565b15610cfb5760405162461bcd60e51b815260206004820152602c60248201527f7365747570343333374d6f64756c65733a20656e747279706f696e7420616c7260448201526b1958591e48195b98589b195960a21b606482015260840161037e565b806001600160a01b0316632d9ad53d836001600160a01b03166370b8a01d6040518163ffffffff1660e01b8152600401602060405180830381865afa158015610d48573d6000803e3d6000fd5b505050506040513d601f19601f82011682018060405250810190610d6c9190611adf565b6040516001600160e01b031960e084901b1681526001600160a01b039091166004820152602401602060405180830381865afa158015610db0573d6000803e3d6000fd5b505050506040513d601f19601f82011682018060405250810190610dd49190611be4565b15610e3b5760405162461bcd60e51b815260206004820152603160248201527f7365747570343333374d6f64756c65733a206569703433333746616c6c6261636044820152701ac8185b1c9958591e48195b98589b1959607a1b606482015260840161037e565b806001600160a01b031663610b5925836001600160a01b031663b0d691fe6040518163ffffffff1660e01b8152600401602060405180830381865afa158015610e88573d6000803e3d6000fd5b505050506040513d601f19601f82011682018060405250810190610eac9190611adf565b6040516001600160e01b031960e084901b1681526001600160a01b039091166004820152602401600060405180830381600087803b158015610eed57600080fd5b505af1158015610f01573d6000803e3d6000fd5b50505050806001600160a01b031663610b5925836001600160a01b03166370b8a01d6040518163ffffffff1660e01b8152600401602060405180830381865afa158015610f52573d6000803e3d6000fd5b505050506040513d601f19601f82011682018060405250810190610f769190611adf565b6040516001600160e01b031960e084901b1681526001600160a01b039091166004820152602401600060405180830381600087803b158015610fb757600080fd5b505af1158015610fcb573d6000803e3d6000fd5b505050505050565b604051631aab3f0d60e11b8152306004820152600060248201819052907f00000000000000000000000000000000000000000000000000000000000000006001600160a01b0316906335567e1a90604401602060405180830381865afa158015611041573d6000803e3d6000fd5b505050506040513d601f19601f820116820180604052508101906110659190611c06565b905090565b60003090506000836001600160a01b03166370b8a01d6040518163ffffffff1660e01b8152600401602060405180830381865afa1580156110af573d6000803e3d6000fd5b505050506040513d601f19601f820116820180604052508101906110d39190611adf565b604051632d9ad53d60e01b81526001600160a01b03808316600483015291925090831690632d9ad53d90602401602060405180830381865afa15801561111d573d6000803e3d6000fd5b505050506040513d601f19601f820116820180604052508101906111419190611be4565b6111a55760405162461bcd60e51b815260206004820152602f60248201527f7265706c616365454950343333374d616e616765723a206f6c644d616e61676560448201526e72206973206e6f742061637469766560881b606482015260840161037e565b816001600160a01b031663e009cfde82866001600160a01b031663b0d691fe6040518163ffffffff1660e01b8152600401602060405180830381865afa1580156111f3573d6000803e3d6000fd5b505050506040513d601f19601f820116820180604052508101906112179190611adf565b6040516001600160e01b031960e085901b1681526001600160a01b03928316600482015291166024820152604401600060405180830381600087803b15801561125f57600080fd5b505af1158015611273573d6000803e3d6000fd5b5050604051637004e7ef60e11b81526001600160a01b03888116600483015284811660248301528516925063e009cfde9150604401600060405180830381600087803b1580156112c257600080fd5b505af11580156112d6573d6000803e3d6000fd5b505050506000836001600160a01b03166370b8a01d6040518163ffffffff1660e01b8152600401602060405180830381865afa15801561131a573d6000803e3d6000fd5b505050506040513d601f19601f8201168201806040525081019061133e9190611adf565b9050826001600160a01b031663610b5925856001600160a01b031663b0d691fe6040518163ffffffff1660e01b8152600401602060405180830381865afa15801561138d573d6000803e3d6000fd5b505050506040513d601f19601f820116820180604052508101906113b19190611adf565b6040516001600160e01b031960e084901b1681526001600160a01b039091166004820152602401600060405180830381600087803b1580156113f257600080fd5b505af1158015611406573d6000803e3d6000fd5b505060405163610b592560e01b81526001600160a01b0384811660048301528616925063610b59259150602401600060405180830381600087803b15801561144d57600080fd5b505af1158015611461573d6000803e3d6000fd5b505060405163f08a032360e01b81526001600160a01b0384811660048301528616925063f08a03239150602401600060405180830381600087803b1580156114a857600080fd5b505af11580156114bc573d6000803e3d6000fd5b50505050610fcb8385610590565b60008060006114d98585611563565b915091506114e6816115a8565b5090505b92915050565b6000600183600181111561150657611506611e1a565b0361151e576000808551602087018986f4905061152e565b600080855160208701888a87f190505b95945050505050565b60603d828111156115455750815b604051602082018101604052818152816000602083013e9392505050565b60008082516041036115995760208301516040840151606085015160001a61158d878285856116f5565b945094505050506115a1565b506000905060025b9250929050565b60008160048111156115bc576115bc611e1a565b036115c45750565b60018160048111156115d8576115d8611e1a565b036116255760405162461bcd60e51b815260206004820152601860248201527f45434453413a20696e76616c6964207369676e61747572650000000000000000604482015260640161037e565b600281600481111561163957611639611e1a565b036116865760405162461bcd60e51b815260206004820152601f60248201527f45434453413a20696e76616c6964207369676e6174757265206c656e67746800604482015260640161037e565b600381600481111561169a5761169a611e1a565b036116f25760405162461bcd60e51b815260206004820152602260248201527f45434453413a20696e76616c6964207369676e6174757265202773272076616c604482015261756560f01b606482015260840161037e565b50565b6000807f7fffffffffffffffffffffffffffffff5d576e7357a4501ddfe92f46681b20a083111561172c57506000905060036117b0565b6040805160008082526020820180845289905260ff881692820192909252606081018690526080810185905260019060a0016020604051602081039080840390855afa158015611780573d6000803e3d6000fd5b5050604051601f1901519150506001600160a01b0381166117a9576000600192509250506117b0565b9150600090505b94509492505050565b6001600160a01b03811681146116f257600080fd5b6000602082840312156117e057600080fd5b81356117eb816117b9565b9392505050565b60008060006060848603121561180757600080fd5b833567ffffffffffffffff81111561181e57600080fd5b8401610160818703121561183157600080fd5b95602085013595506040909401359392505050565b6000806040838503121561185957600080fd5b8235611864816117b9565b91506020830135611874816117b9565b809150509250929050565b634e487b7160e01b600052604160045260246000fd5b604051601f8201601f1916810167ffffffffffffffff811182821017156118be576118be61187f565b604052919050565b600067ffffffffffffffff8211156118e0576118e061187f565b50601f01601f191660200190565b8035600281106118fd57600080fd5b919050565b6000806000806080858703121561191857600080fd5b8435611923816117b9565b935060208501359250604085013567ffffffffffffffff81111561194657600080fd5b8501601f8101871361195757600080fd5b803561196a611965826118c6565b611895565b81815288602083850101111561197f57600080fd5b816020840160208301376000602083830101528094505050506119a4606086016118ee565b905092959194509250565b6000806000606084860312156119c457600080fd5b83356119cf816117b9565b925060208401356119df816117b9565b915060408401356119ef816117b9565b809150509250925092565b80516118fd816117b9565b60008060408385031215611a1857600080fd5b825167ffffffffffffffff80821115611a3057600080fd5b818501915085601f830112611a4457600080fd5b8151602082821115611a5857611a5861187f565b8160051b9250611a69818401611895565b8281529284018101928181019089851115611a8357600080fd5b948201945b84861015611aad5785519350611a9d846117b9565b8382529482019490820190611a88565b9650611abc90508782016119fa565b9450505050509250929050565b634e487b7160e01b600052603260045260246000fd5b600060208284031215611af157600080fd5b81516117eb816117b9565b634e487b7160e01b600052601160045260246000fd5b600060018201611b2457611b24611afc565b5060010190565b818103818111156114ea576114ea611afc565b60008085851115611b4e57600080fd5b83861115611b5b57600080fd5b5050820193919092039150565b6bffffffffffffffffffffffff198135818116916014851015611b955780818660140360031b1b83161692505b505092915050565b6000808335601e19843603018112611bb457600080fd5b83018035915067ffffffffffffffff821115611bcf57600080fd5b6020019150368190038213156115a157600080fd5b600060208284031215611bf657600080fd5b815180151581146117eb57600080fd5b600060208284031215611c1857600080fd5b5051919050565b60005b83811015611c3a578181015183820152602001611c22565b50506000910152565b60008151808452611c5b816020860160208601611c1f565b601f01601f19169290920160200192915050565b60006040808301818452808651808352606092508286019150828160051b8701016020808a0160005b84811015611d7357898403605f19018652815180516001600160a01b03168552610160848201518587015289820151818b880152611cd882880182611c43565b915050888201518682038a880152611cf08282611c43565b6080848101519089015260a0808501519089015260c0808501519089015260e08085015190890152610100808501519089015261012080850151898303828b01529193509150611d408382611c43565b925050506101408083015192508682038188015250611d5f8183611c43565b978501979550505090820190600101611c98565b5050819650611d8c8189018a6001600160a01b03169052565b5050505050509392505050565b6020815260006117eb6020830184611c43565b600060208284031215611dbe57600080fd5b815167ffffffffffffffff811115611dd557600080fd5b8201601f81018413611de657600080fd5b8051611df4611965826118c6565b818152856020838501011115611e0957600080fd5b61152e826020830160208601611c1f565b634e487b7160e01b600052602160045260246000fdfea2646970667358221220ed83b0ca0bb6a4d04d3064af3e92a4b47b66ff09d649a39e255ed71eccb0c01c64736f6c6343000811003360a060405234801561001057600080fd5b50604051610e63380380610e6383398101604081905261002f91610040565b6001600160a01b0316608052610070565b60006020828403121561005257600080fd5b81516001600160a01b038116811461006957600080fd5b9392505050565b608051610dd16100926000396000818161014a015261043e0152610dd16000f3fe608060405234801561001057600080fd5b50600436106100b35760003560e01c8063940d3c6011610071578063940d3c60146101a5578063a3f4df7e146101b8578063bc197c8114610201578063d087d28814610223578063f23a6e611461022b578063ffa1ad741461024b57600080fd5b806223de29146100b857806301ffc9a7146100d2578063150b7a02146100fa5780631626ba7e146101325780632bcadc24146101455780633a871cdd14610184575b600080fd5b6100d06100c6366004610787565b5050505050505050565b005b6100e56100e0366004610832565b61026f565b60405190151581526020015b60405180910390f35b61011961010836600461085c565b630a85bd0160e11b95945050505050565b6040516001600160e01b031990911681526020016100f1565b610119610140366004610990565b6102c1565b61016c7f000000000000000000000000000000000000000000000000000000000000000081565b6040516001600160a01b0390911681526020016100f1565b6101976101923660046109d7565b610395565b6040519081526020016100f1565b6100d06101b3366004610a2b565b6103bf565b6101f46040518060400160405280601881526020017f44656661756c742043616c6c6261636b2048616e646c6572000000000000000081525081565b6040516100f19190610abd565b61011961020f366004610b35565b63bc197c8160e01b98975050505050505050565b6101976103ce565b610119610239366004610bcf565b63f23a6e6160e01b9695505050505050565b6101f4604051806040016040528060058152602001640312e302e360dc1b81525081565b60006001600160e01b03198216630271189760e51b14806102a057506001600160e01b03198216630a85bd0160e11b145b806102bb57506001600160e01b031982166301ffc9a760e01b145b92915050565b7f19457468657265756d205369676e6564204d6573736167653a0a3332000000006000908152601c839052603c812060006102fc82856103f5565b6040516317aa5fb760e11b81526001600160a01b038216600482015290915033908190632f54bf6e90602401602060405180830381865afa158015610345573d6000803e3d6000fd5b505050506040513d601f19601f820116820180604052508101906103699190610c57565b156103815750630b135d3f60e11b92506102bb915050565b506001600160e01b031992506102bb915050565b6000806103a0610419565b9050808060200190518101906103b69190610c72565b95945050505050565b6103c7610419565b5050505050565b6000806103d9610419565b9050808060200190518101906103ef9190610c72565b91505090565b600080600061040485856104ce565b9150915061041181610513565b509392505050565b604051635229073f60e01b8152606090339060009081908390635229073f9061046f907f000000000000000000000000000000000000000000000000000000000000000090859081903690600190600401610ca1565b6000604051808303816000875af115801561048e573d6000803e3d6000fd5b505050506040513d6000823e601f3d908101601f191682016040526104b69190810190610d11565b91509150816104c757805160208201fd5b9392505050565b60008082516041036105045760208301516040840151606085015160001a6104f887828585610665565b9450945050505061050c565b506000905060025b9250929050565b600081600481111561052757610527610c8b565b0361052f5750565b600181600481111561054357610543610c8b565b036105955760405162461bcd60e51b815260206004820152601860248201527f45434453413a20696e76616c6964207369676e6174757265000000000000000060448201526064015b60405180910390fd5b60028160048111156105a9576105a9610c8b565b036105f65760405162461bcd60e51b815260206004820152601f60248201527f45434453413a20696e76616c6964207369676e6174757265206c656e67746800604482015260640161058c565b600381600481111561060a5761060a610c8b565b036106625760405162461bcd60e51b815260206004820152602260248201527f45434453413a20696e76616c6964207369676e6174757265202773272076616c604482015261756560f01b606482015260840161058c565b50565b6000807f7fffffffffffffffffffffffffffffff5d576e7357a4501ddfe92f46681b20a083111561069c5750600090506003610720565b6040805160008082526020820180845289905260ff881692820192909252606081018690526080810185905260019060a0016020604051602081039080840390855afa1580156106f0573d6000803e3d6000fd5b5050604051601f1901519150506001600160a01b03811661071957600060019250925050610720565b9150600090505b94509492505050565b80356001600160a01b038116811461074057600080fd5b919050565b60008083601f84011261075757600080fd5b50813567ffffffffffffffff81111561076f57600080fd5b60208301915083602082850101111561050c57600080fd5b60008060008060008060008060c0898b0312156107a357600080fd5b6107ac89610729565b97506107ba60208a01610729565b96506107c860408a01610729565b955060608901359450608089013567ffffffffffffffff808211156107ec57600080fd5b6107f88c838d01610745565b909650945060a08b013591508082111561081157600080fd5b5061081e8b828c01610745565b999c989b5096995094979396929594505050565b60006020828403121561084457600080fd5b81356001600160e01b0319811681146104c757600080fd5b60008060008060006080868803121561087457600080fd5b61087d86610729565b945061088b60208701610729565b935060408601359250606086013567ffffffffffffffff8111156108ae57600080fd5b6108ba88828901610745565b969995985093965092949392505050565b634e487b7160e01b600052604160045260246000fd5b604051601f8201601f1916810167ffffffffffffffff8111828210171561090a5761090a6108cb565b604052919050565b600067ffffffffffffffff82111561092c5761092c6108cb565b50601f01601f191660200190565b600082601f83011261094b57600080fd5b813561095e61095982610912565b6108e1565b81815284602083860101111561097357600080fd5b816020850160208301376000918101602001919091529392505050565b600080604083850312156109a357600080fd5b82359150602083013567ffffffffffffffff8111156109c157600080fd5b6109cd8582860161093a565b9150509250929050565b6000806000606084860312156109ec57600080fd5b833567ffffffffffffffff811115610a0357600080fd5b84016101608187031215610a1657600080fd5b95602085013595506040909401359392505050565b60008060008060808587031215610a4157600080fd5b610a4a85610729565b935060208501359250604085013567ffffffffffffffff811115610a6d57600080fd5b610a798782880161093a565b925050606085013560028110610a8e57600080fd5b939692955090935050565b60005b83811015610ab4578181015183820152602001610a9c565b50506000910152565b6020815260008251806020840152610adc816040850160208701610a99565b601f01601f19169190910160400192915050565b60008083601f840112610b0257600080fd5b50813567ffffffffffffffff811115610b1a57600080fd5b6020830191508360208260051b850101111561050c57600080fd5b60008060008060008060008060a0898b031215610b5157600080fd5b610b5a89610729565b9750610b6860208a01610729565b9650604089013567ffffffffffffffff80821115610b8557600080fd5b610b918c838d01610af0565b909850965060608b0135915080821115610baa57600080fd5b610bb68c838d01610af0565b909650945060808b013591508082111561081157600080fd5b60008060008060008060a08789031215610be857600080fd5b610bf187610729565b9550610bff60208801610729565b94506040870135935060608701359250608087013567ffffffffffffffff811115610c2957600080fd5b610c3589828a01610745565b979a9699509497509295939492505050565b8051801515811461074057600080fd5b600060208284031215610c6957600080fd5b6104c782610c47565b600060208284031215610c8457600080fd5b5051919050565b634e487b7160e01b600052602160045260246000fd5b6001600160a01b0386168152602081018590526080604082018190528101839052828460a0830137600060a08483010152600060a0601f19601f860116830101905060028310610d0157634e487b7160e01b600052602160045260246000fd5b8260608301529695505050505050565b60008060408385031215610d2457600080fd5b610d2d83610c47565b9150602083015167ffffffffffffffff811115610d4957600080fd5b8301601f81018513610d5a57600080fd5b8051610d6861095982610912565b818152866020838501011115610d7d57600080fd5b610d8e826020830160208601610a99565b809350505050925092905056fea2646970667358221220d330ef2587aa3d0dc65793862dc3527963f70eb89732d5bf11061736b480774a64736f6c63430008110033",
  "linkReferences": {},
  "deployedLinkReferences": {}
}