{
  "_format": "hh-sol-artifact-1",
  "contractName": "Vesting",
  "sourceName": "contracts/Vesting.sol",
  "abi": [
    {
      "anonymous": false,
      "inputs": [
        {
          "indexed": false,
          "internalType": "uint256",
          "name": "startTime",
          "type": "uint256"
        },
        {
          "indexed": false,
          "internalType": "uint256",
          "name": "vestingPeriod",
          "type": "uint256"
        }
      ],
      "name": "NewStakeholder",
      "type": "event"
    },
    {
      "anonymous": false,
      "inputs": [
        {
          "indexed": false,
          "internalType": "uint256",
          "name": "time",
          "type": "uint256"
        },
        {
          "indexed": false,
          "internalType": "address",
          "name": "stakeholder",
          "type": "address"
        }
      ],
      "name": "Whitelisted",
      "type": "event"
    },
    {
      "inputs": [
        {
          "internalType": "uint256",
          "name": "_amount",
          "type": "uint256"
        }
      ],
      "name": "claimToken",
      "outputs": [],
      "stateMutability": "nonpayable",
      "type": "function"
    },
    {
      "inputs": [
        {
          "internalType": "address",
          "name": "_orgAddress",
          "type": "address"
        },
        {
          "internalType": "string",
          "name": "_tokenName",
          "type": "string"
        },
        {
          "internalType": "string",
          "name": "_tokenSymbol",
          "type": "string"
        },
        {
          "internalType": "uint256",
          "name": "_tokenAmount",
          "type": "uint256"
        }
      ],
      "name": "createOrganization",
      "outputs": [],
      "stateMutability": "nonpayable",
      "type": "function"
    },
    {
      "inputs": [
        {
          "internalType": "address",
          "name": "_userAddress",
          "type": "address"
        },
        {
          "internalType": "string",
          "name": "_role",
          "type": "string"
        },
        {
          "internalType": "uint256",
          "name": "_vestingPeriod",
          "type": "uint256"
        },
        {
          "internalType": "uint256",
          "name": "_tokenAmount",
          "type": "uint256"
        }
      ],
      "name": "newStakeholder",
      "outputs": [],
      "stateMutability": "nonpayable",
      "type": "function"
    },
    {
      "inputs": [
        {
          "internalType": "address",
          "name": "",
          "type": "address"
        }
      ],
      "name": "organizations",
      "outputs": [
        {
          "internalType": "address",
          "name": "orgAddress",
          "type": "address"
        },
        {
          "internalType": "string",
          "name": "tokenName",
          "type": "string"
        },
        {
          "internalType": "string",
          "name": "tokenSymbol",
          "type": "string"
        },
        {
          "internalType": "uint256",
          "name": "tokenAmount",
          "type": "uint256"
        },
        {
          "internalType": "uint256",
          "name": "totalSupply",
          "type": "uint256"
        }
      ],
      "stateMutability": "view",
      "type": "function"
    },
    {
      "inputs": [
        {
          "internalType": "address",
          "name": "",
          "type": "address"
        }
      ],
      "name": "stakeholders",
      "outputs": [
        {
          "internalType": "address",
          "name": "userAddress",
          "type": "address"
        },
        {
          "internalType": "string",
          "name": "role",
          "type": "string"
        },
        {
          "internalType": "uint256",
          "name": "vestingPeriod",
          "type": "uint256"
        },
        {
          "internalType": "uint256",
          "name": "startTime",
          "type": "uint256"
        },
        {
          "internalType": "uint256",
          "name": "tokenAmount",
          "type": "uint256"
        },
        {
          "internalType": "uint256",
          "name": "claimedToken",
          "type": "uint256"
        }
      ],
      "stateMutability": "view",
      "type": "function"
    },
    {
      "inputs": [
        {
          "internalType": "address",
          "name": "_stakeholder",
          "type": "address"
        }
      ],
      "name": "whitelistAddress",
      "outputs": [],
      "stateMutability": "nonpayable",
      "type": "function"
    },
    {
      "inputs": [
        {
          "internalType": "address",
          "name": "",
          "type": "address"
        }
      ],
      "name": "whitelistedAddresses",
      "outputs": [
        {
          "internalType": "bool",
          "name": "",
          "type": "bool"
        }
      ],
      "stateMutability": "view",
      "type": "function"
    }
  ],
  "bytecode": "0x608060405234801561001057600080fd5b50610d05806100206000396000f3fe608060405234801561001057600080fd5b506004361061007d5760003560e01c80634c0be4491161005b5780634c0be449146100e25780635a1f7406146100f5578063a9e7c2e514610119578063c07cfca91461012c57600080fd5b806306c933d81461008257806341566585146100ba578063436c91df146100cf575b600080fd5b6100a56100903660046108b2565b60016020526000908152604090205460ff1681565b60405190151581526020015b60405180910390f35b6100cd6100c83660046108b2565b610151565b005b6100cd6100dd366004610977565b61022c565b6100cd6100f03660046109f3565b6102c9565b6101086101033660046108b2565b6104d1565b6040516100b1959493929190610a97565b6100cd610127366004610ae2565b61061a565b61013f61013a3660046108b2565b6107cf565b6040516100b196959493929190610afb565b336000818152600260205260409020546001600160a01b0316146101ca5760405162461bcd60e51b815260206004820152602560248201527f4f6e6c79206f7267616e697a6174696f6e206f776e65722063616e2077686974604482015264195b1a5cdd60da1b60648201526084015b60405180910390fd5b6001600160a01b038116600081815260016020818152604092839020805460ff19169092179091558151428152908101929092527f2279719af4080e08a5a2b25c8234a83b76079141524127d1096409ac07fa5d0f910160405180910390a150565b6040805160a0810182526001600160a01b038681168083526020808401888152848601889052606085018790526000608086018190529283526002909152939020825181546001600160a01b0319169216919091178155915190919060018201906102979082610bcd565b50604082015160028201906102ac9082610bcd565b506060820151600382015560809091015160049091015550505050565b336000818152600260205260409020546001600160a01b03161461031e5760405162461bcd60e51b815260206004820152600c60248201526b155b985d5d1a1bdc9a5e995960a21b60448201526064016101c1565b336000908152600260205260409020600301548111156103925760405162461bcd60e51b815260206004820152602960248201527f546f6b656e20616d6f756e742065786365656473206f7267616e697a6174696f6044820152686e2062616c616e636560b81b60648201526084016101c1565b6040805160c0810182526001600160a01b03868116808352602080840188815284860188905242606086015260808501879052600060a0860181905292835290829052939020825181546001600160a01b0319169216919091178155915190919060018201906104029082610bcd565b5060408201518160020155606082015181600301556080820151816004015560a082015181600501559050508060026000336001600160a01b03166001600160a01b0316815260200190815260200160002060030160008282546104669190610ca3565b9091555050336000908152600260205260408120600401805483929061048d908490610cbc565b909155505060408051428152602081018490527f6b14c643c7a21d055dece27d5b28b6c529fdf91f89c8a4d6feabd94cc9926768910160405180910390a150505050565b600260205260009081526040902080546001820180546001600160a01b0390921692916104fd90610b44565b80601f016020809104026020016040519081016040528092919081815260200182805461052990610b44565b80156105765780601f1061054b57610100808354040283529160200191610576565b820191906000526020600020905b81548152906001019060200180831161055957829003601f168201915b50505050509080600201805461058b90610b44565b80601f01602080910402602001604051908101604052809291908181526020018280546105b790610b44565b80156106045780601f106105d957610100808354040283529160200191610604565b820191906000526020600020905b8154815290600101906020018083116105e757829003601f168201915b5050505050908060030154908060040154905085565b3360009081526001602052604090205460ff166106725760405162461bcd60e51b8152602060048201526016602482015275165bdd49dc99481b9bdd081dda1a5d195b1a5cdd195960521b60448201526064016101c1565b3360008181526020818152604080832060029092529091205490916001600160a01b0390911614806106ad575080546001600160a01b031633145b6106ea5760405162461bcd60e51b815260206004820152600e60248201526d139bdd08185d5d1a1bdc9a5e995960921b60448201526064016101c1565b806002015481600301546106fe9190610cbc565b42101561074d5760405162461bcd60e51b815260206004820152601b60248201527f56657374696e6720706572696f64206e6f74206f76657220796574000000000060448201526064016101c1565b60008160040154116107975760405162461bcd60e51b81526020600482015260136024820152724e6f20636c61696d61626c6520746f6b656e7360681b60448201526064016101c1565b818160040160008282546107ab9190610ca3565b92505081905550818160050160008282546107c69190610cbc565b90915550505050565b600060208190529081526040902080546001820180546001600160a01b0390921692916107fb90610b44565b80601f016020809104026020016040519081016040528092919081815260200182805461082790610b44565b80156108745780601f1061084957610100808354040283529160200191610874565b820191906000526020600020905b81548152906001019060200180831161085757829003601f168201915b5050505050908060020154908060030154908060040154908060050154905086565b80356001600160a01b03811681146108ad57600080fd5b919050565b6000602082840312156108c457600080fd5b6108cd82610896565b9392505050565b634e487b7160e01b600052604160045260246000fd5b600082601f8301126108fb57600080fd5b813567ffffffffffffffff80821115610916576109166108d4565b604051601f8301601f19908116603f0116810190828211818310171561093e5761093e6108d4565b8160405283815286602085880101111561095757600080fd5b836020870160208301376000602085830101528094505050505092915050565b6000806000806080858703121561098d57600080fd5b61099685610896565b9350602085013567ffffffffffffffff808211156109b357600080fd5b6109bf888389016108ea565b945060408701359150808211156109d557600080fd5b506109e2878288016108ea565b949793965093946060013593505050565b60008060008060808587031215610a0957600080fd5b610a1285610896565b9350602085013567ffffffffffffffff811115610a2e57600080fd5b610a3a878288016108ea565b949794965050505060408301359260600135919050565b6000815180845260005b81811015610a7757602081850181015186830182015201610a5b565b506000602082860101526020601f19601f83011685010191505092915050565b6001600160a01b038616815260a060208201819052600090610abb90830187610a51565b8281036040840152610acd8187610a51565b60608401959095525050608001529392505050565b600060208284031215610af457600080fd5b5035919050565b6001600160a01b038716815260c060208201819052600090610b1f90830188610a51565b90508560408301528460608301528360808301528260a0830152979650505050505050565b600181811c90821680610b5857607f821691505b602082108103610b7857634e487b7160e01b600052602260045260246000fd5b50919050565b601f821115610bc857600081815260208120601f850160051c81016020861015610ba55750805b601f850160051c820191505b81811015610bc457828155600101610bb1565b5050505b505050565b815167ffffffffffffffff811115610be757610be76108d4565b610bfb81610bf58454610b44565b84610b7e565b602080601f831160018114610c305760008415610c185750858301515b600019600386901b1c1916600185901b178555610bc4565b600085815260208120601f198616915b82811015610c5f57888601518255948401946001909101908401610c40565b5085821015610c7d5787850151600019600388901b60f8161c191681555b5050505050600190811b01905550565b634e487b7160e01b600052601160045260246000fd5b81810381811115610cb657610cb6610c8d565b92915050565b80820180821115610cb657610cb6610c8d56fea264697066735822122024715bbad4e78fc2a4e7047a8431c78b0b4432b4013b593db38389a682cd6c5764736f6c63430008110033",
  "linkReferences": {},
  "deployedLinkReferences": {}
}