{
  "_format": "hh-sol-artifact-1",
  "contractName": "TestOracle",
  "sourceName": "contracts/test/TestOracle.sol",
  "abi": [
    {
      "inputs": [
        {
          "internalType": "uint256",
          "name": "ethOutput",
          "type": "uint256"
        }
      ],
      "name": "getTokenValueOfEth",
      "outputs": [
        {
          "internalType": "uint256",
          "name": "tokenInput",
          "type": "uint256"
        }
      ],
      "stateMutability": "pure",
      "type": "function"
    }
  ],
  "bytecode": "0x608060405234801561001057600080fd5b5060d18061001f6000396000f3fe6080604052348015600f57600080fd5b506004361060285760003560e01c8063d1eca9cf14602d575b600080fd5b603c6038366004605f565b604e565b60405190815260200160405180910390f35b600060598260026077565b92915050565b600060208284031215607057600080fd5b5035919050565b8082028115828204841417605957634e487b7160e01b600052601160045260246000fdfea264697066735822122070c9c9392c66a9fc75f651638e1f7ac63f62efcb370181493aa62febab9d757264736f6c63430008110033",
  "linkReferences": {},
  "deployedLinkReferences": {}
}