{
  "_format": "hh-sol-artifact-1",
  "contractName": "TestExpiryAccount",
  "sourceName": "contracts/test/TestExpiryAccount.sol",
  "abi": [
    {
      "inputs": [
        {
          "internalType": "contract IEntryPoint",
          "name": "anEntryPoint",
          "type": "address"
        }
      ],
      "stateMutability": "nonpayable",
      "type": "constructor"
    },
    {
      "anonymous": false,
      "inputs": [
        {
          "indexed": false,
          "internalType": "address",
          "name": "previousAdmin",
          "type": "address"
        },
        {
          "indexed": false,
          "internalType": "address",
          "name": "newAdmin",
          "type": "address"
        }
      ],
      "name": "AdminChanged",
      "type": "event"
    },
    {
      "anonymous": false,
      "inputs": [
        {
          "indexed": true,
          "internalType": "address",
          "name": "beacon",
          "type": "address"
        }
      ],
      "name": "BeaconUpgraded",
      "type": "event"
    },
    {
      "anonymous": false,
      "inputs": [
        {
          "indexed": false,
          "internalType": "uint8",
          "name": "version",
          "type": "uint8"
        }
      ],
      "name": "Initialized",
      "type": "event"
    },
    {
      "anonymous": false,
      "inputs": [
        {
          "indexed": true,
          "internalType": "contract IEntryPoint",
          "name": "entryPoint",
          "type": "address"
        },
        {
          "indexed": true,
          "internalType": "address",
          "name": "owner",
          "type": "address"
        }
      ],
      "name": "SimpleAccountInitialized",
      "type": "event"
    },
    {
      "anonymous": false,
      "inputs": [
        {
          "indexed": true,
          "internalType": "address",
          "name": "implementation",
          "type": "address"
        }
      ],
      "name": "Upgraded",
      "type": "event"
    },
    {
      "inputs": [],
      "name": "addDeposit",
      "outputs": [],
      "stateMutability": "payable",
      "type": "function"
    },
    {
      "inputs": [
        {
          "internalType": "address",
          "name": "owner",
          "type": "address"
        },
        {
          "internalType": "uint48",
          "name": "_after",
          "type": "uint48"
        },
        {
          "internalType": "uint48",
          "name": "_until",
          "type": "uint48"
        }
      ],
      "name": "addTemporaryOwner",
      "outputs": [],
      "stateMutability": "nonpayable",
      "type": "function"
    },
    {
      "inputs": [],
      "name": "entryPoint",
      "outputs": [
        {
          "internalType": "contract IEntryPoint",
          "name": "",
          "type": "address"
        }
      ],
      "stateMutability": "view",
      "type": "function"
    },
    {
      "inputs": [
        {
          "internalType": "address",
          "name": "dest",
          "type": "address"
        },
        {
          "internalType": "uint256",
          "name": "value",
          "type": "uint256"
        },
        {
          "internalType": "bytes",
          "name": "func",
          "type": "bytes"
        }
      ],
      "name": "execute",
      "outputs": [],
      "stateMutability": "nonpayable",
      "type": "function"
    },
    {
      "inputs": [
        {
          "internalType": "address[]",
          "name": "dest",
          "type": "address[]"
        },
        {
          "internalType": "bytes[]",
          "name": "func",
          "type": "bytes[]"
        }
      ],
      "name": "executeBatch",
      "outputs": [],
      "stateMutability": "nonpayable",
      "type": "function"
    },
    {
      "inputs": [],
      "name": "getDeposit",
      "outputs": [
        {
          "internalType": "uint256",
          "name": "",
          "type": "uint256"
        }
      ],
      "stateMutability": "view",
      "type": "function"
    },
    {
      "inputs": [],
      "name": "getNonce",
      "outputs": [
        {
          "internalType": "uint256",
          "name": "",
          "type": "uint256"
        }
      ],
      "stateMutability": "view",
      "type": "function"
    },
    {
      "inputs": [
        {
          "internalType": "address",
          "name": "anOwner",
          "type": "address"
        }
      ],
      "name": "initialize",
      "outputs": [],
      "stateMutability": "nonpayable",
      "type": "function"
    },
    {
      "inputs": [
        {
          "internalType": "address",
          "name": "",
          "type": "address"
        },
        {
          "internalType": "address",
          "name": "",
          "type": "address"
        },
        {
          "internalType": "uint256[]",
          "name": "",
          "type": "uint256[]"
        },
        {
          "internalType": "uint256[]",
          "name": "",
          "type": "uint256[]"
        },
        {
          "internalType": "bytes",
          "name": "",
          "type": "bytes"
        }
      ],
      "name": "onERC1155BatchReceived",
      "outputs": [
        {
          "internalType": "bytes4",
          "name": "",
          "type": "bytes4"
        }
      ],
      "stateMutability": "pure",
      "type": "function"
    },
    {
      "inputs": [
        {
          "internalType": "address",
          "name": "",
          "type": "address"
        },
        {
          "internalType": "address",
          "name": "",
          "type": "address"
        },
        {
          "internalType": "uint256",
          "name": "",
          "type": "uint256"
        },
        {
          "internalType": "uint256",
          "name": "",
          "type": "uint256"
        },
        {
          "internalType": "bytes",
          "name": "",
          "type": "bytes"
        }
      ],
      "name": "onERC1155Received",
      "outputs": [
        {
          "internalType": "bytes4",
          "name": "",
          "type": "bytes4"
        }
      ],
      "stateMutability": "pure",
      "type": "function"
    },
    {
      "inputs": [
        {
          "internalType": "address",
          "name": "",
          "type": "address"
        },
        {
          "internalType": "address",
          "name": "",
          "type": "address"
        },
        {
          "internalType": "uint256",
          "name": "",
          "type": "uint256"
        },
        {
          "internalType": "bytes",
          "name": "",
          "type": "bytes"
        }
      ],
      "name": "onERC721Received",
      "outputs": [
        {
          "internalType": "bytes4",
          "name": "",
          "type": "bytes4"
        }
      ],
      "stateMutability": "pure",
      "type": "function"
    },
    {
      "inputs": [],
      "name": "owner",
      "outputs": [
        {
          "internalType": "address",
          "name": "",
          "type": "address"
        }
      ],
      "stateMutability": "view",
      "type": "function"
    },
    {
      "inputs": [
        {
          "internalType": "address",
          "name": "",
          "type": "address"
        }
      ],
      "name": "ownerAfter",
      "outputs": [
        {
          "internalType": "uint48",
          "name": "",
          "type": "uint48"
        }
      ],
      "stateMutability": "view",
      "type": "function"
    },
    {
      "inputs": [
        {
          "internalType": "address",
          "name": "",
          "type": "address"
        }
      ],
      "name": "ownerUntil",
      "outputs": [
        {
          "internalType": "uint48",
          "name": "",
          "type": "uint48"
        }
      ],
      "stateMutability": "view",
      "type": "function"
    },
    {
      "inputs": [],
      "name": "proxiableUUID",
      "outputs": [
        {
          "internalType": "bytes32",
          "name": "",
          "type": "bytes32"
        }
      ],
      "stateMutability": "view",
      "type": "function"
    },
    {
      "inputs": [
        {
          "internalType": "bytes4",
          "name": "interfaceId",
          "type": "bytes4"
        }
      ],
      "name": "supportsInterface",
      "outputs": [
        {
          "internalType": "bool",
          "name": "",
          "type": "bool"
        }
      ],
      "stateMutability": "view",
      "type": "function"
    },
    {
      "inputs": [
        {
          "internalType": "address",
          "name": "",
          "type": "address"
        },
        {
          "internalType": "address",
          "name": "",
          "type": "address"
        },
        {
          "internalType": "address",
          "name": "",
          "type": "address"
        },
        {
          "internalType": "uint256",
          "name": "",
          "type": "uint256"
        },
        {
          "internalType": "bytes",
          "name": "",
          "type": "bytes"
        },
        {
          "internalType": "bytes",
          "name": "",
          "type": "bytes"
        }
      ],
      "name": "tokensReceived",
      "outputs": [],
      "stateMutability": "pure",
      "type": "function"
    },
    {
      "inputs": [
        {
          "internalType": "address",
          "name": "newImplementation",
          "type": "address"
        }
      ],
      "name": "upgradeTo",
      "outputs": [],
      "stateMutability": "nonpayable",
      "type": "function"
    },
    {
      "inputs": [
        {
          "internalType": "address",
          "name": "newImplementation",
          "type": "address"
        },
        {
          "internalType": "bytes",
          "name": "data",
          "type": "bytes"
        }
      ],
      "name": "upgradeToAndCall",
      "outputs": [],
      "stateMutability": "payable",
      "type": "function"
    },
    {
      "inputs": [
        {
          "components": [
            {
              "internalType": "address",
              "name": "sender",
              "type": "address"
            },
            {
              "internalType": "uint256",
              "name": "nonce",
              "type": "uint256"
            },
            {
              "internalType": "bytes",
              "name": "initCode",
              "type": "bytes"
            },
            {
              "internalType": "bytes",
              "name": "callData",
              "type": "bytes"
            },
            {
              "internalType": "uint256",
              "name": "callGasLimit",
              "type": "uint256"
            },
            {
              "internalType": "uint256",
              "name": "verificationGasLimit",
              "type": "uint256"
            },
            {
              "internalType": "uint256",
              "name": "preVerificationGas",
              "type": "uint256"
            },
            {
              "internalType": "uint256",
              "name": "maxFeePerGas",
              "type": "uint256"
            },
            {
              "internalType": "uint256",
              "name": "maxPriorityFeePerGas",
              "type": "uint256"
            },
            {
              "internalType": "bytes",
              "name": "paymasterAndData",
              "type": "bytes"
            },
            {
              "internalType": "bytes",
              "name": "signature",
              "type": "bytes"
            }
          ],
          "internalType": "struct UserOperation",
          "name": "userOp",
          "type": "tuple"
        },
        {
          "internalType": "bytes32",
          "name": "userOpHash",
          "type": "bytes32"
        },
        {
          "internalType": "uint256",
          "name": "missingAccountFunds",
          "type": "uint256"
        }
      ],
      "name": "validateUserOp",
      "outputs": [
        {
          "internalType": "uint256",
          "name": "validationData",
          "type": "uint256"
        }
      ],
      "stateMutability": "nonpayable",
      "type": "function"
    },
    {
      "inputs": [
        {
          "internalType": "address payable",
          "name": "withdrawAddress",
          "type": "address"
        },
        {
          "internalType": "uint256",
          "name": "amount",
          "type": "uint256"
        }
      ],
      "name": "withdrawDepositTo",
      "outputs": [],
      "stateMutability": "nonpayable",
      "type": "function"
    },
    {
      "stateMutability": "payable",
      "type": "receive"
    }
  ],
  "bytecode": "0x60c06040523060805234801561001457600080fd5b50604051611ee7380380611ee783398101604081905261003391610044565b6001600160a01b031660a052610074565b60006020828403121561005657600080fd5b81516001600160a01b038116811461006d57600080fd5b9392505050565b60805160a051611e016100e660003960008181610366015281816106c90152818161074a015281816109c301528181610c2701528181610c6101528181610ede01526110ee0152600081816105cc0152818161060c015281816107db0152818161081b01526108ae0152611e016000f3fe60806040526004361061012d5760003560e01c80634f1ef286116100ab578063bc197c811161006f578063bc197c81146103aa578063c399ec88146103d9578063c4d66de8146103ee578063cf6dca551461040e578063d087d2881461042e578063f23a6e611461044357600080fd5b80634f1ef286146102f157806352d1902d146103045780638da5cb5b14610319578063b0d691fe14610357578063b61d27f61461038a57600080fd5b80633a871cdd116100f25780633a871cdd1461021a5780633e476951146102485780633fb5a7a1146102945780634a58db19146102c95780634d44560d146102d157600080fd5b806223de291461013957806301ffc9a714610160578063150b7a021461019557806318dfb3c7146101da5780633659cfe6146101fa57600080fd5b3661013457005b600080fd5b34801561014557600080fd5b5061015e610154366004611686565b5050505050505050565b005b34801561016c57600080fd5b5061018061017b366004611737565b610470565b60405190151581526020015b60405180910390f35b3480156101a157600080fd5b506101c16101b0366004611761565b630a85bd0160e11b95945050505050565b6040516001600160e01b0319909116815260200161018c565b3480156101e657600080fd5b5061015e6101f5366004611819565b6104c2565b34801561020657600080fd5b5061015e610215366004611885565b6105c2565b34801561022657600080fd5b5061023a6102353660046118a2565b6106a1565b60405190815260200161018c565b34801561025457600080fd5b5061027d610263366004611885565b60026020526000908152604090205465ffffffffffff1681565b60405165ffffffffffff909116815260200161018c565b3480156102a057600080fd5b5061027d6102af366004611885565b60016020526000908152604090205465ffffffffffff1681565b61015e6106c7565b3480156102dd57600080fd5b5061015e6102ec3660046118f6565b610740565b61015e6102ff366004611938565b6107d1565b34801561031057600080fd5b5061023a6108a1565b34801561032557600080fd5b5060005461033f906201000090046001600160a01b031681565b6040516001600160a01b03909116815260200161018c565b34801561036357600080fd5b507f000000000000000000000000000000000000000000000000000000000000000061033f565b34801561039657600080fd5b5061015e6103a53660046119fc565b610954565b3480156103b657600080fd5b506101c16103c5366004611a4c565b63bc197c8160e01b98975050505050505050565b3480156103e557600080fd5b5061023a6109a3565b3480156103fa57600080fd5b5061015e610409366004611885565b610a34565b34801561041a57600080fd5b5061015e610429366004611b05565b610b58565b34801561043a57600080fd5b5061023a610c00565b34801561044f57600080fd5b506101c161045e366004611b4a565b63f23a6e6160e01b9695505050505050565b60006001600160e01b03198216630a85bd0160e11b14806104a157506001600160e01b03198216630271189760e51b145b806104bc57506001600160e01b031982166301ffc9a760e01b145b92915050565b6104ca610c56565b8281146105145760405162461bcd60e51b815260206004820152601360248201527277726f6e67206172726179206c656e6774687360681b60448201526064015b60405180910390fd5b60005b838110156105bb576105a985858381811061053457610534611bc6565b90506020020160208101906105499190611885565b600085858581811061055d5761055d611bc6565b905060200281019061056f9190611bdc565b8080601f016020809104026020016040519081016040528093929190818152602001838380828437600092019190915250610ceb92505050565b806105b381611c23565b915050610517565b5050505050565b6001600160a01b037f000000000000000000000000000000000000000000000000000000000000000016300361060a5760405162461bcd60e51b815260040161050b90611c4a565b7f00000000000000000000000000000000000000000000000000000000000000006001600160a01b0316610653600080516020611d85833981519152546001600160a01b031690565b6001600160a01b0316146106795760405162461bcd60e51b815260040161050b90611c96565b61068281610d5b565b6040805160008082526020820190925261069e91839190610d63565b50565b60006106ab610ed3565b6106b58484610f4b565b90506106c082611017565b9392505050565b7f000000000000000000000000000000000000000000000000000000000000000060405163b760faf960e01b81523060048201526001600160a01b03919091169063b760faf99034906024016000604051808303818588803b15801561072c57600080fd5b505af11580156105bb573d6000803e3d6000fd5b610748611064565b7f000000000000000000000000000000000000000000000000000000000000000060405163040b850f60e31b81526001600160a01b03848116600483015260248201849052919091169063205c287890604401600060405180830381600087803b1580156107b557600080fd5b505af11580156107c9573d6000803e3d6000fd5b505050505050565b6001600160a01b037f00000000000000000000000000000000000000000000000000000000000000001630036108195760405162461bcd60e51b815260040161050b90611c4a565b7f00000000000000000000000000000000000000000000000000000000000000006001600160a01b0316610862600080516020611d85833981519152546001600160a01b031690565b6001600160a01b0316146108885760405162461bcd60e51b815260040161050b90611c96565b61089182610d5b565b61089d82826001610d63565b5050565b6000306001600160a01b037f000000000000000000000000000000000000000000000000000000000000000016146109415760405162461bcd60e51b815260206004820152603860248201527f555550535570677261646561626c653a206d757374206e6f742062652063616c60448201527f6c6564207468726f7567682064656c656761746563616c6c0000000000000000606482015260840161050b565b50600080516020611d8583398151915290565b61095c610c56565b61099d848484848080601f016020809104026020016040519081016040528093929190818152602001838380828437600092019190915250610ceb92505050565b50505050565b6040516370a0823160e01b81523060048201526000906001600160a01b037f000000000000000000000000000000000000000000000000000000000000000016906370a08231906024015b602060405180830381865afa158015610a0b573d6000803e3d6000fd5b505050506040513d601f19601f82011682018060405250810190610a2f9190611ce2565b905090565b600054610100900460ff1615808015610a545750600054600160ff909116105b80610a6e5750303b158015610a6e575060005460ff166001145b610ad15760405162461bcd60e51b815260206004820152602e60248201527f496e697469616c697a61626c653a20636f6e747261637420697320616c72656160448201526d191e481a5b9a5d1a585b1a5e995960921b606482015260840161050b565b6000805460ff191660011790558015610af4576000805461ff0019166101001790555b610afd826110bb565b610b0f82600065ffffffffffff610b58565b801561089d576000805461ff0019169055604051600181527f7f26b83ff96e1f2b6a682f133852f6798a09c465da95921460cefb38474024989060200160405180910390a15050565b610b60611064565b8165ffffffffffff168165ffffffffffff1611610bb35760405162461bcd60e51b81526020600482015260116024820152703bb937b733903ab73a34b617b0b33a32b960791b604482015260640161050b565b6001600160a01b03929092166000908152600160209081526040808320805465ffffffffffff95861665ffffffffffff199182161790915560029092529091208054929093169116179055565b604051631aab3f0d60e11b8152306004820152600060248201819052906001600160a01b037f000000000000000000000000000000000000000000000000000000000000000016906335567e1a906044016109ee565b336001600160a01b037f0000000000000000000000000000000000000000000000000000000000000000161480610c9d57506000546201000090046001600160a01b031633145b610ce95760405162461bcd60e51b815260206004820181905260248201527f6163636f756e743a206e6f74204f776e6572206f7220456e747279506f696e74604482015260640161050b565b565b600080846001600160a01b03168484604051610d079190611d1f565b60006040518083038185875af1925050503d8060008114610d44576040519150601f19603f3d011682016040523d82523d6000602084013e610d49565b606091505b5091509150816105bb57805160208201fd5b61069e611064565b7f4910fdfa16fed3260ed0e7147f7cc6da11a60208b5b9406d12a635614ffd91435460ff1615610d9b57610d9683611137565b505050565b826001600160a01b03166352d1902d6040518163ffffffff1660e01b8152600401602060405180830381865afa925050508015610df5575060408051601f3d908101601f19168201909252610df291810190611ce2565b60015b610e585760405162461bcd60e51b815260206004820152602e60248201527f45524331393637557067726164653a206e657720696d706c656d656e7461746960448201526d6f6e206973206e6f74205555505360901b606482015260840161050b565b600080516020611d858339815191528114610ec75760405162461bcd60e51b815260206004820152602960248201527f45524331393637557067726164653a20756e737570706f727465642070726f786044820152681a58589b195555525160ba1b606482015260840161050b565b50610d968383836111d3565b336001600160a01b037f00000000000000000000000000000000000000000000000000000000000000001614610ce95760405162461bcd60e51b815260206004820152601c60248201527f6163636f756e743a206e6f742066726f6d20456e747279506f696e7400000000604482015260640161050b565b7f19457468657265756d205369676e6564204d6573736167653a0a3332000000006000908152601c829052603c81206000610fca610f8d610140870187611bdc565b8080601f01602080910402602001604051908101604052809392919081815260200183838082843760009201919091525086939250506111f89050565b6001600160a01b03811660009081526002602090815260408083205460019092529091205491925065ffffffffffff9081169116811561100b81848461121c565b98975050505050505050565b801561069e57604051600090339060001990849084818181858888f193505050503d80600081146105bb576040519150601f19603f3d011682016040523d82523d6000602084013e6105bb565b6000546201000090046001600160a01b031633148061108257503330145b610ce95760405162461bcd60e51b815260206004820152600a60248201526937b7363c9037bbb732b960b11b604482015260640161050b565b6000805462010000600160b01b031916620100006001600160a01b038481168202929092178084556040519190048216927f0000000000000000000000000000000000000000000000000000000000000000909216917f47e55c76e7a6f1fd8996a1da8008c1ea29699cca35e7bcd057f2dec313b6e5de91a350565b6001600160a01b0381163b6111a45760405162461bcd60e51b815260206004820152602d60248201527f455243313936373a206e657720696d706c656d656e746174696f6e206973206e60448201526c1bdd08184818dbdb9d1c9858dd609a1b606482015260840161050b565b600080516020611d8583398151915280546001600160a01b0319166001600160a01b0392909216919091179055565b6111dc83611254565b6000825111806111e95750805b15610d965761099d8383611294565b600080600061120785856112b9565b91509150611214816112fe565b509392505050565b600060d08265ffffffffffff16901b60a08465ffffffffffff16901b85611244576000611247565b60015b60ff161717949350505050565b61125d81611137565b6040516001600160a01b038216907fbc7cd75a20ee27fd9adebab32041f755214dbc6bffa90cc0225b39da2e5c2d3b90600090a250565b60606106c08383604051806060016040528060278152602001611da560279139611448565b60008082516041036112ef5760208301516040840151606085015160001a6112e3878285856114c0565b945094505050506112f7565b506000905060025b9250929050565b600081600481111561131257611312611d3b565b0361131a5750565b600181600481111561132e5761132e611d3b565b0361137b5760405162461bcd60e51b815260206004820152601860248201527f45434453413a20696e76616c6964207369676e61747572650000000000000000604482015260640161050b565b600281600481111561138f5761138f611d3b565b036113dc5760405162461bcd60e51b815260206004820152601f60248201527f45434453413a20696e76616c6964207369676e6174757265206c656e67746800604482015260640161050b565b60038160048111156113f0576113f0611d3b565b0361069e5760405162461bcd60e51b815260206004820152602260248201527f45434453413a20696e76616c6964207369676e6174757265202773272076616c604482015261756560f01b606482015260840161050b565b6060600080856001600160a01b0316856040516114659190611d1f565b600060405180830381855af49150503d80600081146114a0576040519150601f19603f3d011682016040523d82523d6000602084013e6114a5565b606091505b50915091506114b686838387611584565b9695505050505050565b6000807f7fffffffffffffffffffffffffffffff5d576e7357a4501ddfe92f46681b20a08311156114f7575060009050600361157b565b6040805160008082526020820180845289905260ff881692820192909252606081018690526080810185905260019060a0016020604051602081039080840390855afa15801561154b573d6000803e3d6000fd5b5050604051601f1901519150506001600160a01b0381166115745760006001925092505061157b565b9150600090505b94509492505050565b606083156115f35782516000036115ec576001600160a01b0385163b6115ec5760405162461bcd60e51b815260206004820152601d60248201527f416464726573733a2063616c6c20746f206e6f6e2d636f6e7472616374000000604482015260640161050b565b50816115fd565b6115fd8383611605565b949350505050565b8151156116155781518083602001fd5b8060405162461bcd60e51b815260040161050b9190611d51565b6001600160a01b038116811461069e57600080fd5b60008083601f84011261165657600080fd5b50813567ffffffffffffffff81111561166e57600080fd5b6020830191508360208285010111156112f757600080fd5b60008060008060008060008060c0898b0312156116a257600080fd5b88356116ad8161162f565b975060208901356116bd8161162f565b965060408901356116cd8161162f565b955060608901359450608089013567ffffffffffffffff808211156116f157600080fd5b6116fd8c838d01611644565b909650945060a08b013591508082111561171657600080fd5b506117238b828c01611644565b999c989b5096995094979396929594505050565b60006020828403121561174957600080fd5b81356001600160e01b0319811681146106c057600080fd5b60008060008060006080868803121561177957600080fd5b85356117848161162f565b945060208601356117948161162f565b935060408601359250606086013567ffffffffffffffff8111156117b757600080fd5b6117c388828901611644565b969995985093965092949392505050565b60008083601f8401126117e657600080fd5b50813567ffffffffffffffff8111156117fe57600080fd5b6020830191508360208260051b85010111156112f757600080fd5b6000806000806040858703121561182f57600080fd5b843567ffffffffffffffff8082111561184757600080fd5b611853888389016117d4565b9096509450602087013591508082111561186c57600080fd5b50611879878288016117d4565b95989497509550505050565b60006020828403121561189757600080fd5b81356106c08161162f565b6000806000606084860312156118b757600080fd5b833567ffffffffffffffff8111156118ce57600080fd5b840161016081870312156118e157600080fd5b95602085013595506040909401359392505050565b6000806040838503121561190957600080fd5b82356119148161162f565b946020939093013593505050565b634e487b7160e01b600052604160045260246000fd5b6000806040838503121561194b57600080fd5b82356119568161162f565b9150602083013567ffffffffffffffff8082111561197357600080fd5b818501915085601f83011261198757600080fd5b81358181111561199957611999611922565b604051601f8201601f19908116603f011681019083821181831017156119c1576119c1611922565b816040528281528860208487010111156119da57600080fd5b8260208601602083013760006020848301015280955050505050509250929050565b60008060008060608587031215611a1257600080fd5b8435611a1d8161162f565b935060208501359250604085013567ffffffffffffffff811115611a4057600080fd5b61187987828801611644565b60008060008060008060008060a0898b031215611a6857600080fd5b8835611a738161162f565b97506020890135611a838161162f565b9650604089013567ffffffffffffffff80821115611aa057600080fd5b611aac8c838d016117d4565b909850965060608b0135915080821115611ac557600080fd5b611ad18c838d016117d4565b909650945060808b013591508082111561171657600080fd5b803565ffffffffffff81168114611b0057600080fd5b919050565b600080600060608486031215611b1a57600080fd5b8335611b258161162f565b9250611b3360208501611aea565b9150611b4160408501611aea565b90509250925092565b60008060008060008060a08789031215611b6357600080fd5b8635611b6e8161162f565b95506020870135611b7e8161162f565b94506040870135935060608701359250608087013567ffffffffffffffff811115611ba857600080fd5b611bb489828a01611644565b979a9699509497509295939492505050565b634e487b7160e01b600052603260045260246000fd5b6000808335601e19843603018112611bf357600080fd5b83018035915067ffffffffffffffff821115611c0e57600080fd5b6020019150368190038213156112f757600080fd5b600060018201611c4357634e487b7160e01b600052601160045260246000fd5b5060010190565b6020808252602c908201527f46756e6374696f6e206d7573742062652063616c6c6564207468726f7567682060408201526b19195b1959d85d1958d85b1b60a21b606082015260800190565b6020808252602c908201527f46756e6374696f6e206d7573742062652063616c6c6564207468726f7567682060408201526b6163746976652070726f787960a01b606082015260800190565b600060208284031215611cf457600080fd5b5051919050565b60005b83811015611d16578181015183820152602001611cfe565b50506000910152565b60008251611d31818460208701611cfb565b9190910192915050565b634e487b7160e01b600052602160045260246000fd5b6020815260008251806020840152611d70816040850160208701611cfb565b601f01601f1916919091016040019291505056fe360894a13ba1a3210667c828492db98dca3e2076cc3735a920a3ca505d382bbc416464726573733a206c6f772d6c6576656c2064656c65676174652063616c6c206661696c6564a264697066735822122021183a97899aa09ad674b60430e3ff045f0e5e55e1f7778e9eaf16b82a31574a64736f6c63430008110033",
  "linkReferences": {},
  "deployedLinkReferences": {}
}