{
  "_format": "hh-sol-artifact-1",
  "contractName": "BLSSignatureAggregator",
  "sourceName": "contracts/samples/bls/BLSSignatureAggregator.sol",
  "abi": [
    {
      "inputs": [],
      "name": "BLS_DOMAIN",
      "outputs": [
        {
          "internalType": "bytes32",
          "name": "",
          "type": "bytes32"
        }
      ],
      "stateMutability": "view",
      "type": "function"
    },
    {
      "inputs": [],
      "name": "N",
      "outputs": [
        {
          "internalType": "uint256",
          "name": "",
          "type": "uint256"
        }
      ],
      "stateMutability": "view",
      "type": "function"
    },
    {
      "inputs": [
        {
          "internalType": "contract IEntryPoint",
          "name": "entryPoint",
          "type": "address"
        },
        {
          "internalType": "uint32",
          "name": "delay",
          "type": "uint32"
        }
      ],
      "name": "addStake",
      "outputs": [],
      "stateMutability": "payable",
      "type": "function"
    },
    {
      "inputs": [
        {
          "components": [
            {
              "internalType": "address",
              "name": "sender",
              "type": "address"
            },
            {
              "internalType": "uint256",
              "name": "nonce",
              "type": "uint256"
            },
            {
              "internalType": "bytes",
              "name": "initCode",
              "type": "bytes"
            },
            {
              "internalType": "bytes",
              "name": "callData",
              "type": "bytes"
            },
            {
              "internalType": "uint256",
              "name": "callGasLimit",
              "type": "uint256"
            },
            {
              "internalType": "uint256",
              "name": "verificationGasLimit",
              "type": "uint256"
            },
            {
              "internalType": "uint256",
              "name": "preVerificationGas",
              "type": "uint256"
            },
            {
              "internalType": "uint256",
              "name": "maxFeePerGas",
              "type": "uint256"
            },
            {
              "internalType": "uint256",
              "name": "maxPriorityFeePerGas",
              "type": "uint256"
            },
            {
              "internalType": "bytes",
              "name": "paymasterAndData",
              "type": "bytes"
            },
            {
              "internalType": "bytes",
              "name": "signature",
              "type": "bytes"
            }
          ],
          "internalType": "struct UserOperation[]",
          "name": "userOps",
          "type": "tuple[]"
        }
      ],
      "name": "aggregateSignatures",
      "outputs": [
        {
          "internalType": "bytes",
          "name": "aggregatedSignature",
          "type": "bytes"
        }
      ],
      "stateMutability": "pure",
      "type": "function"
    },
    {
      "inputs": [
        {
          "internalType": "bytes",
          "name": "data",
          "type": "bytes"
        }
      ],
      "name": "getTrailingPublicKey",
      "outputs": [
        {
          "internalType": "uint256[4]",
          "name": "publicKey",
          "type": "uint256[4]"
        }
      ],
      "stateMutability": "pure",
      "type": "function"
    },
    {
      "inputs": [
        {
          "components": [
            {
              "internalType": "address",
              "name": "sender",
              "type": "address"
            },
            {
              "internalType": "uint256",
              "name": "nonce",
              "type": "uint256"
            },
            {
              "internalType": "bytes",
              "name": "initCode",
              "type": "bytes"
            },
            {
              "internalType": "bytes",
              "name": "callData",
              "type": "bytes"
            },
            {
              "internalType": "uint256",
              "name": "callGasLimit",
              "type": "uint256"
            },
            {
              "internalType": "uint256",
              "name": "verificationGasLimit",
              "type": "uint256"
            },
            {
              "internalType": "uint256",
              "name": "preVerificationGas",
              "type": "uint256"
            },
            {
              "internalType": "uint256",
              "name": "maxFeePerGas",
              "type": "uint256"
            },
            {
              "internalType": "uint256",
              "name": "maxPriorityFeePerGas",
              "type": "uint256"
            },
            {
              "internalType": "bytes",
              "name": "paymasterAndData",
              "type": "bytes"
            },
            {
              "internalType": "bytes",
              "name": "signature",
              "type": "bytes"
            }
          ],
          "internalType": "struct UserOperation",
          "name": "userOp",
          "type": "tuple"
        }
      ],
      "name": "getUserOpHash",
      "outputs": [
        {
          "internalType": "bytes32",
          "name": "",
          "type": "bytes32"
        }
      ],
      "stateMutability": "view",
      "type": "function"
    },
    {
      "inputs": [
        {
          "components": [
            {
              "internalType": "address",
              "name": "sender",
              "type": "address"
            },
            {
              "internalType": "uint256",
              "name": "nonce",
              "type": "uint256"
            },
            {
              "internalType": "bytes",
              "name": "initCode",
              "type": "bytes"
            },
            {
              "internalType": "bytes",
              "name": "callData",
              "type": "bytes"
            },
            {
              "internalType": "uint256",
              "name": "callGasLimit",
              "type": "uint256"
            },
            {
              "internalType": "uint256",
              "name": "verificationGasLimit",
              "type": "uint256"
            },
            {
              "internalType": "uint256",
              "name": "preVerificationGas",
              "type": "uint256"
            },
            {
              "internalType": "uint256",
              "name": "maxFeePerGas",
              "type": "uint256"
            },
            {
              "internalType": "uint256",
              "name": "maxPriorityFeePerGas",
              "type": "uint256"
            },
            {
              "internalType": "bytes",
              "name": "paymasterAndData",
              "type": "bytes"
            },
            {
              "internalType": "bytes",
              "name": "signature",
              "type": "bytes"
            }
          ],
          "internalType": "struct UserOperation",
          "name": "userOp",
          "type": "tuple"
        }
      ],
      "name": "getUserOpPublicKey",
      "outputs": [
        {
          "internalType": "uint256[4]",
          "name": "publicKey",
          "type": "uint256[4]"
        }
      ],
      "stateMutability": "view",
      "type": "function"
    },
    {
      "inputs": [
        {
          "components": [
            {
              "internalType": "address",
              "name": "sender",
              "type": "address"
            },
            {
              "internalType": "uint256",
              "name": "nonce",
              "type": "uint256"
            },
            {
              "internalType": "bytes",
              "name": "initCode",
              "type": "bytes"
            },
            {
              "internalType": "bytes",
              "name": "callData",
              "type": "bytes"
            },
            {
              "internalType": "uint256",
              "name": "callGasLimit",
              "type": "uint256"
            },
            {
              "internalType": "uint256",
              "name": "verificationGasLimit",
              "type": "uint256"
            },
            {
              "internalType": "uint256",
              "name": "preVerificationGas",
              "type": "uint256"
            },
            {
              "internalType": "uint256",
              "name": "maxFeePerGas",
              "type": "uint256"
            },
            {
              "internalType": "uint256",
              "name": "maxPriorityFeePerGas",
              "type": "uint256"
            },
            {
              "internalType": "bytes",
              "name": "paymasterAndData",
              "type": "bytes"
            },
            {
              "internalType": "bytes",
              "name": "signature",
              "type": "bytes"
            }
          ],
          "internalType": "struct UserOperation",
          "name": "userOp",
          "type": "tuple"
        }
      ],
      "name": "userOpToMessage",
      "outputs": [
        {
          "internalType": "uint256[2]",
          "name": "",
          "type": "uint256[2]"
        }
      ],
      "stateMutability": "view",
      "type": "function"
    },
    {
      "inputs": [
        {
          "components": [
            {
              "internalType": "address",
              "name": "sender",
              "type": "address"
            },
            {
              "internalType": "uint256",
              "name": "nonce",
              "type": "uint256"
            },
            {
              "internalType": "bytes",
              "name": "initCode",
              "type": "bytes"
            },
            {
              "internalType": "bytes",
              "name": "callData",
              "type": "bytes"
            },
            {
              "internalType": "uint256",
              "name": "callGasLimit",
              "type": "uint256"
            },
            {
              "internalType": "uint256",
              "name": "verificationGasLimit",
              "type": "uint256"
            },
            {
              "internalType": "uint256",
              "name": "preVerificationGas",
              "type": "uint256"
            },
            {
              "internalType": "uint256",
              "name": "maxFeePerGas",
              "type": "uint256"
            },
            {
              "internalType": "uint256",
              "name": "maxPriorityFeePerGas",
              "type": "uint256"
            },
            {
              "internalType": "bytes",
              "name": "paymasterAndData",
              "type": "bytes"
            },
            {
              "internalType": "bytes",
              "name": "signature",
              "type": "bytes"
            }
          ],
          "internalType": "struct UserOperation[]",
          "name": "userOps",
          "type": "tuple[]"
        },
        {
          "internalType": "bytes",
          "name": "signature",
          "type": "bytes"
        }
      ],
      "name": "validateSignatures",
      "outputs": [],
      "stateMutability": "view",
      "type": "function"
    },
    {
      "inputs": [
        {
          "components": [
            {
              "internalType": "address",
              "name": "sender",
              "type": "address"
            },
            {
              "internalType": "uint256",
              "name": "nonce",
              "type": "uint256"
            },
            {
              "internalType": "bytes",
              "name": "initCode",
              "type": "bytes"
            },
            {
              "internalType": "bytes",
              "name": "callData",
              "type": "bytes"
            },
            {
              "internalType": "uint256",
              "name": "callGasLimit",
              "type": "uint256"
            },
            {
              "internalType": "uint256",
              "name": "verificationGasLimit",
              "type": "uint256"
            },
            {
              "internalType": "uint256",
              "name": "preVerificationGas",
              "type": "uint256"
            },
            {
              "internalType": "uint256",
              "name": "maxFeePerGas",
              "type": "uint256"
            },
            {
              "internalType": "uint256",
              "name": "maxPriorityFeePerGas",
              "type": "uint256"
            },
            {
              "internalType": "bytes",
              "name": "paymasterAndData",
              "type": "bytes"
            },
            {
              "internalType": "bytes",
              "name": "signature",
              "type": "bytes"
            }
          ],
          "internalType": "struct UserOperation",
          "name": "userOp",
          "type": "tuple"
        }
      ],
      "name": "validateUserOpSignature",
      "outputs": [
        {
          "internalType": "bytes",
          "name": "sigForUserOp",
          "type": "bytes"
        }
      ],
      "stateMutability": "view",
      "type": "function"
    }
  ],
  "bytecode": "0x608060405234801561001057600080fd5b50611955806100206000396000f3fe6080604052600436106100905760003560e01c806364c530cd1161005957806364c530cd14610178578063a619353114610198578063b7620eb4146101b8578063c9e525df146101d8578063e3563a4f1461020c57600080fd5b80629d925014610095578063275e2d79146100dc5780634086443114610109578063451711591461013657806357f09b721461014b575b600080fd5b3480156100a157600080fd5b506100c97fd84c4373167c517e9ccd66803f86d8a4f49e7e1315a7a73b516affea7428f82b81565b6040519081526020015b60405180910390f35b3480156100e857600080fd5b506100fc6100f73660046110de565b61022c565b6040516100d39190611165565b34801561011557600080fd5b5061012961012436600461139a565b610394565b6040516100d391906113ce565b6101496101443660046113ff565b6103c2565b005b34801561015757600080fd5b5061016b61016636600461139a565b610426565b6040516100d39190611441565b34801561018457600080fd5b506100fc610193366004611469565b6104ba565b3480156101a457600080fd5b506100c96101b336600461139a565b6105e0565b3480156101c457600080fd5b5061016b6101d33660046114a4565b6105fb565b3480156101e457600080fd5b506100c97f30644e72e131a029b85045b68181585d97816a916871ca8d3c208c16d87cfd4781565b34801561021857600080fd5b506101496102273660046114d8565b610678565b60606000826001600160401b0381111561024857610248611178565b60405190808252806020026020018201604052801561028d57816020015b60408051808201909152600080825260208201528152602001906001900390816102665790505b50905060005b815181101561032a576000808686848181106102b1576102b161156e565b90506020028101906102c39190611584565b6102d2906101408101906115a5565b8101906102df91906115eb565b9150915060405180604001604052808381526020018281525084848151811061030a5761030a61156e565b60200260200101819052505050808061032290611623565b915050610293565b506000610357827f30644e72e131a029b85045b68181585d97816a916871ca8d3c208c16d87cfd4761090a565b805160208083015160405193945061037a93909101918252602082015260400190565b604051602081830303815290604052925050505b92915050565b61039c611057565b60006103af6103aa84610426565b6109f5565b90506103bb8382610a25565b9392505050565b604051621cb65b60e51b815263ffffffff821660048201526001600160a01b03831690630396cb609034906024016000604051808303818588803b15801561040957600080fd5b505af115801561041d573d6000803e3d6000fd5b50505050505050565b61042e611075565b604082015180511561044a57610443816105fb565b91506104b4565b82600001516001600160a01b031663e02afbae61c3506040518263ffffffff1660e01b81526004016080604051808303818786fa15801561048f573d6000803e3d6000fd5b50505050506040513d601f19601f820116820180604052508101906103bb919061163c565b50919050565b606060006104cc6101408401846115a5565b8101906104d991906116ae565b905060006104e96101668561170e565b905060006105076104f98661170e565b610502846109f5565b610a25565b60405163ebbdac9160e01b815290915073__$b745eded4b1aee1100521038d570dd85f1$__9063ebbdac919061054590869086908690600401611766565b602060405180830381865af4158015610562573d6000803e3d6000fd5b505050506040513d601f19601f82011682018060405250810190610586919061178f565b6105c85760405162461bcd60e51b815260206004820152600e60248201526d424c533a2077726f6e672073696760901b60448201526064015b60405180910390fd5b50506040805160208101909152600081529392505050565b6000806105ef6103aa84610426565b90506103bb8382610afd565b610603611075565b81516080811161064e5760405162461bcd60e51b81526020600482015260166024820152756461746120746f6f2073686f727420666f722073696760501b60448201526064016105bf565b909101605f198101518252603f198101516020830152601f19810151604083015251606082015290565b604081146106c15760405162461bcd60e51b8152602060048201526016602482015275424c533a20696e76616c6964207369676e617475726560501b60448201526064016105bf565b60006106cf828401846116ae565b9050836000816001600160401b038111156106ec576106ec611178565b60405190808252806020026020018201604052801561072557816020015b610712611075565b81526020019060019003908161070a5790505b5090506000826001600160401b0381111561074257610742611178565b60405190808252806020026020018201604052801561077b57816020015b610768611057565b8152602001906001900390816107605790505b50905060005b8381101561083757600089898381811061079d5761079d61156e565b90506020028101906107af9190611584565b6107b89061170e565b90506107c381610426565b8483815181106107d5576107d561156e565b6020026020010181905250610806816105028685815181106107f9576107f961156e565b60200260200101516109f5565b8383815181106108185761081861156e565b602002602001018190525050808061082f90611623565b915050610781565b50604051639141376360e01b815273__$b745eded4b1aee1100521038d570dd85f1$__90639141376390610873908790869086906004016117b1565b602060405180830381865af4158015610890573d6000803e3d6000fd5b505050506040513d601f19601f820116820180604052508101906108b4919061178f565b6109005760405162461bcd60e51b815260206004820152601e60248201527f424c533a2076616c69646174655369676e617475726573206661696c6564000060448201526064016105bf565b5050505050505050565b60408051808201909152600080825260208201526000836000815181106109335761093361156e565b60200260200101516000015190506000846000815181106109565761095661156e565b602090810291909101810151015190506001805b86518110156109d6576109bd8484848a858151811061098b5761098b61156e565b6020026020010151600001518b86815181106109a9576109a961156e565b60200260200101516020015160018c610b46565b91955093509150806109ce81611623565b91505061096a565b506109e383838388610e79565b90855260208501525091949350505050565b600081604051602001610a089190611441565b604051602081830303815290604052805190602001209050919050565b610a2d611057565b6000610a398484610afd565b905073__$b745eded4b1aee1100521038d570dd85f1$__63a850a9097fd84c4373167c517e9ccd66803f86d8a4f49e7e1315a7a73b516affea7428f82b83604051602001610a8991815260200190565b6040516020818303038152906040526040518363ffffffff1660e01b8152600401610ab592919061184f565b6040805180830381865af4158015610ad1573d6000803e3d6000fd5b505050506040513d601f19601f82011682018060405250810190610af59190611868565b949350505050565b6000610b0883610ee8565b604080516020810192909252810183905230606082015246608082015260a00160405160208183030381529060405280519060200120905092915050565b6000808089158015610b56575088155b15610b68575085915084905083610e6c565b86158015610b74575085155b15610b86575088915087905086610e6c565b610b8e611075565b8480610b9c57610b9c6118bd565b898a0981528480610baf57610baf6118bd565b81518a0960208201528480610bc657610bc66118bd565b86870960408201528480610bdc57610bdc6118bd565b6040820151870960608201526040805160808101909152808680610c0257610c026118bd565b60408401518e0981526020018680610c1c57610c1c6118bd565b60608401518d0981526020018680610c3657610c366118bd565b83518b0981526020018680610c4d57610c4d6118bd565b60208401518a09905260408101518151919250141580610c7557506060810151602082015114155b610cc15760405162461bcd60e51b815260206004820152601e60248201527f557365206a6163446f75626c652066756e6374696f6e20696e7374656164000060448201526064016105bf565b610cc9611075565b8580610cd757610cd76118bd565b8251610ce390886118d3565b60408401510881528580610cf957610cf96118bd565b6020830151610d0890886118d3565b60608401510860208201528580610d2157610d216118bd565b8151800960408201528580610d3857610d386118bd565b8151604083015109606082015260008680610d5557610d556118bd565b6060830151610d6490896118d3565b8880610d7257610d726118bd565b602085015180090890508680610d8a57610d8a6118bd565b8780610d9857610d986118bd565b8880610da657610da66118bd565b6040850151865109600209610dbb90896118d3565b8208905060008780610dcf57610dcf6118bd565b8880610ddd57610ddd6118bd565b610de7848b6118d3565b8a80610df557610df56118bd565b60408701518851090860208501510990508780610e1457610e146118bd565b8880610e2257610e226118bd565b6060850151602087015109610e37908a6118d3565b8208905060008880610e4b57610e4b6118bd565b8980610e5957610e596118bd565b8b8f098551099297509095509093505050505b9750975097945050505050565b6000806000610e888585610f8b565b905060008480610e9a57610e9a6118bd565b828309905060008580610eaf57610eaf6118bd565b828a09905060008680610ec457610ec46118bd565b8780610ed257610ed26118bd565b8486098a09919a91995090975050505050505050565b80516020808301516040808501518051908401206060860151805190850120608087015160a088015160c089015160e08a01516101008b01516101208c01518051908b0120975160009b610a089b909a9991016001600160a01b039a909a168a5260208a019890985260408901969096526060880194909452608087019290925260a086015260c085015260e08401526101008301526101208201526101400190565b60008215801590610f9c5750818314155b8015610fa757508115155b610fe45760405162461bcd60e51b815260206004820152600e60248201526d24b73b30b634b210373ab6b132b960911b60448201526064016105bf565b6000600183825b861561104c57610ffb87836118e6565b905082868061100c5761100c6118bd565b878061101a5761101a6118bd565b85840961102790896118d3565b86089094509250866110398183611908565b61104390846118d3565b97509150610feb565b509195945050505050565b60405180604001604052806002906020820280368337509192915050565b60405180608001604052806004906020820280368337509192915050565b60008083601f8401126110a557600080fd5b5081356001600160401b038111156110bc57600080fd5b6020830191508360208260051b85010111156110d757600080fd5b9250929050565b600080602083850312156110f157600080fd5b82356001600160401b0381111561110757600080fd5b61111385828601611093565b90969095509350505050565b6000815180845260005b8181101561114557602081850181015186830182015201611129565b506000602082860101526020601f19601f83011685010191505092915050565b6020815260006103bb602083018461111f565b634e487b7160e01b600052604160045260246000fd5b60405161016081016001600160401b03811182821017156111b1576111b1611178565b60405290565b604080519081016001600160401b03811182821017156111b1576111b1611178565b6001600160a01b03811681146111ee57600080fd5b50565b80356111fc816111d9565b919050565b600082601f83011261121257600080fd5b81356001600160401b038082111561122c5761122c611178565b604051601f8301601f19908116603f0116810190828211818310171561125457611254611178565b8160405283815286602085880101111561126d57600080fd5b836020870160208301376000602085830101528094505050505092915050565b600061016082840312156112a057600080fd5b6112a861118e565b90506112b3826111f1565b81526020820135602082015260408201356001600160401b03808211156112d957600080fd5b6112e585838601611201565b604084015260608401359150808211156112fe57600080fd5b61130a85838601611201565b60608401526080840135608084015260a084013560a084015260c084013560c084015260e084013560e0840152610100915081840135828401526101209150818401358181111561135a57600080fd5b61136686828701611201565b83850152506101409150818401358181111561138157600080fd5b61138d86828701611201565b8385015250505092915050565b6000602082840312156113ac57600080fd5b81356001600160401b038111156113c257600080fd5b610af58482850161128d565b60408101818360005b60028110156113f65781518352602092830192909101906001016113d7565b50505092915050565b6000806040838503121561141257600080fd5b823561141d816111d9565b9150602083013563ffffffff8116811461143657600080fd5b809150509250929050565b60808101818360005b60048110156113f657815183526020928301929091019060010161144a565b60006020828403121561147b57600080fd5b81356001600160401b0381111561149157600080fd5b820161016081850312156103bb57600080fd5b6000602082840312156114b657600080fd5b81356001600160401b038111156114cc57600080fd5b610af584828501611201565b600080600080604085870312156114ee57600080fd5b84356001600160401b038082111561150557600080fd5b61151188838901611093565b9096509450602087013591508082111561152a57600080fd5b818701915087601f83011261153e57600080fd5b81358181111561154d57600080fd5b88602082850101111561155f57600080fd5b95989497505060200194505050565b634e487b7160e01b600052603260045260246000fd5b6000823561015e1983360301811261159b57600080fd5b9190910192915050565b6000808335601e198436030181126115bc57600080fd5b8301803591506001600160401b038211156115d657600080fd5b6020019150368190038213156110d757600080fd5b600080604083850312156115fe57600080fd5b50508035926020909101359150565b634e487b7160e01b600052601160045260246000fd5b6000600182016116355761163561160d565b5060010190565b60006080828403121561164e57600080fd5b82601f83011261165d57600080fd5b604051608081018181106001600160401b038211171561167f5761167f611178565b60405280608084018581111561169457600080fd5b845b8181101561104c578051835260209283019201611696565b6000604082840312156116c057600080fd5b82601f8301126116cf57600080fd5b6116d76111b7565b8060408401858111156116e957600080fd5b845b818110156117035780358452602093840193016116eb565b509095945050505050565b600061038e368361128d565b8060005b600281101561173d57815184526020938401939091019060010161171e565b50505050565b8060005b600481101561173d578151845260209384019390910190600101611747565b6101008101611775828661171a565b6117826040830185611743565b610af560c083018461171a565b6000602082840312156117a157600080fd5b815180151581146103bb57600080fd5b600060808083016117c2848861171a565b604084810183905286519182905260209160a086019083890160005b82811015611801576117f1848351611743565b92860192908501906001016117de565b5050508581036060870152865180825290830193508287019060005b818110156118405761183086845161171a565b948301949184019160010161181d565b50939998505050505050505050565b828152604060208201526000610af5604083018461111f565b60006040828403121561187a57600080fd5b82601f83011261188957600080fd5b6118916111b7565b8060408401858111156118a357600080fd5b845b818110156117035780518452602093840193016118a5565b634e487b7160e01b600052601260045260246000fd5b8181038181111561038e5761038e61160d565b60008261190357634e487b7160e01b600052601260045260246000fd5b500490565b808202811582820484141761038e5761038e61160d56fea2646970667358221220bd31ae2efe4b02c0fe4539cfacc71bb1a82d837df7e814642e4d99a3ea904e4064736f6c63430008110033",
  "linkReferences": {
    "contracts/samples/bls/lib/BLSOpen.sol": {
      "BLSOpen": [
        {
          "length": 20,
          "start": 1337
        },
        {
          "length": 20,
          "start": 2151
        },
        {
          "length": 20,
          "start": 2653
        }
      ]
    }
  },
  "deployedLinkReferences": {
    "contracts/samples/bls/lib/BLSOpen.sol": {
      "BLSOpen": [
        {
          "length": 20,
          "start": 1305
        },
        {
          "length": 20,
          "start": 2119
        },
        {
          "length": 20,
          "start": 2621
        }
      ]
    }
  }
}