{
  "_format": "hh-sol-artifact-1",
  "contractName": "TestRevertAccount",
  "sourceName": "contracts/test/TestRevertAccount.sol",
  "abi": [
    {
      "inputs": [
        {
          "internalType": "contract IEntryPoint",
          "name": "_ep",
          "type": "address"
        }
      ],
      "stateMutability": "payable",
      "type": "constructor"
    },
    {
      "inputs": [
        {
          "internalType": "uint256",
          "name": "length",
          "type": "uint256"
        }
      ],
      "name": "revertLong",
      "outputs": [],
      "stateMutability": "pure",
      "type": "function"
    },
    {
      "inputs": [
        {
          "components": [
            {
              "internalType": "address",
              "name": "sender",
              "type": "address"
            },
            {
              "internalType": "uint256",
              "name": "nonce",
              "type": "uint256"
            },
            {
              "internalType": "bytes",
              "name": "initCode",
              "type": "bytes"
            },
            {
              "internalType": "bytes",
              "name": "callData",
              "type": "bytes"
            },
            {
              "internalType": "uint256",
              "name": "callGasLimit",
              "type": "uint256"
            },
            {
              "internalType": "uint256",
              "name": "verificationGasLimit",
              "type": "uint256"
            },
            {
              "internalType": "uint256",
              "name": "preVerificationGas",
              "type": "uint256"
            },
            {
              "internalType": "uint256",
              "name": "maxFeePerGas",
              "type": "uint256"
            },
            {
              "internalType": "uint256",
              "name": "maxPriorityFeePerGas",
              "type": "uint256"
            },
            {
              "internalType": "bytes",
              "name": "paymasterAndData",
              "type": "bytes"
            },
            {
              "internalType": "bytes",
              "name": "signature",
              "type": "bytes"
            }
          ],
          "internalType": "struct UserOperation",
          "name": "",
          "type": "tuple"
        },
        {
          "internalType": "bytes32",
          "name": "",
          "type": "bytes32"
        },
        {
          "internalType": "uint256",
          "name": "missingAccountFunds",
          "type": "uint256"
        }
      ],
      "name": "validateUserOp",
      "outputs": [
        {
          "internalType": "uint256",
          "name": "validationData",
          "type": "uint256"
        }
      ],
      "stateMutability": "nonpayable",
      "type": "function"
    }
  ],
  "bytecode": "0x608060405260405161020838038061020883398101604081905261002291610047565b600080546001600160a01b0319166001600160a01b0392909216919091179055610077565b60006020828403121561005957600080fd5b81516001600160a01b038116811461007057600080fd5b9392505050565b610182806100866000396000f3fe608060405234801561001057600080fd5b50600436106100365760003560e01c80633a871cdd1461003b578063be76c6ef14610060575b600080fd5b61004e6100493660046100df565b610075565b60405190815260200160405180910390f35b61007361006e366004610133565b806000fd5b005b6000805460405163b760faf960e01b81523060048201526001600160a01b039091169063b760faf99084906024016000604051808303818588803b1580156100bc57600080fd5b505af11580156100d0573d6000803e3d6000fd5b50600098975050505050505050565b6000806000606084860312156100f457600080fd5b833567ffffffffffffffff81111561010b57600080fd5b8401610160818703121561011e57600080fd5b95602085013595506040909401359392505050565b60006020828403121561014557600080fd5b503591905056fea2646970667358221220e8cc78cdf4b8e09cd31a2e90e3257db2276c10ca9fccea221a73fc016680fa6964736f6c63430008110033",
  "linkReferences": {},
  "deployedLinkReferences": {}
}