{
  "_format": "hh-sol-artifact-1",
  "contractName": "TestUtil",
  "sourceName": "contracts/test/TestUtil.sol",
  "abi": [
    {
      "inputs": [
        {
          "components": [
            {
              "internalType": "address",
              "name": "sender",
              "type": "address"
            },
            {
              "internalType": "uint256",
              "name": "nonce",
              "type": "uint256"
            },
            {
              "internalType": "bytes",
              "name": "initCode",
              "type": "bytes"
            },
            {
              "internalType": "bytes",
              "name": "callData",
              "type": "bytes"
            },
            {
              "internalType": "uint256",
              "name": "callGasLimit",
              "type": "uint256"
            },
            {
              "internalType": "uint256",
              "name": "verificationGasLimit",
              "type": "uint256"
            },
            {
              "internalType": "uint256",
              "name": "preVerificationGas",
              "type": "uint256"
            },
            {
              "internalType": "uint256",
              "name": "maxFeePerGas",
              "type": "uint256"
            },
            {
              "internalType": "uint256",
              "name": "maxPriorityFeePerGas",
              "type": "uint256"
            },
            {
              "internalType": "bytes",
              "name": "paymasterAndData",
              "type": "bytes"
            },
            {
              "internalType": "bytes",
              "name": "signature",
              "type": "bytes"
            }
          ],
          "internalType": "struct UserOperation",
          "name": "op",
          "type": "tuple"
        }
      ],
      "name": "packUserOp",
      "outputs": [
        {
          "internalType": "bytes",
          "name": "",
          "type": "bytes"
        }
      ],
      "stateMutability": "pure",
      "type": "function"
    }
  ],
  "bytecode": "0x608060405234801561001057600080fd5b50610265806100206000396000f3fe608060405234801561001057600080fd5b506004361061002b5760003560e01c80633a24dea414610030575b600080fd5b61004361003e366004610150565b610059565b6040516100509190610193565b60405180910390f35b60606100648261006a565b92915050565b606081356020830135600061008a61008560408701876101e1565b61013d565b9050600061009e61008560608801886101e1565b9050608086013560a087013560c088013560e08901356101008a013560006100cd6100856101208e018e6101e1565b604080516001600160a01b039c909c1660208d01528b81019a909a5260608b019890985250608089019590955260a088019390935260c087019190915260e08601526101008501526101208401526101408084019190915281518084039091018152610160909201905292915050565b6000604051828085833790209392505050565b60006020828403121561016257600080fd5b813567ffffffffffffffff81111561017957600080fd5b8201610160818503121561018c57600080fd5b9392505050565b600060208083528351808285015260005b818110156101c0578581018301518582016040015282016101a4565b506000604082860101526040601f19601f8301168501019250505092915050565b6000808335601e198436030181126101f857600080fd5b83018035915067ffffffffffffffff82111561021357600080fd5b60200191503681900382131561022857600080fd5b925092905056fea26469706673582212204f557b947627f21e9e0f92caa9ed2ca14558c89c04092bef05c46ca1ee2b273664736f6c63430008110033",
  "linkReferences": {},
  "deployedLinkReferences": {}
}