{
  "_format": "hh-sol-artifact-1",
  "contractName": "BrokenBLSAccount",
  "sourceName": "contracts/test/BrokenBlsAccount.sol",
  "abi": [
    {
      "inputs": [
        {
          "internalType": "contract IEntryPoint",
          "name": "anEntryPoint",
          "type": "address"
        },
        {
          "internalType": "address",
          "name": "anAggregator",
          "type": "address"
        }
      ],
      "stateMutability": "nonpayable",
      "type": "constructor"
    },
    {
      "anonymous": false,
      "inputs": [
        {
          "indexed": false,
          "internalType": "address",
          "name": "previousAdmin",
          "type": "address"
        },
        {
          "indexed": false,
          "internalType": "address",
          "name": "newAdmin",
          "type": "address"
        }
      ],
      "name": "AdminChanged",
      "type": "event"
    },
    {
      "anonymous": false,
      "inputs": [
        {
          "indexed": true,
          "internalType": "address",
          "name": "beacon",
          "type": "address"
        }
      ],
      "name": "BeaconUpgraded",
      "type": "event"
    },
    {
      "anonymous": false,
      "inputs": [
        {
          "indexed": false,
          "internalType": "uint8",
          "name": "version",
          "type": "uint8"
        }
      ],
      "name": "Initialized",
      "type": "event"
    },
    {
      "anonymous": false,
      "inputs": [
        {
          "indexed": false,
          "internalType": "uint256[4]",
          "name": "oldPublicKey",
          "type": "uint256[4]"
        },
        {
          "indexed": false,
          "internalType": "uint256[4]",
          "name": "newPublicKey",
          "type": "uint256[4]"
        }
      ],
      "name": "PublicKeyChanged",
      "type": "event"
    },
    {
      "anonymous": false,
      "inputs": [
        {
          "indexed": true,
          "internalType": "contract IEntryPoint",
          "name": "entryPoint",
          "type": "address"
        },
        {
          "indexed": true,
          "internalType": "address",
          "name": "owner",
          "type": "address"
        }
      ],
      "name": "SimpleAccountInitialized",
      "type": "event"
    },
    {
      "anonymous": false,
      "inputs": [
        {
          "indexed": true,
          "internalType": "address",
          "name": "implementation",
          "type": "address"
        }
      ],
      "name": "Upgraded",
      "type": "event"
    },
    {
      "inputs": [],
      "name": "addDeposit",
      "outputs": [],
      "stateMutability": "payable",
      "type": "function"
    },
    {
      "inputs": [],
      "name": "aggregator",
      "outputs": [
        {
          "internalType": "address",
          "name": "",
          "type": "address"
        }
      ],
      "stateMutability": "view",
      "type": "function"
    },
    {
      "inputs": [],
      "name": "entryPoint",
      "outputs": [
        {
          "internalType": "contract IEntryPoint",
          "name": "",
          "type": "address"
        }
      ],
      "stateMutability": "view",
      "type": "function"
    },
    {
      "inputs": [
        {
          "internalType": "address",
          "name": "dest",
          "type": "address"
        },
        {
          "internalType": "uint256",
          "name": "value",
          "type": "uint256"
        },
        {
          "internalType": "bytes",
          "name": "func",
          "type": "bytes"
        }
      ],
      "name": "execute",
      "outputs": [],
      "stateMutability": "nonpayable",
      "type": "function"
    },
    {
      "inputs": [
        {
          "internalType": "address[]",
          "name": "dest",
          "type": "address[]"
        },
        {
          "internalType": "bytes[]",
          "name": "func",
          "type": "bytes[]"
        }
      ],
      "name": "executeBatch",
      "outputs": [],
      "stateMutability": "nonpayable",
      "type": "function"
    },
    {
      "inputs": [],
      "name": "getBlsPublicKey",
      "outputs": [
        {
          "internalType": "uint256[4]",
          "name": "",
          "type": "uint256[4]"
        }
      ],
      "stateMutability": "pure",
      "type": "function"
    },
    {
      "inputs": [],
      "name": "getDeposit",
      "outputs": [
        {
          "internalType": "uint256",
          "name": "",
          "type": "uint256"
        }
      ],
      "stateMutability": "view",
      "type": "function"
    },
    {
      "inputs": [],
      "name": "getNonce",
      "outputs": [
        {
          "internalType": "uint256",
          "name": "",
          "type": "uint256"
        }
      ],
      "stateMutability": "view",
      "type": "function"
    },
    {
      "inputs": [
        {
          "internalType": "address",
          "name": "anOwner",
          "type": "address"
        }
      ],
      "name": "initialize",
      "outputs": [],
      "stateMutability": "nonpayable",
      "type": "function"
    },
    {
      "inputs": [
        {
          "internalType": "uint256[4]",
          "name": "aPublicKey",
          "type": "uint256[4]"
        }
      ],
      "name": "initialize",
      "outputs": [],
      "stateMutability": "nonpayable",
      "type": "function"
    },
    {
      "inputs": [
        {
          "internalType": "address",
          "name": "",
          "type": "address"
        },
        {
          "internalType": "address",
          "name": "",
          "type": "address"
        },
        {
          "internalType": "uint256[]",
          "name": "",
          "type": "uint256[]"
        },
        {
          "internalType": "uint256[]",
          "name": "",
          "type": "uint256[]"
        },
        {
          "internalType": "bytes",
          "name": "",
          "type": "bytes"
        }
      ],
      "name": "onERC1155BatchReceived",
      "outputs": [
        {
          "internalType": "bytes4",
          "name": "",
          "type": "bytes4"
        }
      ],
      "stateMutability": "pure",
      "type": "function"
    },
    {
      "inputs": [
        {
          "internalType": "address",
          "name": "",
          "type": "address"
        },
        {
          "internalType": "address",
          "name": "",
          "type": "address"
        },
        {
          "internalType": "uint256",
          "name": "",
          "type": "uint256"
        },
        {
          "internalType": "uint256",
          "name": "",
          "type": "uint256"
        },
        {
          "internalType": "bytes",
          "name": "",
          "type": "bytes"
        }
      ],
      "name": "onERC1155Received",
      "outputs": [
        {
          "internalType": "bytes4",
          "name": "",
          "type": "bytes4"
        }
      ],
      "stateMutability": "pure",
      "type": "function"
    },
    {
      "inputs": [
        {
          "internalType": "address",
          "name": "",
          "type": "address"
        },
        {
          "internalType": "address",
          "name": "",
          "type": "address"
        },
        {
          "internalType": "uint256",
          "name": "",
          "type": "uint256"
        },
        {
          "internalType": "bytes",
          "name": "",
          "type": "bytes"
        }
      ],
      "name": "onERC721Received",
      "outputs": [
        {
          "internalType": "bytes4",
          "name": "",
          "type": "bytes4"
        }
      ],
      "stateMutability": "pure",
      "type": "function"
    },
    {
      "inputs": [],
      "name": "owner",
      "outputs": [
        {
          "internalType": "address",
          "name": "",
          "type": "address"
        }
      ],
      "stateMutability": "view",
      "type": "function"
    },
    {
      "inputs": [],
      "name": "proxiableUUID",
      "outputs": [
        {
          "internalType": "bytes32",
          "name": "",
          "type": "bytes32"
        }
      ],
      "stateMutability": "view",
      "type": "function"
    },
    {
      "inputs": [
        {
          "internalType": "bytes4",
          "name": "interfaceId",
          "type": "bytes4"
        }
      ],
      "name": "supportsInterface",
      "outputs": [
        {
          "internalType": "bool",
          "name": "",
          "type": "bool"
        }
      ],
      "stateMutability": "view",
      "type": "function"
    },
    {
      "inputs": [
        {
          "internalType": "address",
          "name": "",
          "type": "address"
        },
        {
          "internalType": "address",
          "name": "",
          "type": "address"
        },
        {
          "internalType": "address",
          "name": "",
          "type": "address"
        },
        {
          "internalType": "uint256",
          "name": "",
          "type": "uint256"
        },
        {
          "internalType": "bytes",
          "name": "",
          "type": "bytes"
        },
        {
          "internalType": "bytes",
          "name": "",
          "type": "bytes"
        }
      ],
      "name": "tokensReceived",
      "outputs": [],
      "stateMutability": "pure",
      "type": "function"
    },
    {
      "inputs": [
        {
          "internalType": "address",
          "name": "newImplementation",
          "type": "address"
        }
      ],
      "name": "upgradeTo",
      "outputs": [],
      "stateMutability": "nonpayable",
      "type": "function"
    },
    {
      "inputs": [
        {
          "internalType": "address",
          "name": "newImplementation",
          "type": "address"
        },
        {
          "internalType": "bytes",
          "name": "data",
          "type": "bytes"
        }
      ],
      "name": "upgradeToAndCall",
      "outputs": [],
      "stateMutability": "payable",
      "type": "function"
    },
    {
      "inputs": [
        {
          "components": [
            {
              "internalType": "address",
              "name": "sender",
              "type": "address"
            },
            {
              "internalType": "uint256",
              "name": "nonce",
              "type": "uint256"
            },
            {
              "internalType": "bytes",
              "name": "initCode",
              "type": "bytes"
            },
            {
              "internalType": "bytes",
              "name": "callData",
              "type": "bytes"
            },
            {
              "internalType": "uint256",
              "name": "callGasLimit",
              "type": "uint256"
            },
            {
              "internalType": "uint256",
              "name": "verificationGasLimit",
              "type": "uint256"
            },
            {
              "internalType": "uint256",
              "name": "preVerificationGas",
              "type": "uint256"
            },
            {
              "internalType": "uint256",
              "name": "maxFeePerGas",
              "type": "uint256"
            },
            {
              "internalType": "uint256",
              "name": "maxPriorityFeePerGas",
              "type": "uint256"
            },
            {
              "internalType": "bytes",
              "name": "paymasterAndData",
              "type": "bytes"
            },
            {
              "internalType": "bytes",
              "name": "signature",
              "type": "bytes"
            }
          ],
          "internalType": "struct UserOperation",
          "name": "userOp",
          "type": "tuple"
        },
        {
          "internalType": "bytes32",
          "name": "userOpHash",
          "type": "bytes32"
        },
        {
          "internalType": "uint256",
          "name": "missingAccountFunds",
          "type": "uint256"
        }
      ],
      "name": "validateUserOp",
      "outputs": [
        {
          "internalType": "uint256",
          "name": "validationData",
          "type": "uint256"
        }
      ],
      "stateMutability": "nonpayable",
      "type": "function"
    },
    {
      "inputs": [
        {
          "internalType": "address payable",
          "name": "withdrawAddress",
          "type": "address"
        },
        {
          "internalType": "uint256",
          "name": "amount",
          "type": "uint256"
        }
      ],
      "name": "withdrawDepositTo",
      "outputs": [],
      "stateMutability": "nonpayable",
      "type": "function"
    },
    {
      "stateMutability": "payable",
      "type": "receive"
    }
  ],
  "bytecode": "0x60e0604052306080523480156200001557600080fd5b5060405162001cdc38038062001cdc83398101604081905262000038916200013e565b6001600160a01b03821660a052816200005062000064565b506001600160a01b031660c052506200017d565b600054610100900460ff1615620000d15760405162461bcd60e51b815260206004820152602760248201527f496e697469616c697a61626c653a20636f6e747261637420697320696e697469604482015266616c697a696e6760c81b606482015260840160405180910390fd5b60005460ff9081161462000123576000805460ff191660ff9081179091556040519081527f7f26b83ff96e1f2b6a682f133852f6798a09c465da95921460cefb38474024989060200160405180910390a15b565b6001600160a01b03811681146200013b57600080fd5b50565b600080604083850312156200015257600080fd5b82516200015f8162000125565b6020840151909250620001728162000125565b809150509250929050565b60805160a05160c051611adb620002016000396000818161020c0152610695015260008181610319015281816106d801528181610759015281816109d201528181610b3501528181610c0701528181610e840152610fc80152600081816105a1015281816105e1015281816107ea0152818161082a01526108bd0152611adb6000f3fe60806040526004361061012d5760003560e01c806352d1902d116100ab578063c399ec881161006f578063c399ec881461038c578063c4d66de8146103a1578063d087d288146103c1578063e02afbae146103d6578063ee472f36146103f8578063f23a6e611461041857600080fd5b806352d1902d146102cf5780638da5cb5b146102e4578063b0d691fe1461030a578063b61d27f61461033d578063bc197c811461035d57600080fd5b80633659cfe6116100f25780633659cfe6146102465780633a871cdd146102665780634a58db19146102945780634d44560d1461029c5780634f1ef286146102bc57600080fd5b806223de291461013957806301ffc9a714610160578063150b7a021461019557806318dfb3c7146101da578063245a7bfc146101fa57600080fd5b3661013457005b600080fd5b34801561014557600080fd5b5061015e6101543660046112d0565b5050505050505050565b005b34801561016c57600080fd5b5061018061017b366004611380565b610445565b60405190151581526020015b60405180910390f35b3480156101a157600080fd5b506101c16101b03660046113aa565b630a85bd0160e11b95945050505050565b6040516001600160e01b0319909116815260200161018c565b3480156101e657600080fd5b5061015e6101f5366004611460565b610497565b34801561020657600080fd5b5061022e7f000000000000000000000000000000000000000000000000000000000000000081565b6040516001600160a01b03909116815260200161018c565b34801561025257600080fd5b5061015e6102613660046114cb565b610597565b34801561027257600080fd5b506102866102813660046114e8565b610676565b60405190815260200161018c565b61015e6106d6565b3480156102a857600080fd5b5061015e6102b736600461153b565b61074f565b61015e6102ca3660046115ad565b6107e0565b3480156102db57600080fd5b506102866108b0565b3480156102f057600080fd5b5060005461022e906201000090046001600160a01b031681565b34801561031657600080fd5b507f000000000000000000000000000000000000000000000000000000000000000061022e565b34801561034957600080fd5b5061015e610358366004611654565b610963565b34801561036957600080fd5b506101c16103783660046116a3565b63bc197c8160e01b98975050505050505050565b34801561039857600080fd5b506102866109b2565b3480156103ad57600080fd5b5061015e6103bc3660046114cb565b610a43565b3480156103cd57600080fd5b50610286610b0e565b3480156103e257600080fd5b506103eb610b64565b60405161018c9190611740565b34801561040457600080fd5b5061015e610413366004611771565b610b79565b34801561042457600080fd5b506101c16104333660046117ee565b63f23a6e6160e01b9695505050505050565b60006001600160e01b03198216630a85bd0160e11b148061047657506001600160e01b03198216630271189760e51b145b8061049157506001600160e01b031982166301ffc9a760e01b145b92915050565b61049f610bfc565b8281146104e95760405162461bcd60e51b815260206004820152601360248201527277726f6e67206172726179206c656e6774687360681b60448201526064015b60405180910390fd5b60005b838110156105905761057e85858381811061050957610509611869565b905060200201602081019061051e91906114cb565b600085858581811061053257610532611869565b9050602002810190610544919061187f565b8080601f016020809104026020016040519081016040528093929190818152602001838380828437600092019190915250610c9192505050565b80610588816118c5565b9150506104ec565b5050505050565b6001600160a01b037f00000000000000000000000000000000000000000000000000000000000000001630036105df5760405162461bcd60e51b81526004016104e0906118ec565b7f00000000000000000000000000000000000000000000000000000000000000006001600160a01b0316610628600080516020611a5f833981519152546001600160a01b031690565b6001600160a01b03161461064e5760405162461bcd60e51b81526004016104e090611938565b61065781610d01565b6040805160008082526020820190925261067391839190610d09565b50565b6000610680610e79565b50604080516060810182526001600160a01b037f00000000000000000000000000000000000000000000000000000000000000001680825260006020830181905291909201526106cf82610ef1565b9392505050565b7f000000000000000000000000000000000000000000000000000000000000000060405163b760faf960e01b81523060048201526001600160a01b03919091169063b760faf99034906024016000604051808303818588803b15801561073b57600080fd5b505af1158015610590573d6000803e3d6000fd5b610757610f3e565b7f000000000000000000000000000000000000000000000000000000000000000060405163040b850f60e31b81526001600160a01b03848116600483015260248201849052919091169063205c287890604401600060405180830381600087803b1580156107c457600080fd5b505af11580156107d8573d6000803e3d6000fd5b505050505050565b6001600160a01b037f00000000000000000000000000000000000000000000000000000000000000001630036108285760405162461bcd60e51b81526004016104e0906118ec565b7f00000000000000000000000000000000000000000000000000000000000000006001600160a01b0316610871600080516020611a5f833981519152546001600160a01b031690565b6001600160a01b0316146108975760405162461bcd60e51b81526004016104e090611938565b6108a082610d01565b6108ac82826001610d09565b5050565b6000306001600160a01b037f000000000000000000000000000000000000000000000000000000000000000016146109505760405162461bcd60e51b815260206004820152603860248201527f555550535570677261646561626c653a206d757374206e6f742062652063616c60448201527f6c6564207468726f7567682064656c656761746563616c6c000000000000000060648201526084016104e0565b50600080516020611a5f83398151915290565b61096b610bfc565b6109ac848484848080601f016020809104026020016040519081016040528093929190818152602001838380828437600092019190915250610c9192505050565b50505050565b6040516370a0823160e01b81523060048201526000906001600160a01b037f000000000000000000000000000000000000000000000000000000000000000016906370a08231906024015b602060405180830381865afa158015610a1a573d6000803e3d6000fd5b505050506040513d601f19601f82011682018060405250810190610a3e9190611984565b905090565b600054610100900460ff1615808015610a635750600054600160ff909116105b80610a7d5750303b158015610a7d575060005460ff166001145b610a995760405162461bcd60e51b81526004016104e09061199d565b6000805460ff191660011790558015610abc576000805461ff0019166101001790555b610ac582610f95565b80156108ac576000805461ff0019169055604051600181527f7f26b83ff96e1f2b6a682f133852f6798a09c465da95921460cefb38474024989060200160405180910390a15050565b604051631aab3f0d60e11b8152306004820152600060248201819052906001600160a01b037f000000000000000000000000000000000000000000000000000000000000000016906335567e1a906044016109fd565b610b6c611255565b610b74611255565b919050565b600054610100900460ff1615808015610b995750600054600160ff909116105b80610bb35750303b158015610bb3575060005460ff166001145b610bcf5760405162461bcd60e51b81526004016104e09061199d565b6000805460ff191660011790558015610bf2576000805461ff0019166101001790555b610ac56000610f95565b336001600160a01b037f0000000000000000000000000000000000000000000000000000000000000000161480610c4357506000546201000090046001600160a01b031633145b610c8f5760405162461bcd60e51b815260206004820181905260248201527f6163636f756e743a206e6f74204f776e6572206f7220456e747279506f696e7460448201526064016104e0565b565b600080846001600160a01b03168484604051610cad9190611a0f565b60006040518083038185875af1925050503d8060008114610cea576040519150601f19603f3d011682016040523d82523d6000602084013e610cef565b606091505b50915091508161059057805160208201fd5b610673610f3e565b7f4910fdfa16fed3260ed0e7147f7cc6da11a60208b5b9406d12a635614ffd91435460ff1615610d4157610d3c83611011565b505050565b826001600160a01b03166352d1902d6040518163ffffffff1660e01b8152600401602060405180830381865afa925050508015610d9b575060408051601f3d908101601f19168201909252610d9891810190611984565b60015b610dfe5760405162461bcd60e51b815260206004820152602e60248201527f45524331393637557067726164653a206e657720696d706c656d656e7461746960448201526d6f6e206973206e6f74205555505360901b60648201526084016104e0565b600080516020611a5f8339815191528114610e6d5760405162461bcd60e51b815260206004820152602960248201527f45524331393637557067726164653a20756e737570706f727465642070726f786044820152681a58589b195555525160ba1b60648201526084016104e0565b50610d3c8383836110ad565b336001600160a01b037f00000000000000000000000000000000000000000000000000000000000000001614610c8f5760405162461bcd60e51b815260206004820152601c60248201527f6163636f756e743a206e6f742066726f6d20456e747279506f696e740000000060448201526064016104e0565b801561067357604051600090339060001990849084818181858888f193505050503d8060008114610590576040519150601f19603f3d011682016040523d82523d6000602084013e610590565b6000546201000090046001600160a01b0316331480610f5c57503330145b610c8f5760405162461bcd60e51b815260206004820152600a60248201526937b7363c9037bbb732b960b11b60448201526064016104e0565b6000805462010000600160b01b031916620100006001600160a01b038481168202929092178084556040519190048216927f0000000000000000000000000000000000000000000000000000000000000000909216917f47e55c76e7a6f1fd8996a1da8008c1ea29699cca35e7bcd057f2dec313b6e5de91a350565b6001600160a01b0381163b61107e5760405162461bcd60e51b815260206004820152602d60248201527f455243313936373a206e657720696d706c656d656e746174696f6e206973206e60448201526c1bdd08184818dbdb9d1c9858dd609a1b60648201526084016104e0565b600080516020611a5f83398151915280546001600160a01b0319166001600160a01b0392909216919091179055565b6110b6836110d2565b6000825111806110c35750805b15610d3c576109ac8383611112565b6110db81611011565b6040516001600160a01b038216907fbc7cd75a20ee27fd9adebab32041f755214dbc6bffa90cc0225b39da2e5c2d3b90600090a250565b60606106cf8383604051806060016040528060278152602001611a7f602791396060600080856001600160a01b03168560405161114f9190611a0f565b600060405180830381855af49150503d806000811461118a576040519150601f19603f3d011682016040523d82523d6000602084013e61118f565b606091505b50915091506111a0868383876111aa565b9695505050505050565b60608315611219578251600003611212576001600160a01b0385163b6112125760405162461bcd60e51b815260206004820152601d60248201527f416464726573733a2063616c6c20746f206e6f6e2d636f6e747261637400000060448201526064016104e0565b5081611223565b611223838361122b565b949350505050565b81511561123b5781518083602001fd5b8060405162461bcd60e51b81526004016104e09190611a2b565b60405180608001604052806004906020820280368337509192915050565b6001600160a01b038116811461067357600080fd5b60008083601f84011261129a57600080fd5b5081356001600160401b038111156112b157600080fd5b6020830191508360208285010111156112c957600080fd5b9250929050565b60008060008060008060008060c0898b0312156112ec57600080fd5b88356112f781611273565b9750602089013561130781611273565b9650604089013561131781611273565b95506060890135945060808901356001600160401b038082111561133a57600080fd5b6113468c838d01611288565b909650945060a08b013591508082111561135f57600080fd5b5061136c8b828c01611288565b999c989b5096995094979396929594505050565b60006020828403121561139257600080fd5b81356001600160e01b0319811681146106cf57600080fd5b6000806000806000608086880312156113c257600080fd5b85356113cd81611273565b945060208601356113dd81611273565b93506040860135925060608601356001600160401b038111156113ff57600080fd5b61140b88828901611288565b969995985093965092949392505050565b60008083601f84011261142e57600080fd5b5081356001600160401b0381111561144557600080fd5b6020830191508360208260051b85010111156112c957600080fd5b6000806000806040858703121561147657600080fd5b84356001600160401b038082111561148d57600080fd5b6114998883890161141c565b909650945060208701359150808211156114b257600080fd5b506114bf8782880161141c565b95989497509550505050565b6000602082840312156114dd57600080fd5b81356106cf81611273565b6000806000606084860312156114fd57600080fd5b83356001600160401b0381111561151357600080fd5b8401610160818703121561152657600080fd5b95602085013595506040909401359392505050565b6000806040838503121561154e57600080fd5b823561155981611273565b946020939093013593505050565b634e487b7160e01b600052604160045260246000fd5b604051601f8201601f191681016001600160401b03811182821017156115a5576115a5611567565b604052919050565b600080604083850312156115c057600080fd5b82356115cb81611273565b91506020838101356001600160401b03808211156115e857600080fd5b818601915086601f8301126115fc57600080fd5b81358181111561160e5761160e611567565b611620601f8201601f1916850161157d565b9150808252878482850101111561163657600080fd5b80848401858401376000848284010152508093505050509250929050565b6000806000806060858703121561166a57600080fd5b843561167581611273565b93506020850135925060408501356001600160401b0381111561169757600080fd5b6114bf87828801611288565b60008060008060008060008060a0898b0312156116bf57600080fd5b88356116ca81611273565b975060208901356116da81611273565b965060408901356001600160401b03808211156116f657600080fd5b6117028c838d0161141c565b909850965060608b013591508082111561171b57600080fd5b6117278c838d0161141c565b909650945060808b013591508082111561135f57600080fd5b60808101818360005b6004811015611768578151835260209283019290910190600101611749565b50505092915050565b60006080828403121561178357600080fd5b82601f83011261179257600080fd5b604051608081018181106001600160401b03821117156117b4576117b4611567565b6040528060808401858111156117c957600080fd5b845b818110156117e35780358352602092830192016117cb565b509195945050505050565b60008060008060008060a0878903121561180757600080fd5b863561181281611273565b9550602087013561182281611273565b9450604087013593506060870135925060808701356001600160401b0381111561184b57600080fd5b61185789828a01611288565b979a9699509497509295939492505050565b634e487b7160e01b600052603260045260246000fd5b6000808335601e1984360301811261189657600080fd5b8301803591506001600160401b038211156118b057600080fd5b6020019150368190038213156112c957600080fd5b6000600182016118e557634e487b7160e01b600052601160045260246000fd5b5060010190565b6020808252602c908201527f46756e6374696f6e206d7573742062652063616c6c6564207468726f7567682060408201526b19195b1959d85d1958d85b1b60a21b606082015260800190565b6020808252602c908201527f46756e6374696f6e206d7573742062652063616c6c6564207468726f7567682060408201526b6163746976652070726f787960a01b606082015260800190565b60006020828403121561199657600080fd5b5051919050565b6020808252602e908201527f496e697469616c697a61626c653a20636f6e747261637420697320616c72656160408201526d191e481a5b9a5d1a585b1a5e995960921b606082015260800190565b60005b83811015611a065781810151838201526020016119ee565b50506000910152565b60008251611a218184602087016119eb565b9190910192915050565b6020815260008251806020840152611a4a8160408501602087016119eb565b601f01601f1916919091016040019291505056fe360894a13ba1a3210667c828492db98dca3e2076cc3735a920a3ca505d382bbc416464726573733a206c6f772d6c6576656c2064656c65676174652063616c6c206661696c6564a26469706673582212203facd7b8d287512e65bd40bef2740472a37cb056544d0a485ecd36b2d238f00c64736f6c63430008110033",
  "linkReferences": {},
  "deployedLinkReferences": {}
}