{
  "_format": "hh-sol-artifact-1",
  "contractName": "TestHelpers",
  "sourceName": "contracts/test/TestHelpers.sol",
  "abi": [
    {
      "inputs": [
        {
          "internalType": "uint256",
          "name": "validationData",
          "type": "uint256"
        },
        {
          "internalType": "uint256",
          "name": "paymasterValidationData",
          "type": "uint256"
        }
      ],
      "name": "intersectTimeRange",
      "outputs": [
        {
          "components": [
            {
              "internalType": "address",
              "name": "aggregator",
              "type": "address"
            },
            {
              "internalType": "uint48",
              "name": "validAfter",
              "type": "uint48"
            },
            {
              "internalType": "uint48",
              "name": "validUntil",
              "type": "uint48"
            }
          ],
          "internalType": "struct ValidationData",
          "name": "",
          "type": "tuple"
        }
      ],
      "stateMutability": "pure",
      "type": "function"
    },
    {
      "inputs": [
        {
          "internalType": "bool",
          "name": "sigFailed",
          "type": "bool"
        },
        {
          "internalType": "uint48",
          "name": "validUntil",
          "type": "uint48"
        },
        {
          "internalType": "uint48",
          "name": "validAfter",
          "type": "uint48"
        }
      ],
      "name": "packValidationData",
      "outputs": [
        {
          "internalType": "uint256",
          "name": "",
          "type": "uint256"
        }
      ],
      "stateMutability": "pure",
      "type": "function"
    },
    {
      "inputs": [
        {
          "components": [
            {
              "internalType": "address",
              "name": "aggregator",
              "type": "address"
            },
            {
              "internalType": "uint48",
              "name": "validAfter",
              "type": "uint48"
            },
            {
              "internalType": "uint48",
              "name": "validUntil",
              "type": "uint48"
            }
          ],
          "internalType": "struct ValidationData",
          "name": "data",
          "type": "tuple"
        }
      ],
      "name": "packValidationDataStruct",
      "outputs": [
        {
          "internalType": "uint256",
          "name": "",
          "type": "uint256"
        }
      ],
      "stateMutability": "pure",
      "type": "function"
    },
    {
      "inputs": [
        {
          "internalType": "uint256",
          "name": "validationData",
          "type": "uint256"
        }
      ],
      "name": "parseValidationData",
      "outputs": [
        {
          "components": [
            {
              "internalType": "address",
              "name": "aggregator",
              "type": "address"
            },
            {
              "internalType": "uint48",
              "name": "validAfter",
              "type": "uint48"
            },
            {
              "internalType": "uint48",
              "name": "validUntil",
              "type": "uint48"
            }
          ],
          "internalType": "struct ValidationData",
          "name": "",
          "type": "tuple"
        }
      ],
      "stateMutability": "pure",
      "type": "function"
    }
  ],
  "bytecode": "0x608060405234801561001057600080fd5b5061046e806100206000396000f3fe608060405234801561001057600080fd5b506004361061004c5760003560e01c806324d3cde6146100515780634fe5f5cf14610077578063a4b2282e146100c5578063b059e2fa146100d8575b600080fd5b61006461005f36600461032b565b6100eb565b6040519081526020015b60405180910390f35b61008a6100853660046103b3565b610132565b6040805182516001600160a01b0316815260208084015165ffffffffffff90811691830191909152928201519092169082015260600161006e565b61008a6100d33660046103d5565b610160565b6100646100e63660046103ee565b610186565b600061012c82600060d0826020015165ffffffffffff16901b60a0836040015165ffffffffffff16901b83600001516001600160a01b031617179050919050565b92915050565b6040805160608101825260008082526020820181905291810191909152610159838361019b565b9392505050565b604080516060810182526000808252602082018190529181019190915261012c82610267565b60006101938484846102d8565b949350505050565b60408051606081018252600080825260208201819052918101829052906101c184610267565b905060006101ce84610267565b82519091506001600160a01b0381166101e5575080515b602080840151604080860151928501519085015191929165ffffffffffff8083169085161015610213578193505b8065ffffffffffff168365ffffffffffff16111561022f578092505b5050604080516060810182526001600160a01b03909416845265ffffffffffff92831660208501529116908201529250505092915050565b60408051606081018252600080825260208201819052918101919091528160a081901c65ffffffffffff81166000036102a3575065ffffffffffff5b604080516060810182526001600160a01b03909316835260d09490941c602083015265ffffffffffff16928101929092525090565b600060d08265ffffffffffff16901b60a08465ffffffffffff16901b85610300576000610303565b60015b60ff161717949350505050565b803565ffffffffffff8116811461032657600080fd5b919050565b60006060828403121561033d57600080fd5b6040516060810181811067ffffffffffffffff8211171561036e57634e487b7160e01b600052604160045260246000fd5b60405282356001600160a01b038116811461038857600080fd5b815261039660208401610310565b60208201526103a760408401610310565b60408201529392505050565b600080604083850312156103c657600080fd5b50508035926020909101359150565b6000602082840312156103e757600080fd5b5035919050565b60008060006060848603121561040357600080fd5b8335801515811461041357600080fd5b925061042160208501610310565b915061042f60408501610310565b9050925092509256fea2646970667358221220ef2d5dc57233cf7de62e8d939a8ff6f8b35496213eeebbbbb0dc5db4ad2f474564736f6c63430008110033",
  "linkReferences": {},
  "deployedLinkReferences": {}
}