{
  "_format": "hh-sol-artifact-1",
  "contractName": "EIP4337Fallback",
  "sourceName": "contracts/samples/gnosis/EIP4337Fallback.sol",
  "abi": [
    {
      "inputs": [
        {
          "internalType": "address",
          "name": "_eip4337manager",
          "type": "address"
        }
      ],
      "stateMutability": "nonpayable",
      "type": "constructor"
    },
    {
      "inputs": [],
      "name": "NAME",
      "outputs": [
        {
          "internalType": "string",
          "name": "",
          "type": "string"
        }
      ],
      "stateMutability": "view",
      "type": "function"
    },
    {
      "inputs": [],
      "name": "VERSION",
      "outputs": [
        {
          "internalType": "string",
          "name": "",
          "type": "string"
        }
      ],
      "stateMutability": "view",
      "type": "function"
    },
    {
      "inputs": [],
      "name": "eip4337manager",
      "outputs": [
        {
          "internalType": "address",
          "name": "",
          "type": "address"
        }
      ],
      "stateMutability": "view",
      "type": "function"
    },
    {
      "inputs": [
        {
          "internalType": "address",
          "name": "",
          "type": "address"
        },
        {
          "internalType": "uint256",
          "name": "",
          "type": "uint256"
        },
        {
          "internalType": "bytes",
          "name": "",
          "type": "bytes"
        },
        {
          "internalType": "enum Enum.Operation",
          "name": "",
          "type": "uint8"
        }
      ],
      "name": "executeAndRevert",
      "outputs": [],
      "stateMutability": "nonpayable",
      "type": "function"
    },
    {
      "inputs": [],
      "name": "getNonce",
      "outputs": [
        {
          "internalType": "uint256",
          "name": "nonce",
          "type": "uint256"
        }
      ],
      "stateMutability": "nonpayable",
      "type": "function"
    },
    {
      "inputs": [
        {
          "internalType": "bytes32",
          "name": "_hash",
          "type": "bytes32"
        },
        {
          "internalType": "bytes",
          "name": "_signature",
          "type": "bytes"
        }
      ],
      "name": "isValidSignature",
      "outputs": [
        {
          "internalType": "bytes4",
          "name": "",
          "type": "bytes4"
        }
      ],
      "stateMutability": "view",
      "type": "function"
    },
    {
      "inputs": [
        {
          "internalType": "address",
          "name": "",
          "type": "address"
        },
        {
          "internalType": "address",
          "name": "",
          "type": "address"
        },
        {
          "internalType": "uint256[]",
          "name": "",
          "type": "uint256[]"
        },
        {
          "internalType": "uint256[]",
          "name": "",
          "type": "uint256[]"
        },
        {
          "internalType": "bytes",
          "name": "",
          "type": "bytes"
        }
      ],
      "name": "onERC1155BatchReceived",
      "outputs": [
        {
          "internalType": "bytes4",
          "name": "",
          "type": "bytes4"
        }
      ],
      "stateMutability": "pure",
      "type": "function"
    },
    {
      "inputs": [
        {
          "internalType": "address",
          "name": "",
          "type": "address"
        },
        {
          "internalType": "address",
          "name": "",
          "type": "address"
        },
        {
          "internalType": "uint256",
          "name": "",
          "type": "uint256"
        },
        {
          "internalType": "uint256",
          "name": "",
          "type": "uint256"
        },
        {
          "internalType": "bytes",
          "name": "",
          "type": "bytes"
        }
      ],
      "name": "onERC1155Received",
      "outputs": [
        {
          "internalType": "bytes4",
          "name": "",
          "type": "bytes4"
        }
      ],
      "stateMutability": "pure",
      "type": "function"
    },
    {
      "inputs": [
        {
          "internalType": "address",
          "name": "",
          "type": "address"
        },
        {
          "internalType": "address",
          "name": "",
          "type": "address"
        },
        {
          "internalType": "uint256",
          "name": "",
          "type": "uint256"
        },
        {
          "internalType": "bytes",
          "name": "",
          "type": "bytes"
        }
      ],
      "name": "onERC721Received",
      "outputs": [
        {
          "internalType": "bytes4",
          "name": "",
          "type": "bytes4"
        }
      ],
      "stateMutability": "pure",
      "type": "function"
    },
    {
      "inputs": [
        {
          "internalType": "bytes4",
          "name": "interfaceId",
          "type": "bytes4"
        }
      ],
      "name": "supportsInterface",
      "outputs": [
        {
          "internalType": "bool",
          "name": "",
          "type": "bool"
        }
      ],
      "stateMutability": "view",
      "type": "function"
    },
    {
      "inputs": [
        {
          "internalType": "address",
          "name": "",
          "type": "address"
        },
        {
          "internalType": "address",
          "name": "",
          "type": "address"
        },
        {
          "internalType": "address",
          "name": "",
          "type": "address"
        },
        {
          "internalType": "uint256",
          "name": "",
          "type": "uint256"
        },
        {
          "internalType": "bytes",
          "name": "",
          "type": "bytes"
        },
        {
          "internalType": "bytes",
          "name": "",
          "type": "bytes"
        }
      ],
      "name": "tokensReceived",
      "outputs": [],
      "stateMutability": "pure",
      "type": "function"
    },
    {
      "inputs": [
        {
          "components": [
            {
              "internalType": "address",
              "name": "sender",
              "type": "address"
            },
            {
              "internalType": "uint256",
              "name": "nonce",
              "type": "uint256"
            },
            {
              "internalType": "bytes",
              "name": "initCode",
              "type": "bytes"
            },
            {
              "internalType": "bytes",
              "name": "callData",
              "type": "bytes"
            },
            {
              "internalType": "uint256",
              "name": "callGasLimit",
              "type": "uint256"
            },
            {
              "internalType": "uint256",
              "name": "verificationGasLimit",
              "type": "uint256"
            },
            {
              "internalType": "uint256",
              "name": "preVerificationGas",
              "type": "uint256"
            },
            {
              "internalType": "uint256",
              "name": "maxFeePerGas",
              "type": "uint256"
            },
            {
              "internalType": "uint256",
              "name": "maxPriorityFeePerGas",
              "type": "uint256"
            },
            {
              "internalType": "bytes",
              "name": "paymasterAndData",
              "type": "bytes"
            },
            {
              "internalType": "bytes",
              "name": "signature",
              "type": "bytes"
            }
          ],
          "internalType": "struct UserOperation",
          "name": "",
          "type": "tuple"
        },
        {
          "internalType": "bytes32",
          "name": "",
          "type": "bytes32"
        },
        {
          "internalType": "uint256",
          "name": "",
          "type": "uint256"
        }
      ],
      "name": "validateUserOp",
      "outputs": [
        {
          "internalType": "uint256",
          "name": "deadline",
          "type": "uint256"
        }
      ],
      "stateMutability": "nonpayable",
      "type": "function"
    }
  ],
  "bytecode": "0x60a060405234801561001057600080fd5b50604051610e63380380610e6383398101604081905261002f91610040565b6001600160a01b0316608052610070565b60006020828403121561005257600080fd5b81516001600160a01b038116811461006957600080fd5b9392505050565b608051610dd16100926000396000818161014a015261043e0152610dd16000f3fe608060405234801561001057600080fd5b50600436106100b35760003560e01c8063940d3c6011610071578063940d3c60146101a5578063a3f4df7e146101b8578063bc197c8114610201578063d087d28814610223578063f23a6e611461022b578063ffa1ad741461024b57600080fd5b806223de29146100b857806301ffc9a7146100d2578063150b7a02146100fa5780631626ba7e146101325780632bcadc24146101455780633a871cdd14610184575b600080fd5b6100d06100c6366004610787565b5050505050505050565b005b6100e56100e0366004610832565b61026f565b60405190151581526020015b60405180910390f35b61011961010836600461085c565b630a85bd0160e11b95945050505050565b6040516001600160e01b031990911681526020016100f1565b610119610140366004610990565b6102c1565b61016c7f000000000000000000000000000000000000000000000000000000000000000081565b6040516001600160a01b0390911681526020016100f1565b6101976101923660046109d7565b610395565b6040519081526020016100f1565b6100d06101b3366004610a2b565b6103bf565b6101f46040518060400160405280601881526020017f44656661756c742043616c6c6261636b2048616e646c6572000000000000000081525081565b6040516100f19190610abd565b61011961020f366004610b35565b63bc197c8160e01b98975050505050505050565b6101976103ce565b610119610239366004610bcf565b63f23a6e6160e01b9695505050505050565b6101f4604051806040016040528060058152602001640312e302e360dc1b81525081565b60006001600160e01b03198216630271189760e51b14806102a057506001600160e01b03198216630a85bd0160e11b145b806102bb57506001600160e01b031982166301ffc9a760e01b145b92915050565b7f19457468657265756d205369676e6564204d6573736167653a0a3332000000006000908152601c839052603c812060006102fc82856103f5565b6040516317aa5fb760e11b81526001600160a01b038216600482015290915033908190632f54bf6e90602401602060405180830381865afa158015610345573d6000803e3d6000fd5b505050506040513d601f19601f820116820180604052508101906103699190610c57565b156103815750630b135d3f60e11b92506102bb915050565b506001600160e01b031992506102bb915050565b6000806103a0610419565b9050808060200190518101906103b69190610c72565b95945050505050565b6103c7610419565b5050505050565b6000806103d9610419565b9050808060200190518101906103ef9190610c72565b91505090565b600080600061040485856104ce565b9150915061041181610513565b509392505050565b604051635229073f60e01b8152606090339060009081908390635229073f9061046f907f000000000000000000000000000000000000000000000000000000000000000090859081903690600190600401610ca1565b6000604051808303816000875af115801561048e573d6000803e3d6000fd5b505050506040513d6000823e601f3d908101601f191682016040526104b69190810190610d11565b91509150816104c757805160208201fd5b9392505050565b60008082516041036105045760208301516040840151606085015160001a6104f887828585610665565b9450945050505061050c565b506000905060025b9250929050565b600081600481111561052757610527610c8b565b0361052f5750565b600181600481111561054357610543610c8b565b036105955760405162461bcd60e51b815260206004820152601860248201527f45434453413a20696e76616c6964207369676e6174757265000000000000000060448201526064015b60405180910390fd5b60028160048111156105a9576105a9610c8b565b036105f65760405162461bcd60e51b815260206004820152601f60248201527f45434453413a20696e76616c6964207369676e6174757265206c656e67746800604482015260640161058c565b600381600481111561060a5761060a610c8b565b036106625760405162461bcd60e51b815260206004820152602260248201527f45434453413a20696e76616c6964207369676e6174757265202773272076616c604482015261756560f01b606482015260840161058c565b50565b6000807f7fffffffffffffffffffffffffffffff5d576e7357a4501ddfe92f46681b20a083111561069c5750600090506003610720565b6040805160008082526020820180845289905260ff881692820192909252606081018690526080810185905260019060a0016020604051602081039080840390855afa1580156106f0573d6000803e3d6000fd5b5050604051601f1901519150506001600160a01b03811661071957600060019250925050610720565b9150600090505b94509492505050565b80356001600160a01b038116811461074057600080fd5b919050565b60008083601f84011261075757600080fd5b50813567ffffffffffffffff81111561076f57600080fd5b60208301915083602082850101111561050c57600080fd5b60008060008060008060008060c0898b0312156107a357600080fd5b6107ac89610729565b97506107ba60208a01610729565b96506107c860408a01610729565b955060608901359450608089013567ffffffffffffffff808211156107ec57600080fd5b6107f88c838d01610745565b909650945060a08b013591508082111561081157600080fd5b5061081e8b828c01610745565b999c989b5096995094979396929594505050565b60006020828403121561084457600080fd5b81356001600160e01b0319811681146104c757600080fd5b60008060008060006080868803121561087457600080fd5b61087d86610729565b945061088b60208701610729565b935060408601359250606086013567ffffffffffffffff8111156108ae57600080fd5b6108ba88828901610745565b969995985093965092949392505050565b634e487b7160e01b600052604160045260246000fd5b604051601f8201601f1916810167ffffffffffffffff8111828210171561090a5761090a6108cb565b604052919050565b600067ffffffffffffffff82111561092c5761092c6108cb565b50601f01601f191660200190565b600082601f83011261094b57600080fd5b813561095e61095982610912565b6108e1565b81815284602083860101111561097357600080fd5b816020850160208301376000918101602001919091529392505050565b600080604083850312156109a357600080fd5b82359150602083013567ffffffffffffffff8111156109c157600080fd5b6109cd8582860161093a565b9150509250929050565b6000806000606084860312156109ec57600080fd5b833567ffffffffffffffff811115610a0357600080fd5b84016101608187031215610a1657600080fd5b95602085013595506040909401359392505050565b60008060008060808587031215610a4157600080fd5b610a4a85610729565b935060208501359250604085013567ffffffffffffffff811115610a6d57600080fd5b610a798782880161093a565b925050606085013560028110610a8e57600080fd5b939692955090935050565b60005b83811015610ab4578181015183820152602001610a9c565b50506000910152565b6020815260008251806020840152610adc816040850160208701610a99565b601f01601f19169190910160400192915050565b60008083601f840112610b0257600080fd5b50813567ffffffffffffffff811115610b1a57600080fd5b6020830191508360208260051b850101111561050c57600080fd5b60008060008060008060008060a0898b031215610b5157600080fd5b610b5a89610729565b9750610b6860208a01610729565b9650604089013567ffffffffffffffff80821115610b8557600080fd5b610b918c838d01610af0565b909850965060608b0135915080821115610baa57600080fd5b610bb68c838d01610af0565b909650945060808b013591508082111561081157600080fd5b60008060008060008060a08789031215610be857600080fd5b610bf187610729565b9550610bff60208801610729565b94506040870135935060608701359250608087013567ffffffffffffffff811115610c2957600080fd5b610c3589828a01610745565b979a9699509497509295939492505050565b8051801515811461074057600080fd5b600060208284031215610c6957600080fd5b6104c782610c47565b600060208284031215610c8457600080fd5b5051919050565b634e487b7160e01b600052602160045260246000fd5b6001600160a01b0386168152602081018590526080604082018190528101839052828460a0830137600060a08483010152600060a0601f19601f860116830101905060028310610d0157634e487b7160e01b600052602160045260246000fd5b8260608301529695505050505050565b60008060408385031215610d2457600080fd5b610d2d83610c47565b9150602083015167ffffffffffffffff811115610d4957600080fd5b8301601f81018513610d5a57600080fd5b8051610d6861095982610912565b818152866020838501011115610d7d57600080fd5b610d8e826020830160208601610a99565b809350505050925092905056fea2646970667358221220d330ef2587aa3d0dc65793862dc3527963f70eb89732d5bf11061736b480774a64736f6c63430008110033",
  "linkReferences": {},
  "deployedLinkReferences": {}
}